:020000040000FA
:0600000088EF19F0120068
:020006001200E6
:06000800F4EF15F01200F8
:01000E0000F1
:01000F0000F0
:03001000000000ED
:0600180076EF15F0120066
:02001E000800D8
:100020001F340000280100002800000004340000F4
:10003000E50000001B0000000F0000008D01000023
:1000400004000000A3330000000F00006100000066
:100050007B33000000010000280000000E000000BB
:1000600092010000010000006833000070010000F0
:100070001300000048330000500100002000000081
:10008000D9CFE6FFE1CFD9FF040EE126DE6ADD6AB3
:10009000DECF10F0DDCF11F0126A136A11AE02D07C
:1000A00012681368D950FB0FE96EFF0EDA20EA6E72
:1000B000EE50105CEE501158EE501258EE5013589E
:1000C0001DE2020EDB6A030EDB6A020EDBCF10F0CC
:1000D000030EDBCF11F0D890115004E6050E105C32
:1000E000000E115806E2020EDB2A030EEEE3DB2AB5
:1000F000ECD7DF2A010ECCE3DB2ACAD7040EE15C81
:1001000002E2E16AE552E16EE552E7CFD9FF120063
:10011000D9CFE6FFE1CFD9FF040EE126DE6ADD6A22
:10012000DECF10F0DDCF11F0126A136A11AE02D0EB
:1001300012681368D950FB0FE96EFF0EDA20EA6EE1
:10014000EE50105CEE501158EE501258EE5013580D
:100150001DE2020EDB6A030EDB6A020EDBCF10F03B
:10016000030EDBCF11F0D890115004E6EE0E105CB8
:10017000000E115806E2020EDB2A030EEEE3DB2A24
:10018000ECD7DF2A010ECCE3DB2ACAD7040EE15CF0
:1001900002E2E16AE552E16EE552E7CFD9FF1200D3
:1001A000D9CFE6FFE1CFD9FF0F0E8116FE0EDB504F
:1001B000F00B81128186010EE66EE66AE66AE66A57
:1001C000A7DFE552E552E552E5528196010EE66E53
:1001D000E66AE66AE66A9CDFE552E552E552E552D8
:1001E0000F0E8116FE0EDB38F00B81128186010E98
:1001F000E66EE66AE66AE66A8BDFE552E552E552AC
:10020000E5528196010EE66EE66AE66AE66A80DFEE
:10021000E552E552E552E552E552E7CFD9FF12002B
:10022000D9CFE6FFE1CFD9FFE652936A190EE66E09
:10023000E66AE66AE66A6CDFE552E552E552E552A7
:100240000F0E8116F80E81160F0E8116300E8112D8
:100250008186010EE66EE66AE66AE66A59DFE552D5
:10026000E552E552E5528196010EE66EE66AE66ACF
:10027000E66A4EDFE552E552E552E5520F0E811671
:10028000300E81128186010EE66EE66AE66AE66A43
:100290003FDFE552E552E552E5528196010EE66EEA
:1002A000E66AE66AE66A34DFE552E552E552E5526F
:1002B0000F0E8116300E81128186010EE66EE66AFF
:1002C000E66AE66A25DFE552E552E552E552819697
:1002D000010EE66EE66AE66AE66A1ADFE552E55264
:1002E000E552E5520F0E8116818A8186010EE66E77
:1002F000E66AE66AE66A0CDFE552E552E552E55247
:100300008196010EE66EE66AE66AE66A01DFE5526C
:10031000E552E552E552280EE66E42DFE5520C0E3C
:10032000E66E3EDFE552E552E552E7CFD9FF120017
:10033000D9CFE6FFE1CFD9FF020EE126DF6A010E39
:10034000DB6A81940F0EE66EE66AE66AE66A98DE7C
:10035000E552E552E552E5520F0E81128186E66EB6
:10036000E66AE66AE66A8CDEE552E552E552E55257
:100370000F0E8114E76E010EE7CFDBFF81960F0EA3
:10038000E66EE66AE66AE66A7BDEE552E552E5522B
:10039000E5520F0E81128186E66EE66AE66AE66A2B
:1003A0006FDEE552E552E552E5520F0E8114DF6E25
:1003B000010EDB50DF128196010EE66EE66AE66AF8
:1003C000E66A5EDEE552E552E552E552DF50106E18
:1003D000020EE15C02E2E16AE552E16E1050E55284
:1003E000E7CFD9FF1200D9CFE6FFE1CFD9FFE65220
:1003F000DF6A9EDFDF6EDFBEFCD7DF50E552E552DD
:10040000E7CFD9FF1200D9CFE6FFE1CFD9FF0F0E1A
:100410008116FE0EDB5081128186050EE66EE66ABD
:10042000E66AE66A2DDEE552E552E552E55281962E
:10043000050EE66EE66AE66AE66A22DEE552E552F7
:10044000E552E552E552E7CFD9FF1200D9CFE6FFDA
:10045000E1CFD9FF8194050EE66EE66AE66AE66AA8
:100460000FDEE552E552E552E552FE0EDBCFE6FF28
:10047000CADFE552FE0EDB38F00BE66EC4DFE55254
:10048000E552E7CFD9FF1200D9CFE6FFE1CFD9FF80
:100490008184050EE66EE66AE66AE66AF1DDE552FB
:1004A000E552E552E552FE0EDBCFE6FFACDFE5524A
:1004B000FE0EDB38F00BE66EA6DFE5528194E552C6
:1004C000E7CFD9FF1200D9CFE6FFE1CFD9FFFE0E6B
:1004D000DBCFE6FFD9DFE552E552E7CFD9FF1200C7
:1004E000D9CFE6FFE1CFD9FFFE0EDBCFE6FFCCDFB1
:1004F000E552E552E7CFD9FF1200D9CFE6FFE1CFB1
:10050000D9FFFD0EDBCFF6FFFE0EDBCFF7FF0800B5
:10051000F5500FE0FD0EDBCFF6FFDB2AFE0EDBCF42
:10052000F7FF01E3DB2A0800F550E66ED9DFE5525C
:10053000E8D7E552E7CFD9FF1200D9CFE6FFE1CFE8
:10054000D9FFE652FD0EDB500F0B106EFE0EDB5096
:10055000010B400DF3501024DF6E7F0EDF14800F6F
:10056000DF6EDFCFE6FF72DFE552E552E552E7CFFF
:10057000D9FF1200010EE66E69DFE552E66AE66A0F
:10058000DCDFE552E5521200D9CFE6FFE1CFD9FF1B
:10059000050EE126010EF36EDB6E020EDB6A030E22
:1005A000DB6A040EDB6ADF6ADFCF10F0116A10BE6F
:1005B0001168FB0EDBCF12F0FC0EDBCF13F01150F5
:1005C0001318E8AE02D0133404D01250105C13504C
:1005D00011582DE2FD0EDBCF10F0FE0EDBCF11F037
:1005E000126A136A11AE02D012681368D950010F53
:1005F000E96EDACFEAFF10C00BF011C00CF012C0A8
:100600000DF013C00EF0EECF06F0EECF07F0EECFF8
:1006100008F0EFCF09F0CDEC18F005C0EDFF04C0F5
:10062000EDFF03C0EDFF02C0EFFFDF2ABDD7010ED3
:10063000DBCF10F0020EDBCF11F0030EDBCF12F098
:10064000040EDBCF13F010C006F011C007F012C08B
:1006500008F013C009F0050EE15C02E2E16AE55220
:10066000E16EE552E7CFD9FF1200D9CFE6FFE1CF27
:10067000D9FF020EE126DF6AFB0EDBCF10F0FC0E85
:10068000DBCF11F0FD0EDBCF12F0FE0EDBCF13F04F
:10069000105011101210131005E1300EE66E20DF1D
:1006A000E552F4D0D950FB0FE96EFF0EDA20EA6E66
:1006B000D890030EEB50000A08E6000EEE5C000E28
:1006C000EE58000EEE58000EEE5815E22D0EE66EB6
:1006D00007DFE552D950FB0FE96EFF0EDA20EA6E14
:1006E000000EEE6CEF1EEE22EF1EEE22EF1EEF224A
:1006F000ED52ED52ED52DE52070EDD6E010EDBCFF4
:1007000010F0000EE76E1018E8AE02D0103403D0DF
:10071000E750D880105401E3B9D0010EDB04146E09
:10072000156A14BE156814C0E6FF15C0E6FF0A0E70
:10073000E66EE66A29DFE552E552E552E55206C06B
:1007400010F007C011F008C012F009C013F006C085
:100750000BF007C00CF008C00DF009C00EF0FB0E46
:10076000DBCF06F0FC0EDBCF07F0FD0EDBCF08F091
:10077000FE0EDBCF09F005EC19F00650071008104B
:10078000091041E0010EDF6EDB04186E196A18BE15
:10079000196818C0E6FF19C0E6FF0A0EE66EE66AA1
:1007A000F3DEE552E552E552E55206C014F007C00B
:1007B00015F008C016F009C017F006C00BF007C00E
:1007C0000CF008C00DF009C00EF0FB0EDBCF06F0F8
:1007D000FC0EDBCF07F0FD0EDBCF08F0FE0EDBCF0B
:1007E00009F005EC19F006C010F007C011F008C0C0
:1007F00012F009C013F0300E1026000E1122122242
:100800001322105003D0DF5004E0300EE66E68DE95
:10081000E552010EDB04146E156A14BE156814C08F
:10082000E6FF15C0E6FF0A0EE66EE66AADDEE552AB
:10083000E552E552E55206C010F007C011F008C0BD
:1008400012F009C013F0D950FB0FE96EFF0EDA2049
:10085000EA6E06C00BF007C00CF008C00DF009C02E
:100860000EF0EECF06F0EECF07F0EECF08F0EFCFB0
:1008700009F005EC19F005C0EDFF04C0EDFF03C061
:10088000EDFF02C0EFFF010EDB0638D7020EE15C80
:1008900002E2E16AE552E16EE552E7CFD9FF1200CC
:1008A000D9CFE6FFE1CFD9FFFD0EDBCFE6FFFE0E8D
:1008B000DBCFE6FF42DEE552E552D950F90FE96E93
:1008C000FF0EDA20EA6EEECFE6FFEECFE6FFEECFC8
:1008D000E6FFEFCFE6FFC9DEE552E552E552E5520D
:1008E000E552E7CFD9FF1200D9CFE6FFE1CFD9FF1C
:1008F000FD0EDBCFE6FFFE0EDBCFE6FF1EDEE55290
:10090000E552FB0EDBCFE6FFFC0EDBCFE6FFF5DDAD
:10091000E552E552E552E7CFD9FF1200D9CFE6FF05
:10092000E1CFD9FF7BCF10F07CCF11F0040ED8902F
:1009300010361136E806FBE1410E10260F0E11228B
:1009400010500F017D25E96E11507E21EA6EFE0EDA
:10095000DBCFEFFF7D2B000E7E23E552E7CFD9FFE3
:100960001200D9CFE6FFE1CFD9FFE652DF6ADFCF31
:1009700010F0100EE76E1018E8AE02D0E73402D087
:10098000E750105C18E2DFCFE9FFEA6AE9BEEA68E7
:10099000410EE9260F0EEA22200EEF6EDFCFE9FFAF
:1009A000EA6AE9BEEA68510EE9260F0EEA22200E35
:1009B000EF6EDF2ADCD7E552E552E7CFD9FF120010
:1009C000D9CFE6FFE1CFD9FFE6520F014051030A2C
:1009D00052E0010A36E0030A1AE0010A67E1E66A1A
:1009E000E66AABDDE552E552DF6A080EDF5C0CE239
:1009F000DF50EA6A410FE96E0F0EEA22EF50E66E11
:100A00006FDDE552DF2AF1D70F01010E32D0080E5B
:100A1000E66EE66A92DDE552E552DF6A080EDF5CBB
:100A20000DE2080EDF24EA6A410FE96E0F0EEA229A
:100A3000EF50E66E55DDE552DF2AF0D70F01020ECA
:100A400018D0E66A010EE66E78DDE552E552DF6AFF
:100A5000080EDF5C0CE2DF50EA6A510FE96E0F0E00
:100A6000EA22EF50E66E3CDDE552DF2AF1D70F01B6
:100A7000030E406F1CD0080EE66E010EE66E5DDDC3
:100A8000E552E552DF6A080EDF5C0DE2080EDF2456
:100A9000EA6A510FE96E0F0EEA22EF50E66E20DD92
:100AA000E552DF2AF0D70F01406B01D0406BE552D1
:100AB000E552E7CFD9FF1200D9CFE6FFE1CFD9FF4A
:100AC000E6520F014051010A1BE0010A32E1E66AD9
:100AD000E66A33DDE552E552DF6A100EDF5C0CE2B8
:100AE000DF50EA6A410FE96E0F0EEA22EF50E66E20
:100AF000F7DCE552DF2AF1D70F01010E406F1AD063
:100B0000E66A010EE66E19DDE552E552DF6A100E67
:100B1000DF5C0CE2DF50EA6A510FE96E0F0EEA2249
:100B2000EF50E66EDDDCE552DF2AF1D70F01406BB6
:100B300001D0406BE552E552E7CFD9FF1200D9CF83
:100B4000E6FFE1CFD9FFE652E66AE66AF6DCE55257
:100B5000E552DF6A100EDF5C0CE2DF50EA6A410FFB
:100B6000E96E0F0EEA22EF50E66EBADCE552DF2A9C
:100B7000F1D7E66A010EE66EE0DCE552E552DF6A87
:100B8000100EDF5C0CE2DF50EA6A510FE96E0F0EC7
:100B9000EA22EF50E66EA4DCE552DF2AF1D7E552F7
:100BA000E552E7CFD9FF1200D9CFE6FFE1CFD9FF59
:100BB000FE0EDB50010B0F017B6F7C6BFD0EDB50DB
:100BC0000F0B7D6F7E6BFC0EDB500A0802E1610E9D
:100BD00005D0FC0EDB500D0805E1640EF36EFC0E33
:100BE000F3CFDBFF7BCF10F07CCF11F0040ED89059
:100BF00010361136E806FBE1410E10260F0E1122C9
:100C000010500F017D25E96E11507E21EA6EFC0E19
:100C1000DBCFEFFFE552E7CFD9FF1200D9CFE6FFD8
:100C2000E1CFD9FF020EE126DF6AFE0EDB50010B99
:100C30000F017B6F7C6BFD0EDB500F0B7D6F7E6BAE
:100C4000F90EDBCF10F0FA0EDBCF11F0FB0EDBCF8D
:100C500012F0FC0EDBCF13F0105011101210131015
:100C600005E1300EE66E5ADEE552F5D0D950F90FA7
:100C7000E96EFF0EDA20EA6ED890030EEB50000A00
:100C800008E6000EEE5C000EEE58000EEE58000E68
:100C9000EE5815E22D0EE66E41DEE552D950F90F01
:100CA000E96EFF0EDA20EA6E000EEE6CEF1EEE2209
:100CB000EF1EEE22EF1EEF22ED52ED52ED52DE520C
:100CC000070EDD6E010EDBCF10F0000EE76E101880
:100CD000E8AE02D0103403D0E750D880105401E3BE
:100CE000BAD0010EDB04146E156A14BE156814C068
:100CF000E6FF15C0E6FF0A0EE66EE66A45DCE55241
:100D0000E552E552E55206C010F007C011F008C0E8
:100D100012F009C013F006C00BF007C00CF008C0B9
:100D20000DF009C00EF0F90EDBCF06F0FA0EDBCFA6
:100D300007F0FB0EDBCF08F0FC0EDBCF09F005EC73
:100D400019F0065007100810091041E0010EDF6E7F
:100D5000DB04186E196A18BE196818C0E6FF19C0BE
:100D6000E6FF0A0EE66EE66A0FDCE552E552E55252
:100D7000E55206C014F007C015F008C016F009C00F
:100D800017F006C00BF007C00CF008C00DF009C04A
:100D90000EF0F90EDBCF06F0FA0EDBCF07F0FB0EFC
:100DA000DBCF08F0FC0EDBCF09F005EC19F006C034
:100DB00010F007C011F008C012F009C013F0300E97
:100DC0001026000E112212221322105003D0DF50E1
:100DD00004E0300EE66EA2DDE552010EDB04146E77
:100DE000156A14BE156814C0E6FF15C0E6FF0A0EAA
:100DF000E66EE66AC4EC02F0E552E552E552E552D1
:100E000006C010F007C011F008C012F009C013F0BE
:100E1000D950F90FE96EFF0EDA20EA6E06C00BF02A
:100E200007C00CF008C00DF009C00EF0EECF06F0C0
:100E3000EECF07F0EECF08F0EFCF09F005EC19F098
:100E400005C0EDFF04C0EDFF03C0EDFF02C0EFFFE2
:100E5000010EDB0637D7020EE15C02E2E16AE552E1
:100E6000E16EE552E7CFD9FF1200D9CFE6FFE1CF1F
:100E7000D9FFFE0EDB50010B0F017B6F7C6BFD0E6B
:100E8000DB500F0B7D6F7E6BFB0EDBCFF6FFFC0E96
:100E9000DBCFF7FF0800F5500FE0FB0EDBCFF6FFCE
:100EA000DB2AFC0EDBCFF7FF01E3DB2A0800F5505D
:100EB000E66E34DDE552E8D7E552E7CFD9FF120000
:100EC000D9CFE6FFE1CFD9FF020EE126DE6ADD6A67
:100ED00066D8E80EE66E030EE66E17D8E552E552C8
:100EE00001015B51FDE05B6B0101212B2151106E73
:100EF000116A140E101803E1115001E1216B72EC1C
:100F00000DF083DAE0EC04F0EBD7D9CFE6FFE1CFC8
:100F1000D9FF040EE126DE6ADD6ADECF10F0DDCFF8
:100F200011F0FD0EDBCF12F0FE0EDBCF13F01150EF
:100F30001318E8AE02D0133404D01250105C1350D2
:100F400011581DE2020EDB6A030EDB6A020EDBCFD4
:100F500010F0030EDBCF11F0D890115004E6EE0E26
:100F6000105C000E115806E2020EDB2A030EEEE3BF
:100F7000DB2AECD7DF2A010ED0E3DB2ACED7040E22
:100F8000E15C02E2E16AE552E16EE552E7CFD9FFAA
:100F90001200956A836A080E966E846E1200F9DF5D
:100FA00010EC01F066EC0DF06EEC15F0BAEC02F00E
:100FB000B1EC04F0F40EE66E010EE66EA6DFE5522B
:100FC000E552570EE66E120EE66E40EC11F0E55259
:100FD000E552AE0EE66E240EE66EE2EC11F0E5523E
:100FE000E552660EE66EB70EE66EA3EC12F0E55221
:100FF000E552020EE66EE66A7EEC13F0E552E5522B
:101000000A0EE66EE66A90EC13F0E552E552320EF7
:10101000E66EE66AAFEC13F0E552E5521200D9CF66
:10102000E6FFE1CFD9FFFE0EDBCF11F0800E1114E9
:101030001BE1FD0EDBCF12F0FE0EDBCF13F01334FD
:1010400004E212500708000E13540EE3FD0EDBCF2E
:10105000E9FFFE0EDBCFEAFF000EE926010EEA22D1
:10106000EF508310836E18D0D950FD0FE96EFF0E3C
:10107000DA20EA6E080EEE180FE1ED500DE1FD0EDC
:10108000DBCFE9FFFE0EDBCFEAFF000EE926010E03
:10109000EA22EF508410846EE552E7CFD9FF1200A8
:1010A000D9CFE6FFE1CFD9FFFE0EDBCF11F0800EE6
:1010B00011141BE1FD0EDBCF12F0FE0EDBCF13F09F
:1010C000133404E212500708000E13540EE3FD0E11
:1010D000DBCFE9FFFE0EDBCFEAFF000EE926010EB3
:1010E000EA22EF1C8314836E18D0D950FD0FE96EED
:1010F000FF0EDA20EA6E080EEE180FE1ED500DE15A
:10110000FD0EDBCFE9FFFE0EDBCFEAFF000EE92686
:10111000010EEA22EF1C8414846EE552E7CFD9FF5A
:101120001200D9CFE6FFE1CFD9FFFD0EDBCFE9FFFB
:10113000FE0EDBCFEAFF090EE926010EEA22EF04DC
:1011400015E1FD0EDBCFE6FFFE0EDBCFE6FFA8DFED
:10115000E552E552FD0EDBCFE9FFFE0EDBCFEAFFE5
:10116000090EE926010EEA22EF6A15D0FD0EDBCF4B
:10117000E6FFFE0EDBCFE6FF52DFE552E552FD0E45
:10118000DBCFE9FFFE0EDBCFEAFF090EE926010EF9
:10119000EA22010EEF6EE552E7CFD9FF1200D9CF58
:1011A000E6FFE1CFD9FF020EE126DE6ADD6ADECF7F
:1011B00010F0DDCF11F0D890115004E60E0E105C47
:1011C000000E115821E2DECFE6FFDDCFE6FF27DF7C
:1011D000E552E552F40EE66E010EE66E96DEE5523D
:1011E000E552DECFE6FFDDCFE6FF5ADFE552E552FE
:1011F000F40EE66E010EE66E88DEE552E552DF2A59
:10120000010ED5E3DB2AD3D7020EE15C02E2E16AEC
:10121000E552E16EE552E7CFD9FF1200D9CFE6FFE4
:10122000E1CFD9FF020EE126DE6ADD6ADE6ADD6A01
:10123000DECF10F0DDCF11F0D890115004E6080E8B
:10124000105C000E115829E2FE0EDB50DF5206E062
:10125000DFCFF3FFE846FE0BF306FCE1800B8008CE
:1012600005E1000EE66EE66ADADE04D0000EE66EF8
:10127000E66A16DFE552E552010EE66EE66ACFDE5B
:10128000E552E552010EE66EE66A0ADFE552E552E6
:10129000DF2A010ECDE3DB2ACBD7020EE15C02E2AE
:1012A000E16AE552E16EE552E7CFD9FF1200D9CFEE
:1012B000E6FFE1CFD9FFFD0EDBCFE6FFAFDFE55262
:1012C000FE0EDBCFE6FFAADFE552020EE66EE66A0F
:1012D000A6DEE552E552020EE66EE66AE1DEE55272
:1012E000E552E552E7CFD9FF1200E66A97DFE552F3
:1012F000E66A94DFE552020EE66EE66A90DEE5529B
:10130000E552020EE66EE66ACBDEE552E5521200C9
:10131000D9CFE6FFE1CFD9FFFE0EDB50030A46E04E
:10132000010A1DE0030A6DE1D950FC0FE96EFF0EC2
:10133000DA20EA6E010EEE180AE1ED5008E1030E24
:10134000E66EE66A6CDEE552E552040E1AD0060E31
:10135000E66EE66A64DEE552E552070E20D0D9500B
:10136000FC0FE96EFF0EDA20EA6E010EEE1810E1B6
:10137000ED500EE1040EE66EE66A51DEE552E552EE
:10138000030EE66EE66A8CDEE552E552050E34D0B9
:10139000070EE66EE66A43DEE552E552060EE66E9D
:1013A000E66A7EDEE552E552080E26D0D950FC0FE3
:1013B000E96EFF0EDA20EA6E010EEE1810E1ED5034
:1013C0000EE1050EE66EE66A2ADEE552E552040EEF
:1013D000E66EE66A65DEE552E552030E0DD0080EB4
:1013E000E66EE66A1CDEE552E552070EE66EE66A38
:1013F00057DEE552E552060EE66EE66A51DEE5522C
:10140000E552E552E7CFD9FF120001011D51030A51
:1014100001E1EED0010A01E1BED0020A22E0010A98
:1014200001E01BD1B1EC04F0780EE66E310EE66EF1
:10143000E66AE66A35EC07F0E552E552E552E55218
:10144000BBD90DD9000901E109D101011D6B010EC4
:101450001E6F030E1F6F216B23C126F125C127F1DB
:101460001200B1EC04F0670EE66E310EE66EE66A2D
:10147000E66A35EC07F0E552E552E552E552560EC4
:10148000E66E310EE66EE66A010EE66E35EC07F0AA
:10149000E552E552E552E552530EE66E310EE66E28
:1014A000E66A010EE66E35EC07F0E552E552E552CC
:1014B000E55223C110F0116A126A136A23C1E6FFD4
:1014C00011C0E6FF12C0E6FF13C0E6FF020EE66E93
:1014D000010EE66E0EEC06F0146E060EE15E145080
:1014E000500EE66E310EE66E060EE66E010EE66EEC
:1014F00035EC07F0E552E552E552E55224C110F013
:10150000116A126A136A24C1E6FF11C0E6FF12C015
:10151000E6FF13C0E6FF080EE66E010EE66E0EEC67
:1015200006F0146E060EE15E14504D0EE66E310E9E
:10153000E66E0C0EE66E010EE66E35EC07F0E55237
:10154000E552E552E55225C110F0116A126A136A9C
:1015500025C1E6FF11C0E6FF12C0E6FF13C0E6FF9B
:101560000E0EE66E010EE66E0EEC06F0146E060E22
:10157000E15E14504FD973D8000903E00101020E57
:101580001D6F0101010E281905E1295167E10101D3
:10159000010E1D6F1200B1EC04F03C0EE66E310E30
:1015A000E66EE66AE66A35EC07F0E552E552E5528A
:1015B000E55222C110F0116A126A136A22C1E6FFD5
:1015C00011C0E6FF12C0E6FF13C0E6FF0A0EE66E8A
:1015D000010EE66E0EEC06F0146E060EE15E14507F
:1015E0001CD93DD800093AE00101030E1D6F12001D
:1015F000B1EC04F02B0EE66E310EE66EE66AE66A9A
:1016000035EC07F0E552E552E552E55222C110F003
:10161000116A126A136A22C1E6FF11C0E6FF12C006
:10162000E6FF13C0E6FF0A0EE66E010EE66E0EEC54
:1016300006F0146E060EE15E14501DD910D8000994
:101640000DE001011D6B010E1E6F030E1F6F216B5C
:1016500023C126F125C127F112001D6B12000101E3
:10166000010E2E1903E12F5101E1010C000C0101C3
:10167000010E2C192EE12D512CE10101222B2251BA
:10168000630801E2226B280EE66E310EE66E0A0E4A
:10169000E66E010EE66E35EC07F0E552E552E552D6
:1016A000E55222C110F0116A126A136A22C1E6FFE4
:1016B00011C0E6FF12C0E6FF13C0E6FF0A0EE66E99
:1016C000010EE66E0EEC06F0146E060EE15E14508E
:1016D000010C000C0101010E2A192FE12B512DE103
:1016E000010122072251000802E3630E226F280E37
:1016F000E66E310EE66E0A0EE66E010EE66E35EC13
:1017000007F0E552E552E552E55222C110F0116AA8
:10171000126A136A22C1E6FF11C0E6FF12C0E6FF9B
:1017200013C0E6FF0A0EE66E010EE66E0EEC06F042
:10173000146E060EE15E1450010C000CD9CFE6FFCA
:10174000E1CFD9FF020EE126DE6ADD6A01011D51FB
:10175000030A0BE0010A18E10101010E281914E146
:10176000295112E122C124F108D00101010E2819EA
:101770000BE1295109E122C125F10101245125255F
:10178000236F010EDE6EDD6AD9CFE9FFDACFEAFF03
:10179000010EEE1804E1ED5002E1010E01D0000E41
:1017A000106E020EE15C02E2E16AE552E16E105059
:1017B000E552E7CFD9FF1200010EE66EE66AE66E4B
:1017C000A7DDE552E552E552020EE66EE66A010E2D
:1017D000E66E9EDDE552E552E5521BC1E6FF010EC5
:1017E000E66E65DDE552E5521BC1E6FF020EE66ED0
:1017F0005EDDE552E5521BC1E6FF040EE66E57DDE5
:10180000E552E5521BC1E6FF080EE66E50DDE552DB
:10181000E552120061D8E9EF0CF067DD01012151BA
:1018200011E1010EE66EE66A020EE66E71DDE5522A
:10183000E552E552020EE66EE66AE66E69DDE552B5
:10184000E552E55201012151106E116A0A0E10187D
:101850000EE111500CE1040EE66EE66A21DCE55261
:10186000E552070EE66EE66A1BDCE552E552FFDE46
:1018700031DF9EEF0BF039DD0101215112E1010E44
:10188000E66EE66A030EE66E43DDE552E552E5528A
:10189000020EE66EE66A030EE66E3ADDE552E552AA
:1018A000E55201012151106E116A0A0E101810E163
:1018B00011500EE1050EE66EE66A50EC08F0E552B6
:1018C000E552080EE66EE66A50EC08F0E552E55285
:1018D000CEDE00DF9EEF0BF0D9CFE6FFE1CFD9FFE0
:1018E000020EE1260A0E106E0E6E26C109F096EC6D
:1018F00019F00550DF6E0A0E106E0E6E26C109F04B
:1019000096EC19F0010E09C0DBFFDB50EA6A130FF9
:10191000E96E010EEA22EF50E66E010EE66EC7DCBC
:10192000E552E552DF50EA6A130FE96E010EEA2232
:10193000EF50E66E020EE66EBADCE552E5520101AA
:101940001E51020A29E0010A14E0020A38E1010EE0
:10195000E66EE66AE66EDCDCE552E552E552010130
:1019600021512DE1260726512AE125C126F1030E3A
:1019700025D0010EE66EE66A030EE66EC9DCE5527E
:10198000E552E552010121511AE12607265117E1DE
:1019900024C126F1020E12D0010EE66EE66A020E96
:1019A000E66EB6DCE552E552E5520101215107E150
:1019B0002607265104E123C126F1010E1E6F020EF7
:1019C000E15C02E2E16AE552E16EE552E7CFD9FF60
:1019D0001200D9CFE6FFE1CFD9FF020EE1260A0EB1
:1019E000106E0E6E27C109F096EC19F00550DF6EEF
:1019F0000A0E106E0E6E27C109F096EC19F0010E5A
:101A000009C0DBFFDB50EA6A130FE96E010EEA2220
:101A1000EF50E66E040EE66E4ADCE552E552DF500A
:101A2000EA6A130FE96E010EEA22EF50E66E080E25
:101A3000E66E3DDCE552E55201011F51030A29E043
:101A4000010A15E0030A38E1020EE66EE66A010EAD
:101A5000E66E5EDCE552E552E552010121512CE1D2
:101A60002707275129E125C127F1030E24D0020EB3
:101A7000E66EE66AE66E4CDCE552E552E55201019F
:101A800021511AE12707275117E123C127F1010E40
:101A900012D0020EE66EE66A030EE66E39DCE552FF
:101AA000E552E5520101215107E12707275104E1E1
:101AB00024C127F1020E1F6F020EE15C02E2E16A0F
:0C1AC000E552E16EE552E7CFD9FF1200BD
:041ACC000F0E946EF7
:101AD00082681200070E9410946EDF0E9414946EB8
:101AE00082681200D9CFE6FFE1CFD9FF040EE126CC
:101AF000DE6ADD6ADECF10F0DDCF11F0D890115034
:101B000004E6040E105C000E115801E390D0DECF05
:101B1000E9FFDDCFEAFF480EE926010EEA22EF1CBD
:101B2000826E020EDB6A030EDB6A020EDBCF10F060
:101B3000030EDBCF11F0D890115004E6040E105CB8
:101B4000000E11586EE2020EDBCFE9FF030EDBCF71
:101B5000EAFF4C0EE926010EEA22EF5082143FE123
:101B6000DECF14F0DDCF15F0D89014361536D890AE
:101B700014361536020EDB501424E96E030EDB50CA
:101B80001520EA6ED890E936EA36280EE926010ECD
:101B9000EA22EECF12F0EFCF13F0010E1226000E64
:101BA0001322DECF10F0DDCF11F0D89010361136B1
:101BB000D89010361136020EDB501024E96E030E59
:101BC000DB501120EA6ED890E936EA36280EE92675
:101BD000010EEA2212C0EEFF13C0EDFF1BD0DECFD4
:101BE00010F0DDCF11F0D89010361136D8901036A5
:101BF0001136020EDB501024E96E030EDB5011206B
:101C0000EA6ED890E936EA36280EE926010EEA2275
:101C1000EE6AED6A020EDB2A030E01E286D7DB2AAA
:101C200084D7DF2A010E01E265D7DB2A63D7040ED1
:101C3000E15C02E2E16AE552E16EE552E7CFD9FFED
:101C40001200D9CFE6FFE1CFD9FF040EE126DE6A0C
:101C5000DD6ADECF10F0DDCF11F0D890115004E630
:101C6000020E105C000E115801E391D0DECFE9FFA7
:101C7000DDCFEAFF480EE926010EEA22EF1C8214AE
:101C8000826E020EDB6A030EDB6A020EDBCF10F0FF
:101C9000030EDBCF11F0D890115004E6040E105C57
:101CA000000E11586EE2020EDBCFE9FF030EDBCF10
:101CB000EAFF4C0EE926010EEA22EF5082143FE1C2
:101CC000DECF14F0DDCF15F0D89014361536D8904D
:101CD00014361536020EDB501424E96E030EDB5069
:101CE0001520EA6ED890E936EA36280EE926010E6C
:101CF000EA22EECF12F0EFCF13F0010E1226000E03
:101D00001322DECF10F0DDCF11F0D890103611364F
:101D1000D89010361136020EDB501024E96E030EF7
:101D2000DB501120EA6ED890E936EA36280EE92613
:101D3000010EEA2212C0EEFF13C0EDFF1BD0DECF72
:101D400010F0DDCF11F0D89010361136D890103643
:101D50001136020EDB501024E96E030EDB50112009
:101D6000EA6ED890E936EA36280EE926010EEA2214
:101D7000EE6AED6A020EDB2A030E01E286D7DB2A49
:101D800084D7DF2A010E01E264D7DB2A62D7040E72
:101D9000E15C02E2E16AE552E16EE552E7CFD9FF8C
:101DA0001200D9CFE6FFE1CFD9FF040EE126DE6AAB
:101DB000DD6A020EDB6A030EDB6A0101481D821434
:101DC000826E020EDB6A030EDB6A020EDBCF10F0BE
:101DD000030EDBCF11F0D890115004E6040E105C16
:101DE000000E11586EE2020EDBCFE9FF030EDBCFCF
:101DF000EAFF4C0EE926010EEA22EF5082143FE181
:101E0000DECF14F0DDCF15F0D89014361536D8900B
:101E100014361536020EDB501424E96E030EDB5027
:101E20001520EA6ED890E936EA36280EE926010E2A
:101E3000EA22EECF12F0EFCF13F0010E1226000EC1
:101E40001322DECF10F0DDCF11F0D890103611360E
:101E5000D89010361136020EDB501024E96E030EB6
:101E6000DB501120EA6ED890E936EA36280EE926D2
:101E7000010EEA2212C0EEFF13C0EDFF1BD0DECF31
:101E800010F0DDCF11F0D89010361136D890103602
:101E90001136020EDB501024E96E030EDB501120C8
:101EA000EA6ED890E936EA36280EE926010EEA22D3
:101EB000EE6AED6A020EDB2A030E01E286D7DB2A08
:101EC00084D7040EE15C02E2E16AE552E16EE5527C
:101ED000E7CFD9FF1200D9CFE6FFE1CFD9FF040E3B
:101EE000E126DE6ADD6A020EDB6A030EDB6A010EA2
:101EF000DE6EDD6ADECFE9FFDDCFEAFF480EE926C0
:101F0000010EEA22EF1C8214826E020EDB6A030EBF
:101F1000DB6A020EDBCF10F0030EDBCF11F0D8909E
:101F2000115004E6030E105C000E11586EE2020E12
:101F3000DBCFE9FF030EDBCFEAFF4C0EE926010EF3
:101F4000EA22EF5082143FE1DECF14F0DDCF15F02E
:101F5000D89014361536D89014361536020EDB504C
:101F60001424E96E030EDB501520EA6ED890E93692
:101F7000EA36280EE926010EEA22EECF12F0EFCF64
:101F800013F0010E1226000E1322DECF10F0DDCF6B
:101F900011F0D89010361136D89010361136020E46
:101FA000DB501024E96E030EDB501120EA6ED8904E
:101FB000E936EA36280EE926010EEA2212C0EEFFC3
:101FC00013C0EDFF1BD0DECF10F0DDCF11F0D890A5
:101FD00010361136D89010361136020EDB50102410
:101FE000E96E030EDB501120EA6ED890E936EA362E
:101FF000280EE926010EEA22EE6AED6A020EDB2ABD
:10200000030E01E286D7DB2A84D7040EE15C02E2EC
:10201000E16AE552E16EE552E7CFD9FF1200D9CF70
:10202000E6FFE1CFD9FF040EE126DE6ADD6ADECFEE
:1020300010F0DDCF11F0FD0EDBCF12F0FE0EDBCF86
:1020400013F011501318E8AE02D0133404D012501C
:10205000105C135011581DE2020EDB6A030EDB6A9E
:10206000020EDBCF10F0030EDBCF11F0D890115031
:1020700004E6EE0E105C000E115806E2020EDB2A9A
:10208000030EEEE3DB2AECD7DF2A010ED0E3DB2AD6
:10209000CED7040EE15C02E2E16AE552E16EE55260
:1020A000E7CFD9FF1200D9CFE6FFE1CFD9FF040E69
:1020B000E126DE6ADD6ADECF10F0DDCF11F0D890C8
:1020C000115004E6040E105C000E115875E2DECFCC
:1020D000E9FFDDCFEAFF480EE926010EEA22EF1CF8
:1020E000826E020EDB6A030EDB6A020EDBCF10F09B
:1020F000030EDBCF11F0D890115004E6040E105CF3
:10210000000E11584AE2DECF10F0DDCF11F0D8906A
:1021100010361136D89010361136020EDB501024CE
:10212000E96E030EDB501120EA6ED890E936EA36EC
:10213000280EE926010EEA22EE6AED6A020EDBCFD6
:10214000E9FF030EDBCFEAFF4C0EE926010EEA227F
:10215000EF5082141CE1DECF10F0DDCF11F0D890EB
:1021600010361136D89010361136020EDB5010247E
:10217000E96E030EDB501120EA6ED890E936EA369C
:10218000280EE926010EEA22010EEE6EED6A020E1D
:10219000DB2A030EAAE3DB2AA8D78250816EE80E61
:1021A000E66E030EE66E3BDFE552E552DF2A010ED6
:1021B00001E281D7DB2A7FD7040EE15C02E2E16A0B
:1021C000E552E16EE552E7CFD9FF1200D9CFE6FF25
:1021D000040EE12684B005D00101282B000E29232E
:1021E00003D00101286B296B84B204D02A2B000E86
:1021F0002B2302D02A6B2B6B84B404D02C2B000E23
:102200002D2302D02C6B2D6B82B004D02E2B000E10
:102210002F2302D02E6B2F6B82B204D0302B000EF6
:10222000312302D0306B316B82B404D0322B000EDC
:10223000332302D0326B336B82BA04D0342B000EBE
:10224000352302D0346B356B81B004D0362B000EB1
:10225000372302D0366B376B040EE15C02E2E16A91
:10226000E552E16EE552E7CFD9FF1200070E961056
:10227000966E270E9410946E010E9310936E1200BA
:10228000D9CFE6FFE1CFD9FFD59EFD0EDBCF50F1D0
:10229000FE0EDBCF51F1D59C13681468156A50C14E
:1022A00016F051C117F0186A1650135C106E1750D3
:1022B0001458116E18501558126E0C6A010E0D6EDE
:1022C0000E6A10C007F011C008F012C009F0D0EC7F
:1022D00017F00350D66E13681468156A50C116F0D3
:1022E00051C117F0186A1650135C106E175014582D
:1022F000116E18501558126E0C6A010E0D6E0E6A92
:1023000010C007F011C008F012C009F0D0EC17F0AF
:1023100007C010F008C011F009C012F00750D76EC6
:10232000D59AD586F28AF294F184D58EE552E7CF1C
:10233000D9FF1200D59E120013681468156A50C1A7
:1023400016F051C117F0186A1650135C106E175032
:102350001458116E18501558126E0C6A010E0D6E3D
:102360000E6A10C007F011C008F012C009F0D0ECDE
:1023700017F00350D66E13681468156A50C116F032
:1023800051C117F0186A1650135C106E175014588C
:10239000116E18501558126E0C6A010E0D6E0E6AF1
:1023A00010C007F011C008F012C009F0D0EC17F00F
:1023B00007C010F008C011F009C012F00750D76E26
:1023C000D58E1200D9CFE6FFE1CFD9FFCD90FD0E1B
:1023D000DBCF52F1FE0EDBCF53F113681468156AA0
:1023E00052C116F053C117F0186A1650135C106EE4
:1023F00017501458116E18501558126E0C6A010EB1
:102400000D6E0E6A10C007F011C008F012C009F07E
:10241000D0EC17F00750CF6E13681468156A52C1DC
:1024200016F053C117F0186A1650135C106E17504F
:102430001458116E18501558126E0C6A010E0D6E5C
:102440000E6A10C007F011C008F012C009F0D0ECFD
:1024500017F003C010F004C011F005C012F00350D3
:10246000CE6E9D809E909F90CD8ECD8CCD98CD9A36
:10247000CD96CD92CD80E552E7CFD9FF12001368FB
:102480001468156A52C116F053C117F0186A165035
:10249000135C106E17501458116E18501558126EA8
:1024A0000C6A010E0D6E0E6A10C007F011C008F024
:1024B00012C009F0D0EC17F00750CF6E1368146803
:1024C000156A52C116F053C117F0186A1650135C02
:1024D000106E17501458116E18501558126E0C6A61
:1024E000010E0D6E0E6A10C007F011C008F012C088
:1024F00009F0D0EC17F003C010F004C011F005C0D3
:1025000012F00350CE6ECD801200CD901200D9CFC4
:10251000E6FFE1CFD9FFCA94CC6AFE0EDB50010181
:10252000546F556BCB6E9D829E929F92CA90CA92B9
:10253000CA84E552E7CFD9FF120054C1CBFFCA8449
:102540001200CA941200D9CFE6FFE1CFD9FFB190B3
:10255000FD0EDBCF56F1FE0EDBCF57F1136814688A
:10256000156A56C116F057C117F0186A1650135C59
:10257000106E17501458116E18501558126E0C6AC0
:10258000010E0D6E0E6A10C007F011C008F012C0E7
:1025900009F0D0EC17F00750B36E13681468156A91
:1025A00056C116F057C117F0186A1650135C106E1A
:1025B00017501458116E18501558126E0C6A010EEF
:1025C0000D6E0E6A10C007F011C008F012C009F0BD
:1025D000D0EC17F003C010F004C011F005C012F0E9
:1025E0000350B26EA082A192A292B18EB198B19A1C
:1025F000B192B180E552E7CFD9FF12001368146899
:10260000156A56C116F057C117F0186A1650135CB8
:10261000106E17501458116E18501558126E0C6A1F
:10262000010E0D6E0E6A10C007F011C008F012C046
:1026300009F0D0EC17F00350B26E13681468156AF5
:1026400056C116F057C117F0186A1650135C106E79
:1026500017501458116E18501558126E0C6A010E4E
:102660000D6E0E6A10C007F011C008F012C009F01C
:10267000D0EC17F007C010F008C011F009C012F03C
:102680000750B36EB1801200B19012000101602BAF
:10269000000E61236851605D6951615904E3606B0C
:1026A000616B010E586F12000101622B000E632353
:1026B0006A51625D6B51635904E3626B636B010E97
:1026C000596F12000101642B000E65236C51645D8B
:1026D0006D51655904E3646B656B010E5A6F12000E
:1026E0000101662B000E67236E51665D6F516759BD
:1026F00004E3666B676B010E5B6F1200D9CFE6FFD8
:10270000E1CFD9FFFD0EDBCF68F1FE0EDBCF69F123
:102710000101606B616B586BE552E7CFD9FF120086
:10272000D9CFE6FFE1CFD9FFFD0EDBCF6AF1FE0E78
:10273000DBCF6BF1050E0D6E0E6A6AC108F06BC13E
:1027400009F0AAEC17F008C06AF109C06BF10101A9
:10275000626B636B596BE552E7CFD9FF1200D9CF9B
:10276000E6FFE1CFD9FFFD0EDBCF6EF1FE0EDBCF32
:102770006FF10A0E0D6E0E6A6EC108F06FC109F09E
:10278000AAEC17F008C06EF109C06FF10101666B89
:0C279000676B5B6BE552E7CFD9FF1200CE
:04279C00D9CFE6FFAC
:1027A000E1CFD9FF020EE126FE0EDB500F0BDF6EEC
:1027B000FE0EDB380F0B0A0D010EF3CFDBFFDB50F3
:1027C000DF24106E020EE15C02E2E16AE552E16E86
:1027D0001050E552E7CFD9FF1200D9CFE6FFE1CF85
:1027E000D9FF020EE1260A0E106E0E6EFE0EDBCF32
:1027F00009F096EC19F00550DF6E0A0E106E0E6EA1
:10280000FE0EDBCF09F096EC19F00950100D010E09
:10281000F3CFDBFFDB50DF24106E020EE15C02E23F
:10282000E16AE552E16E1050E552E7CFD9FF1200A0
:1028300094869488C79EC79CC690C692C694C68646
:10284000310EC86EC68A1200D9CFE6FFE1CFD9FF9C
:102850009E96FE0EDB50D00FC96E9EA6FED7E552A7
:10286000E7CFD9FF1200D9CFE6FFE1CFD9FF9E967F
:10287000FE0EDB50A00FC96E9EA6FED7E552E7CF35
:10288000D9FF12009E96C5809EA6FED712009E9686
:10289000C5849EA6FED71200D9CFE6FFE1CFD9FFAF
:1028A0009E96FE0EDB50C96E9EA6FED7E552E7CF80
:1028B000D9FF12009E96C5869EA6FED7C95012006B
:1028C0009E96C59AC5889EA6FED712009E96C58A7A
:1028D000C5889EA6FED71200D9CFE6FFE1CFD9FF6B
:1028E000D1DFE66AB1DFE5520101010E916FE850D8
:1028F00004E0C550400BFAE0F8D7FE0EDBCFE6FF50
:10290000CBDFE5520101010E916FE85004E0C550A4
:10291000400BFAE0F8D7FD0EDBCFE6FF5EDFE552B5
:10292000E66EBADFE5520101010E916FE85004E056
:10293000C550400BFAE0F8D7AADFE552E7CFD9FF40
:102940001200D9CFE6FFE1CFD9FF9CDFE66A8BDF2B
:10295000E5520101010E916FE85004E0C550400BB3
:10296000FAE0F8D7FE0EDBCFE6FF96DFE552010175
:10297000010E916FE85004E0C550400BFAE0F8D723
:10298000FD0EDBCF10F0FE0EDBCF11F00001116A5F
:102990001050E66E81DFE5520101010E916FE850A3
:1029A00004E0C550400BFAE0F8D7FC0EDBCFE6FFA1
:1029B00073DFE5520101010E916FE85004E0C5504C
:1029C000400BFAE0F8D763DFE552E7CFD9FF1200FA
:1029D000D9CFE6FFE1CFD9FFE65254DFE66A34DF14
:1029E000E5520101010E916FE85004E0C550400B23
:1029F000FAE0F8D7FE0EDBCFE6FF4EDFE55201012D
:102A0000010E916FE85004E0C550400BFAE0F8D792
:102A100039DF010EE66E18DFE5520101010E916FFC
:102A2000E85004E0C550400BFAE0F8D743DFDF6E12
:102A3000DFCFE6FFB3DEE552DF6EDF50E552E55251
:102A4000E7CFD9FF1200D9CFE6FFE1CFD9FFE65299
:102A500019DFE66A08DFE5520101010E916FE850C7
:102A600004E0C550400BFAE0F8D7FE0EDBCFE6FFDE
:102A700013DFE5520101010E916FE85004E0C550EB
:102A8000400BFAE0F8D7FD0EDBCF10F0FE0EDBCFE7
:102A900011F00001116A1050E66EFEDEE5520101F0
:102AA000010E916FE85004E0C550400BFAE0F8D7F2
:102AB000E9DE010EE66ED7DEE5520101010E916FEF
:102AC000E85004E0C550400BFAE0F8D7F3DEDF6EC3
:0C2AD000DF50E552E552E7CFD9FF1200BD
:042ADC00F28ED08E18
:102AE000F28C1200F19CF292F2881200D8CFE4FF2F
:102AF000E0CFE4FFE46EDACFE4FFE2CFDAFFE9CF24
:102B0000E4FFEACFE4FFF6CFE4FFF7CFE4FFF5CF31
:102B1000E4FFF3CFE4FFF4CFE4FFFACFE4FF00EEED
:102B200000F0100EE80403E3EECFE4FFFBD700EE65
:102B300010F00A0EE80403E3EECFE4FFFBD7E65201
:102B4000F2A407D09AEC11F0F2949CEC11F046EC50
:102B500013F09EA007D085EC12F09E903FEC12F08F
:102B600054EC13F09EA207D0A1EC12F09E929DECC3
:102B700012F062EC13F0A1A207D044EC13F0A19282
:102B8000FEEC12F070EC13F0F2B2F2929EAA03D0B7
:102B90009E9A0FEC17F0E55200EE19F00A0EE804C9
:102BA00003E3E5CFEDFFFBD700EE0FF0100EE804D6
:102BB00003E3E5CFEDFFFBD7E5CFFAFFE5CFF4FF69
:102BC000E5CFF3FFE5CFF5FFE5CFF7FFE5CFF6FF64
:102BD000E5CFEAFFE5CFE9FFE5CFDAFFE550E5CF46
:102BE000E0FFE5CFD8FF1000DACFE4FFE2CFDAFF55
:102BF000E9CFE4FFEACFE4FFF6CFE4FFF7CFE4FF4D
:102C0000F5CFE4FFF3CFE4FFF4CFE4FFFACFE4FF26
:102C100000EE00F0100EE80403E3EECFE4FFFBD774
:102C200000EE10F00A0EE80403E3EECFE4FFFBD75A
:102C3000E652F2A407D09AEC11F0F2949CEC11F059
:102C400046EC13F09EA007D085EC12F09E903FEC6E
:102C500012F054EC13F09EA207D0A1EC12F09E9259
:102C60009DEC12F062EC13F0A1A207D044EC13F03B
:102C7000A192FEEC12F070EC13F0F2B2F2929EAA66
:102C800003D09E9A0FEC17F0E55200EE19F00A0EF1
:102C9000E80403E3E5CFEDFFFBD700EE0FF0100EE5
:102CA000E80403E3E5CFEDFFFBD7E5CFFAFFE5CF7F
:102CB000F4FFE5CFF3FFE5CFF5FFE5CFF7FFE5CF75
:102CC000F6FFE5CFEAFFE5CFE9FFE5CFDAFF110038
:102CD000B06A810EAF6EAC8AAC94B886AC98AB8EFD
:102CE000AB889E9A9D8A9F9A949C948E1200D9CF0D
:102CF000E6FFE1CFD9FF040EE126DE6ADD6ADECF12
:102D000010F0DDCF11F0FD0EDBCF12F0FE0EDBCFA9
:102D100013F011501318E8AE02D0133404D012503F
:102D2000105C135011581DE2020EDB6A030EDB6AC1
:102D3000020EDBCF10F0030EDBCF11F0D890115054
:102D400004E6EE0E105C000E115806E2020EDB2ABD
:102D5000030EEEE3DB2AECD7DF2A010ED0E3DB2AF9
:102D6000CED7040EE15C02E2E16AE552E16EE55283
:102D7000E7CFD9FF1200D9CFE6FFE1CFD9FF9EA858
:102D8000FED7FE0EDB50AD6E9E98E552E7CFD9FF21
:102D90001200D9CFE6FFE1CFD9FFFD0EDBCFE9FF6F
:102DA000FE0EDBCFEAFFEF5010E0FD0EDBCFE9FFB8
:102DB000FE0EDBCFEAFFEF50E66EDDDFE552FD0EE3
:102DC000DB2AFE0EEAE3DB2AE8D7E552E7CFD9FF9C
:102DD0001200D9CFE6FFE1CFD9FFFD0EDBCFF6FF22
:102DE000FE0EDBCFF7FF0800F55015E0FD0EDBCF40
:102DF000F6FFFE0EDBCFF7FF0800F550E66EBBDFF7
:102E0000E552FD0EDBCFF6FFDB2AFE0EDBCFF7FF30
:102E1000E4E3DB2AE2D7E552E7CFD9FF120011EF56
:022E200017F0A9
:0E2E2200D9CFE6FFE1CFD9FFE652AE50DF6E0A
:102E3000DFCFE6FFBBEC16F0E55201017251050A47
:102E40002AE0010A21E0070A11E0010A0AE0020A69
:102E500002E0010A2AE1FF0EDF5C28E1756B020E39
:102E600022D0FF0EDF5C15E1030E1DD07551EA6A1A
:102E7000810FE96E000EEA22DFCFEFFF752B77514D
:102E8000755D14E3040E0FD0FE0EDF5C02E1050E4B
:102E90000AD0010E08D0FE0EDF5C04E1010E736F54
:102EA000726B04D0010E726F01D0726BE552E55265
:102EB000E7CFD9FF12001200010173054AE1890E24
:102EC000E66E310EE66EE66AE66A35EC07F0E5522C
:102ED000E552E552E5520001806B01017751000196
:102EE000805D21E28051EA6A810FE96E000EEA22DC
:102EF000EFCF10F0116A126A136A10C0E6FF11C01A
:102F0000E6FF12C0E6FF13C0E6FF030E8003F35096
:102F1000E66EE66A0EEC06F0146E060EE15E1450E4
:102F20000001802BDAD772C110F0116A126A136A9D
:102F300072C1E6FF11C0E6FF12C0E6FF13C0E6FF54
:102F40000F0EE66EE66A0EEC06F0146E060EE15EFB
:042F50001450120007
:0C2F5400006A0EAEB3EF17F00D6C0E1EFD
:102F6000E86A0E22001E09AEBBEF17F0086C091EBE
:102F7000E86A0922001E62EC19F009BECBEF17F0D7
:102F800000AE000C086C091EE86A0922046C051EDC
:102F9000E86A0522000C00BEC2EF17F00188FF0CA2
:102FA000006A0EAEDBEF17F00C6C0D1E0E1EE86A09
:102FB0000D220E22001E09AEE5EF17F0076C081E69
:102FC000091EE86A08220922001E29EC19F009BE30
:102FD000F8EF17F000AE000C076C081E091EE86A37
:102FE00008220922036C041E051E04220522000C7F
:0A2FF00000BEECEF17F00188FF0CA3
:062FFA001E0EF66E000E33
:10300000F76E000EF86E01010900F550886F090097
:10301000F550896F03E1886701D03DD00900F55074
:10302000836F0900F550846F0900F550856F090022
:103030000900F550E96E0900F550EA6E0900090033
:103040000900F550866F0900F550876F09000900E7
:10305000F6CF8AF1F7CF8BF1F8CF8CF183C1F6FF71
:1030600084C1F7FF85C1F8FF0101865302E1875350
:1030700007E00900F550EE6E8607F8E28707F9D7FA
:103080008AC1F6FF8BC1F7FF8CC1F8FF01018807E9
:08309000000E895BBFD712009E
:08309800010E926E0E0EC16ED6
:1030A000C26A040EC06EC2801200D9CFE6FFE1CF23
:1030B000D9FF020EE126DE6ADD6AC282C2B2FED705
:1030C000C450DE6EDD6ADECF12F0DDCF13F0D89093
:1030D00012361336D89012361336060EC3CFE7FFDA
:1030E000070B04E0E742E79EE806FCE1E750122404
:1030F000106E000E132010C0DEFFDD6EDECF61FF0C
:10310000DDCF62FFDECF10F0DDCF11F010C0F3FF96
:1031100011C0F4FF020EE15C02E2E16AE552E16EE9
:08312000E552E7CFD9FF1200D0
:08312800202000202020475266
:1031300045454E5F4D4F444520202000202020591A
:10314000454C4C4F575F4D4F4445202000473A00B7
:10315000593A00523A002020202020202020202010
:103160002020202020200020202020204E4F524DC3
:10317000414C20202020200020202053544F505F1D
:103180004D4F4445202020200020202020202020BA
:0A3190002020202020202020200015
:06319A0006500B02F3CF0A
:1031A00002F0F4CF03F00C02F3500326000EF420DB
:1031B000046E06500D02F3500426000EF420056E36
:1031C00006500E02F350052607500B02F35003265B
:1031D000F4500422000E052207500C02F35004267E
:1031E000F450052207500D02F350052608500B023B
:1031F000F3500426F450052208500C02F350052623
:0A32000009500B02F35005261200DE
:06320A00056A046A036A74
:10321000026A200EE76ED890063607360836093661
:1032200002360336043605360B50025C0C50035848
:103230000D5004580E50055809E30B50025E0C5017
:10324000035A0D50045A0E50055A062AE72EE4D7A9
:0232500012006A
:0E325200056A046A036A180EE76ED890073604
:10326000083609360336043605360C50035C0D501B
:1032700004580E50055807E30C50035E0D50045AD5
:0C3280000E50055A072AE72EEAD712006C
:04328C00CA94CA9086
:10329000CA829B0ECB6EBD98BD9ABE6ABD9CBD9E78
:1032A000BD90BD92BD84BD869494CA841200D9CFCE
:1032B000E6FFE1CFD9FFFE0EDB50BE6EE552E7CF51
:0432C000D9FF120020
:0C32C400056A046A100EE76ED890083608
:1032D0000936043605360D50045C0E50055805E3DA
:1032E0000D50045E0E50055A082AE72EF0D7120042
:1032F000800EF36E00EE00F00F0E01D81200EA60AF
:1033000002D0EE6AFCD7F350E9601200EE6AFCD7F7
:103310001EEE00F02EEE00F0F86A019CFDEC17F0B6
:0C33200003EC00F060EC07F0FBD712009B
:04332C00056A080E18
:10333000E76ED890093605360E50055C02E3056E3F
:08334000092AE72EF7D712005D
:0833480000000000000000007D
:10335000000000000000000000000000000000006D
:08336000010001000100010061
:08336800000000000000000558
:0B33700005000000000000000000004D
:05337B0001020408102E
:103380002040800100000000000000000000C0F9A3
:10339000A4B0999282F88090000103010000050218
:0333A0000305031F
:0D33A30000000000000000001010101010CD
:1033B00010101018181818181818181C1C1C1C1C91
:1033C0001C1C1C1E1E1E1E1E1E1E1E1F1F1F1F1F1E
:1033D0001F1F1F0000000000000000000000000090
:1033E00000000000000000000000000000000000DD
:1033F00000000000000000000000000000000000CD
:0434000000000000C8
:0C340400000000D0002222220725091041
:0F341000000100000000000000000000000000AC
:01341F0000AC
:10342000000000000000000000000000000000009C
:10343000000000000000000000000000000000107C
:073440002040800102040896
:020000040030CA
:0100010002FC
:0100020003FA
:010003001EDE
:010005008179
:010006008178
:010008000FE8
:01000900C036
:01000A000FE6
:01000B00E014
:01000C000FE4
:01000D0040B2
:00000001FF
