:020000040000FA
:06000000E4EF17F012000E
:020006001200E6
:0600080058EF14F0120095
:02000E000000F0
:020010000000EE
:06001800DAEF13F0120004
:02001E000800D8
:10002000D23000000001000028000000B7300000BE
:10003000E50000001B0000000E0000008801000029
:100040000400000056300000000F000061000000B6
:10005000333000002801000023000000C12E000002
:100060008D01000001000000203000006B01000045
:1000700013000000003000004B01000020000000D1
:10008000D9CFE6FFE1CFD9FF040EE126DE6ADD6AB3
:10009000DECF10F0DDCF11F0126A136A11AE02D07C
:1000A00012681368D950FB0FE96EFF0EDA20EA6E72
:1000B000EE50105CEE501158EE501258EE5013589E
:1000C0001DE2020EDB6A030EDB6A020EDBCF10F0CC
:1000D000030EDBCF11F0D890115004E6050E105C32
:1000E000000E115806E2020EDB2A030EEEE3DB2AB5
:1000F000ECD7DF2A010ECCE3DB2ACAD7040EE15C81
:1001000002E2E16AE552E16EE552E7CFD9FF120063
:10011000D9CFE6FFE1CFD9FF040EE126DE6ADD6A22
:10012000DECF10F0DDCF11F0126A136A11AE02D0EB
:1001300012681368D950FB0FE96EFF0EDA20EA6EE1
:10014000EE50105CEE501158EE501258EE5013580D
:100150001DE2020EDB6A030EDB6A020EDBCF10F03B
:10016000030EDBCF11F0D890115004E6EE0E105CB8
:10017000000E115806E2020EDB2A030EEEE3DB2A24
:10018000ECD7DF2A010ECCE3DB2ACAD7040EE15CF0
:1001900002E2E16AE552E16EE552E7CFD9FF1200D3
:1001A000D9CFE6FFE1CFD9FF0F0E8116FE0EDB504F
:1001B000F00B81128186010EE66EE66AE66AE66A57
:1001C000A7DFE552E552E552E5528196010EE66E53
:1001D000E66AE66AE66A9CDFE552E552E552E552D8
:1001E0000F0E8116FE0EDB38F00B81128186010E98
:1001F000E66EE66AE66AE66A8BDFE552E552E552AC
:10020000E5528196010EE66EE66AE66AE66A80DFEE
:10021000E552E552E552E552E552E7CFD9FF12002B
:10022000D9CFE6FFE1CFD9FFE652936A190EE66E09
:10023000E66AE66AE66A6CDFE552E552E552E552A7
:100240000F0E8116F80E81160F0E8116300E8112D8
:100250008186010EE66EE66AE66AE66A59DFE552D5
:10026000E552E552E5528196010EE66EE66AE66ACF
:10027000E66A4EDFE552E552E552E5520F0E811671
:10028000300E81128186010EE66EE66AE66AE66A43
:100290003FDFE552E552E552E5528196010EE66EEA
:1002A000E66AE66AE66A34DFE552E552E552E5526F
:1002B0000F0E8116300E81128186010EE66EE66AFF
:1002C000E66AE66A25DFE552E552E552E552819697
:1002D000010EE66EE66AE66AE66A1ADFE552E55264
:1002E000E552E5520F0E8116818A8186010EE66E77
:1002F000E66AE66AE66A0CDFE552E552E552E55247
:100300008196010EE66EE66AE66AE66A01DFE5526C
:10031000E552E552E552280EE66E42DFE5520C0E3C
:10032000E66E3EDFE552E552E552E7CFD9FF120017
:10033000D9CFE6FFE1CFD9FF020EE126DF6A010E39
:10034000DB6A81940F0EE66EE66AE66AE66A98DE7C
:10035000E552E552E552E5520F0E81128186E66EB6
:10036000E66AE66AE66A8CDEE552E552E552E55257
:100370000F0E8114E76E010EE7CFDBFF81960F0EA3
:10038000E66EE66AE66AE66A7BDEE552E552E5522B
:10039000E5520F0E81128186E66EE66AE66AE66A2B
:1003A0006FDEE552E552E552E5520F0E8114DF6E25
:1003B000010EDB50DF128196010EE66EE66AE66AF8
:1003C000E66A5EDEE552E552E552E552DF50106E18
:1003D000020EE15C02E2E16AE552E16E1050E55284
:1003E000E7CFD9FF1200D9CFE6FFE1CFD9FFE65220
:1003F000DF6A9EDFDF6EDFBEFCD7DF50E552E552DD
:10040000E7CFD9FF1200D9CFE6FFE1CFD9FF0F0E1A
:100410008116FE0EDB5081128186050EE66EE66ABD
:10042000E66AE66A2DDEE552E552E552E55281962E
:10043000050EE66EE66AE66AE66A22DEE552E552F7
:10044000E552E552E552E7CFD9FF1200D9CFE6FFDA
:10045000E1CFD9FF8194050EE66EE66AE66AE66AA8
:100460000FDEE552E552E552E552FE0EDBCFE6FF28
:10047000CADFE552FE0EDB38F00BE66EC4DFE55254
:10048000E552E7CFD9FF1200D9CFE6FFE1CFD9FF80
:100490008184050EE66EE66AE66AE66AF1DDE552FB
:1004A000E552E552E552FE0EDBCFE6FFACDFE5524A
:1004B000FE0EDB38F00BE66EA6DFE5528194E552C6
:1004C000E7CFD9FF1200D9CFE6FFE1CFD9FFFE0E6B
:1004D000DBCFE6FFD9DFE552E552E7CFD9FF1200C7
:1004E000D9CFE6FFE1CFD9FFFE0EDBCFE6FFCCDFB1
:1004F000E552E552E7CFD9FF1200D9CFE6FFE1CFB1
:10050000D9FFFD0EDBCFF6FFFE0EDBCFF7FF0800B5
:10051000F5500FE0FD0EDBCFF6FFDB2AFE0EDBCF42
:10052000F7FF01E3DB2A0800F550E66ED9DFE5525C
:10053000E8D7E552E7CFD9FF1200D9CFE6FFE1CFE8
:10054000D9FFE652FD0EDB500F0B106EFE0EDB5096
:10055000010B400DF3501024DF6E7F0EDF14800F6F
:10056000DF6EDFCFE6FF72DFE552E552E552E7CFFF
:10057000D9FF1200010EE66E69DFE552E66AE66A0F
:10058000DCDFE552E5521200D9CFE6FFE1CFD9FF1B
:10059000050EE126010EF36EDB6E020EDB6A030E22
:1005A000DB6A040EDB6ADF6ADFCF10F0116A10BE6F
:1005B0001168FB0EDBCF12F0FC0EDBCF13F01150F5
:1005C0001318E8AE02D0133404D01250105C13504C
:1005D00011582DE2FD0EDBCF10F0FE0EDBCF11F037
:1005E000126A136A11AE02D012681368D950010F53
:1005F000E96EDACFEAFF10C00BF011C00CF012C0A8
:100600000DF013C00EF0EECF06F0EECF07F0EECFF8
:1006100008F0EFCF09F0F8EC16F005C0EDFF04C0CC
:10062000EDFF03C0EDFF02C0EFFFDF2ABDD7010ED3
:10063000DBCF10F0020EDBCF11F0030EDBCF12F098
:10064000040EDBCF13F010C006F011C007F012C08B
:1006500008F013C009F0050EE15C02E2E16AE55220
:10066000E16EE552E7CFD9FF1200D9CFE6FFE1CF27
:10067000D9FF020EE126DF6AFB0EDBCF10F0FC0E85
:10068000DBCF11F0FD0EDBCF12F0FE0EDBCF13F04F
:10069000105011101210131005E1300EE66E20DF1D
:1006A000E552F4D0D950FB0FE96EFF0EDA20EA6E66
:1006B000D890030EEB50000A08E6000EEE5C000E28
:1006C000EE58000EEE58000EEE5815E22D0EE66EB6
:1006D00007DFE552D950FB0FE96EFF0EDA20EA6E14
:1006E000000EEE6CEF1EEE22EF1EEE22EF1EEF224A
:1006F000ED52ED52ED52DE52070EDD6E010EDBCFF4
:1007000010F0000EE76E1018E8AE02D0103403D0DF
:10071000E750D880105401E3B9D0010EDB04146E09
:10072000156A14BE156814C0E6FF15C0E6FF0A0E70
:10073000E66EE66A29DFE552E552E552E55206C06B
:1007400010F007C011F008C012F009C013F006C085
:100750000BF007C00CF008C00DF009C00EF0FB0E46
:10076000DBCF06F0FC0EDBCF07F0FD0EDBCF08F091
:10077000FE0EDBCF09F061EC17F0065007100810F1
:10078000091041E0010EDF6EDB04186E196A18BE15
:10079000196818C0E6FF19C0E6FF0A0EE66EE66AA1
:1007A000F3DEE552E552E552E55206C014F007C00B
:1007B00015F008C016F009C017F006C00BF007C00E
:1007C0000CF008C00DF009C00EF0FB0EDBCF06F0F8
:1007D000FC0EDBCF07F0FD0EDBCF08F0FE0EDBCF0B
:1007E00009F061EC17F006C010F007C011F008C066
:1007F00012F009C013F0300E1026000E1122122242
:100800001322105003D0DF5004E0300EE66E68DE95
:10081000E552010EDB04146E156A14BE156814C08F
:10082000E6FF15C0E6FF0A0EE66EE66AADDEE552AB
:10083000E552E552E55206C010F007C011F008C0BD
:1008400012F009C013F0D950FB0FE96EFF0EDA2049
:10085000EA6E06C00BF007C00CF008C00DF009C02E
:100860000EF0EECF06F0EECF07F0EECF08F0EFCFB0
:1008700009F061EC17F005C0EDFF04C0EDFF03C007
:10088000EDFF02C0EFFF010EDB0638D7020EE15C80
:1008900002E2E16AE552E16EE552E7CFD9FF1200CC
:1008A000D9CFE6FFE1CFD9FFFD0EDBCFE6FFFE0E8D
:1008B000DBCFE6FF42DEE552E552D950F90FE96E93
:1008C000FF0EDA20EA6EEECFE6FFEECFE6FFEECFC8
:1008D000E6FFEFCFE6FFC9DEE552E552E552E5520D
:1008E000E552E7CFD9FF1200D9CFE6FFE1CFD9FF1C
:1008F000FD0EDBCFE6FFFE0EDBCFE6FF1EDEE55290
:10090000E552FB0EDBCFE6FFFC0EDBCFE6FFF5DDAD
:10091000E552E552E552E7CFD9FF1200D9CFE6FF05
:10092000E1CFD9FF7BCF10F07CCF11F0040ED8902F
:1009300010361136E806FBE1410E10260F0E11228B
:1009400010500F017D25E96E11507E21EA6EFE0EDA
:10095000DBCFEFFF7D2B000E7E23E552E7CFD9FFE3
:100960001200D9CFE6FFE1CFD9FFE652DF6ADFCF31
:1009700010F0100EE76E1018E8AE02D0E73402D087
:10098000E750105C18E2DFCFE9FFEA6AE9BEEA68E7
:10099000410EE9260F0EEA22200EEF6EDFCFE9FFAF
:1009A000EA6AE9BEEA68510EE9260F0EEA22200E35
:1009B000EF6EDF2ADCD7E552E552E7CFD9FF120010
:1009C000D9CFE6FFE1CFD9FFE6520F014051030A2C
:1009D00052E0010A36E0030A1AE0010A67E1E66A1A
:1009E000E66AABDDE552E552DF6A080EDF5C0CE239
:1009F000DF50EA6A410FE96E0F0EEA22EF50E66E11
:100A00006FDDE552DF2AF1D70F01010E32D0080E5B
:100A1000E66EE66A92DDE552E552DF6A080EDF5CBB
:100A20000DE2080EDF24EA6A410FE96E0F0EEA229A
:100A3000EF50E66E55DDE552DF2AF0D70F01020ECA
:100A400018D0E66A010EE66E78DDE552E552DF6AFF
:100A5000080EDF5C0CE2DF50EA6A510FE96E0F0E00
:100A6000EA22EF50E66E3CDDE552DF2AF1D70F01B6
:100A7000030E406F1CD0080EE66E010EE66E5DDDC3
:100A8000E552E552DF6A080EDF5C0DE2080EDF2456
:100A9000EA6A510FE96E0F0EEA22EF50E66E20DD92
:100AA000E552DF2AF0D70F01406B01D0406BE552D1
:100AB000E552E7CFD9FF1200D9CFE6FFE1CFD9FF4A
:100AC000E6520F014051010A1BE0010A32E1E66AD9
:100AD000E66A33DDE552E552DF6A100EDF5C0CE2B8
:100AE000DF50EA6A410FE96E0F0EEA22EF50E66E20
:100AF000F7DCE552DF2AF1D70F01010E406F1AD063
:100B0000E66A010EE66E19DDE552E552DF6A100E67
:100B1000DF5C0CE2DF50EA6A510FE96E0F0EEA2249
:100B2000EF50E66EDDDCE552DF2AF1D70F01406BB6
:100B300001D0406BE552E552E7CFD9FF1200D9CF83
:100B4000E6FFE1CFD9FFE652E66AE66AF6DCE55257
:100B5000E552DF6A100EDF5C0CE2DF50EA6A410FFB
:100B6000E96E0F0EEA22EF50E66EBADCE552DF2A9C
:100B7000F1D7E66A010EE66EE0DCE552E552DF6A87
:100B8000100EDF5C0CE2DF50EA6A510FE96E0F0EC7
:100B9000EA22EF50E66EA4DCE552DF2AF1D7E552F7
:100BA000E552E7CFD9FF1200D9CFE6FFE1CFD9FF59
:100BB000FE0EDB50010B0F017B6F7C6BFD0EDB50DB
:100BC0000F0B7D6F7E6BFC0EDB500A0802E1610E9D
:100BD00005D0FC0EDB500D0805E1640EF36EFC0E33
:100BE000F3CFDBFF7BCF10F07CCF11F0040ED89059
:100BF00010361136E806FBE1410E10260F0E1122C9
:100C000010500F017D25E96E11507E21EA6EFC0E19
:100C1000DBCFEFFFE552E7CFD9FF1200D9CFE6FFD8
:100C2000E1CFD9FF020EE126DF6AFE0EDB50010B99
:100C30000F017B6F7C6BFD0EDB500F0B7D6F7E6BAE
:100C4000F90EDBCF10F0FA0EDBCF11F0FB0EDBCF8D
:100C500012F0FC0EDBCF13F0105011101210131015
:100C600005E1300EE66E5ADEE552F5D0D950F90FA7
:100C7000E96EFF0EDA20EA6ED890030EEB50000A00
:100C800008E6000EEE5C000EEE58000EEE58000E68
:100C9000EE5815E22D0EE66E41DEE552D950F90F01
:100CA000E96EFF0EDA20EA6E000EEE6CEF1EEE2209
:100CB000EF1EEE22EF1EEF22ED52ED52ED52DE520C
:100CC000070EDD6E010EDBCF10F0000EE76E101880
:100CD000E8AE02D0103403D0E750D880105401E3BE
:100CE000BAD0010EDB04146E156A14BE156814C068
:100CF000E6FF15C0E6FF0A0EE66EE66A45DCE55241
:100D0000E552E552E55206C010F007C011F008C0E8
:100D100012F009C013F006C00BF007C00CF008C0B9
:100D20000DF009C00EF0F90EDBCF06F0FA0EDBCFA6
:100D300007F0FB0EDBCF08F0FC0EDBCF09F061EC17
:100D400017F0065007100810091041E0010EDF6E81
:100D5000DB04186E196A18BE196818C0E6FF19C0BE
:100D6000E6FF0A0EE66EE66A0FDCE552E552E55252
:100D7000E55206C014F007C015F008C016F009C00F
:100D800017F006C00BF007C00CF008C00DF009C04A
:100D90000EF0F90EDBCF06F0FA0EDBCF07F0FB0EFC
:100DA000DBCF08F0FC0EDBCF09F061EC17F006C0DA
:100DB00010F007C011F008C012F009C013F0300E97
:100DC0001026000E112212221322105003D0DF50E1
:100DD00004E0300EE66EA2DDE552010EDB04146E77
:100DE000156A14BE156814C0E6FF15C0E6FF0A0EAA
:100DF000E66EE66AC4EC02F0E552E552E552E552D1
:100E000006C010F007C011F008C012F009C013F0BE
:100E1000D950F90FE96EFF0EDA20EA6E06C00BF02A
:100E200007C00CF008C00DF009C00EF0EECF06F0C0
:100E3000EECF07F0EECF08F0EFCF09F061EC17F03E
:100E400005C0EDFF04C0EDFF03C0EDFF02C0EFFFE2
:100E5000010EDB0637D7020EE15C02E2E16AE552E1
:100E6000E16EE552E7CFD9FF1200D9CFE6FFE1CF1F
:100E7000D9FFFE0EDB50010B0F017B6F7C6BFD0E6B
:100E8000DB500F0B7D6F7E6BFB0EDBCFF6FFFC0E96
:100E9000DBCFF7FF0800F5500FE0FB0EDBCFF6FFCE
:100EA000DB2AFC0EDBCFF7FF01E3DB2A0800F5505D
:100EB000E66E34DDE552E8D7E552E7CFD9FF120000
:100EC000D9CFE6FFE1CFD9FF020EE126DE6ADD6A67
:100ED0006AD8E80EE66E030EE66E1BD8E552E552C0
:100EE00001015651FDE0566BD6EC0BF0A1DAE0ECB7
:100EF00004F0010EE66EE66AE66EFBD9E552E552B5
:100F0000E552020EE66EE66A030EE66EF2D9E5528F
:100F1000E5D7D9CFE6FFE1CFD9FF040EE126DE6A9F
:100F2000DD6ADECF10F0DDCF11F0FD0EDBCF12F069
:100F3000FE0EDBCF13F011501318E8AE02D01334BD
:100F400004D01250105C135011581DE2020EDB6ADF
:100F5000030EDB6A020EDBCF10F0030EDBCF11F0C5
:100F6000D890115004E6EE0E105C000E115806E207
:100F7000020EDB2A030EEEE3DB2AECD7DF2A010E9A
:100F8000D0E3DB2ACED7040EE15C02E2E16AE5524F
:100F9000E16EE552E7CFD9FF1200956A836A080E29
:100FA000966E846E1200F9DF10EC01F0CAEC0BF0C3
:100FB000D2EC13F0BAEC02F0B1EC04F0F40EE66EF1
:100FC000010EE66EA6DFE552E552570EE66E120EF2
:100FD000E66EA4EC0FF0E552E552AE0EE66E240E7E
:100FE000E66E46EC10F0E552E552660EE66EB70E80
:100FF000E66E07EC11F0E552E552020EE66EE66A87
:10100000E2EC11F0E552E5520A0EE66EE66AF4EC07
:1010100011F0E552E552320EE66EE66A13EC12F07C
:10102000E552E5521200D9CFE6FFE1CFD9FFFE0E1F
:10103000DBCF11F0800E11141BE1FD0EDBCF12F09F
:10104000FE0EDBCF13F0133404E212500708000E3B
:1010500013540EE3FD0EDBCFE9FFFE0EDBCFEAFFFC
:10106000280EE926010EEA22EF508310836E18D075
:10107000D950FD0FE96EFF0EDA20EA6E080EEE1869
:101080000FE1ED500DE1FD0EDBCFE9FFFE0EDBCFF2
:10109000EAFF280EE926010EEA22EF508410846E42
:1010A000E552E7CFD9FF1200D9CFE6FFE1CFD9FF54
:1010B000FE0EDBCF11F0800E11141BE1FD0EDBCF15
:1010C00012F0FE0EDBCF13F0133404E212500708C7
:1010D000000E13540EE3FD0EDBCFE9FFFE0EDBCF57
:1010E000EAFF280EE926010EEA22EF1C8314836E24
:1010F00018D0D950FD0FE96EFF0EDA20EA6E080E07
:10110000EE180FE1ED500DE1FD0EDBCFE9FFFE0E15
:10111000DBCFEAFF280EE926010EEA22EF1C841439
:10112000846EE552E7CFD9FF1200D9CFE6FFE1CFB9
:10113000D9FFFD0EDBCFE9FFFE0EDBCFEAFF310E5C
:10114000E926010EEA22EF0415E1FD0EDBCFE6FFF2
:10115000FE0EDBCFE6FFA8DFE552E552FD0EDBCF4A
:10116000E9FFFE0EDBCFEAFF310EE926010EEA228F
:10117000EF6A15D0FD0EDBCFE6FFFE0EDBCFE6FFFC
:1011800052DFE552E552FD0EDBCFE9FFFE0EDBCF6D
:10119000EAFF310EE926010EEA22010EEF6EE5525A
:1011A000E7CFD9FF1200D9CFE6FFE1CFD9FF020E7A
:1011B000E126DE6ADD6ADECF10F0DDCF11F0D890D7
:1011C000115004E60E0E105C000E115821E2DECF25
:1011D000E6FFDDCFE6FF27DFE552E552F40EE66ECF
:1011E000010EE66E96DEE552E552DECFE6FFDDCF7C
:1011F000E6FF5ADFE552E552F40EE66E010EE66EAA
:1012000088DEE552E552DF2A010ED5E3DB2AD3D78B
:10121000020EE15C02E2E16AE552E16EE552E7CFDF
:10122000D9FF1200D9CFE6FFE1CFD9FF020EE126A8
:10123000DE6ADD6ADE6ADD6ADECF10F0DDCF11F036
:10124000D890115004E6080E105C000E115829E2E7
:10125000FE0EDB50DF5206E0DFCFF3FFE846FE0B69
:10126000F306FCE1800B800805E1000EE66EE66AFD
:10127000DADE04D0000EE66EE66A16DFE552E552CD
:10128000010EE66EE66ACFDEE552E552010EE66E2D
:10129000E66A0ADFE552E552DF2A010ECDE3DB2ADA
:1012A000CBD7020EE15C02E2E16AE552E16EE55263
:1012B000E7CFD9FF1200D9CFE6FFE1CFD9FFFD0E6E
:1012C000DBCFE6FFAFDFE552FE0EDBCFE6FFAADFA6
:1012D000E552020EE66EE66AA6DEE552E552020E21
:1012E000E66EE66AE1DEE552E552E552E7CFD9FF68
:1012F0001200D9CFE6FFE1CFD9FFFE0EDB50030A83
:101300005DE0010A29E0030A01E08ED0D950FC0F0C
:10131000E96EFF0EDA20EA6E010EEE180AE1ED50DA
:1013200008E1030EE66EE66A7EDEE552E552040E43
:1013300025D0D950FC0FE96EFF0EDA20EA6E020EBE
:10134000EE1872E1ED5070E1060EE66EE66A6BDEB5
:10135000E552E552070E2BD0D950FC0FE96EFF0E77
:10136000DA20EA6E010EEE1810E1ED500EE1040EE7
:10137000E66EE66A58DEE552E552030EE66EE66A70
:1013800093DEE552E552050E4AD0D950FC0FE96EC6
:10139000FF0EDA20EA6E020EEE1846E1ED5044E14F
:1013A000070EE66EE66A3FDEE552E552060EE66E91
:1013B000E66A7ADEE552E552080E31D0D950FC0FCC
:1013C000E96EFF0EDA20EA6E010EEE1810E1ED5024
:1013D0000EE1050EE66EE66A26DEE552E552040EE3
:1013E000E66EE66A61DEE552E552030E18D0D9508A
:1013F000FC0FE96EFF0EDA20EA6E020EEE1814E121
:10140000ED5012E1080EE66EE66A0DDEE552E55299
:10141000070EE66EE66A48DEE552E552060EE66E17
:10142000E66A42DEE552E552E552E7CFD9FF120007
:1014300001014551030A01E1CBD0010A01E190D03D
:10144000020A01E0EFD09F0EE66E2E0EE66EE66A0F
:10145000E66A35EC07F0E552E552E552E5528E0EAC
:10146000E66E2E0EE66EE66A010EE66E35EC07F0CD
:10147000E552E552E552E5528B0EE66E2E0EE66E13
:10148000E66A010EE66E35EC07F0E552E552E552EC
:10149000E55248C110F0116A126A136A48C1E6FFAA
:1014A00011C0E6FF12C0E6FF13C0E6FF020EE66EB3
:1014B000010EE66E0EEC06F0146E060EE15E1450A0
:1014C000880EE66E2E0EE66E060EE66E010EE66ED7
:1014D00035EC07F0E552E552E552E55249C110F00E
:1014E000116A126A136A49C1E6FF11C0E6FF12C011
:1014F000E6FF13C0E6FF080EE66E010EE66E0EEC88
:1015000006F0146E060EE15E1450850EE66E2E0E89
:10151000E66E0C0EE66E010EE66E35EC07F0E55257
:10152000E552E552E5524AC110F0116A126A136A97
:101530004AC1E6FF11C0E6FF12C0E6FF13C0E6FF96
:101540000E0EE66E010EE66E0EEC06F0146E060E42
:10155000E15E145069D8000966E00101020E36D040
:10156000740EE66E2E0EE66EE66AE66A35EC07F05D
:10157000E552E552E552E5528E0EE66E2E0EE66E0F
:10158000E66A010EE66E35EC07F0E552E552E552EB
:10159000E55247C110F0116A126A136A47C1E6FFAB
:1015A00011C0E6FF12C0E6FF13C0E6FF0A0EE66EAA
:1015B000010EE66E0EEC06F0146E060EE15E14509F
:1015C000E1D832D800092FE00101030E456F120067
:1015D000630EE66E2E0EE66EE66AE66A35EC07F0FE
:1015E000E552E552E552E55247C110F0116A126A20
:1015F000136A47C1E6FF11C0E6FF12C0E6FF13C041
:10160000E6FF0A0EE66E010EE66E0EEC06F0146EB4
:10161000060EE15E1450BAD807D8000904E00101B3
:10162000456B1200456B12000101010E061903E122
:10163000075101E1010C000C0101010E04192EE11A
:1016400005512CE10101472B4751630801E2476B2B
:10165000600EE66E2E0EE66E0A0EE66E010EE66E69
:1016600035EC07F0E552E552E552E55247C110F07E
:10167000116A126A136A47C1E6FF11C0E6FF12C081
:10168000E6FF13C0E6FF0A0EE66E010EE66E0EECF4
:1016900006F0146E060EE15E1450010C000C010100
:1016A000010E02192FE103512DE1010147074751B6
:1016B000000802E3630E476F600EE66E2E0EE66EC4
:1016C0000A0EE66E010EE66E35EC07F0E552E552C5
:1016D000E552E55247C110F0116A126A136A47C118
:1016E000E6FF11C0E6FF12C0E6FF13C0E6FF0A0ED8
:1016F000E66E010EE66E0EEC06F0146E060EE15E6E
:101700001450010C000CD9CFE6FFE1CFD9FF020E37
:10171000E126DE6ADD6A01014551030A0BE0010A98
:1017200018E10101010E001914E1015112E147C154
:1017300049F108D00101010E00190BE1015109E145
:1017400047C14AF1010149514A25486F010EDE6E39
:10175000DD6AD9CFE9FFDACFEAFF010EEE1804E126
:10176000ED5002E1010E01D0000E106E020EE15CA0
:1017700002E2E16AE552E16E1050E552E7CFD9FF8F
:101780001200120059DF8BDF83EF0BF055DF87DF8C
:0417900083EF0BF0E8
:0C1794000F0E946E82681200070E941075
:1017A000946EDF0E9414946E82681200D9CFE6FF17
:1017B000E1CFD9FF040EE126DE6ADD6ADECF10F04C
:1017C000DDCF11F0D890115004E6040E105C000E2D
:1017D000115801E390D0DECFE9FFDDCFEAFF200E04
:1017E000E926010EEA22EF1C826E020EDB6A030E6E
:1017F000DB6A020EDBCF10F0030EDBCF11F0D890C6
:10180000115004E6040E105C000E11586EE2020E38
:10181000DBCFE9FF030EDBCFEAFF240EE926010E42
:10182000EA22EF5082143FE1DECF14F0DDCF15F055
:10183000D89014361536D89014361536020EDB5073
:101840001424E96E030EDB501520EA6ED890E936B9
:10185000EA36000EE926010EEA22EECF12F0EFCFB3
:1018600013F0010E1226000E1322DECF10F0DDCF92
:1018700011F0D89010361136D89010361136020E6D
:10188000DB501024E96E030EDB501120EA6ED89075
:10189000E936EA36000EE926010EEA2212C0EEFF12
:1018A00013C0EDFF1BD0DECF10F0DDCF11F0D890CC
:1018B00010361136D89010361136020EDB50102437
:1018C000E96E030EDB501120EA6ED890E936EA3655
:1018D000000EE926010EEA22EE6AED6A020EDB2A0C
:1018E000030E01E286D7DB2A84D7DF2A010E01E24C
:1018F00065D7DB2A63D7040EE15C02E2E16AE552B8
:10190000E16EE552E7CFD9FF1200D9CFE6FFE1CF74
:10191000D9FF040EE126DE6ADD6ADECF10F0DDCFEE
:1019200011F0D890115004E6020E105C000E115810
:1019300001E391D0DECFE9FFDDCFEAFF200EE926FB
:10194000010EEA22EF1C8214826E020EDB6A030E85
:10195000DB6A020EDBCF10F0030EDBCF11F0D89064
:10196000115004E6040E105C000E11586EE2020ED7
:10197000DBCFE9FF030EDBCFEAFF240EE926010EE1
:10198000EA22EF5082143FE1DECF14F0DDCF15F0F4
:10199000D89014361536D89014361536020EDB5012
:1019A0001424E96E030EDB501520EA6ED890E93658
:1019B000EA36000EE926010EEA22EECF12F0EFCF52
:1019C00013F0010E1226000E1322DECF10F0DDCF31
:1019D00011F0D89010361136D89010361136020E0C
:1019E000DB501024E96E030EDB501120EA6ED89014
:1019F000E936EA36000EE926010EEA2212C0EEFFB1
:101A000013C0EDFF1BD0DECF10F0DDCF11F0D8906A
:101A100010361136D89010361136020EDB501024D5
:101A2000E96E030EDB501120EA6ED890E936EA36F3
:101A3000000EE926010EEA22EE6AED6A020EDB2AAA
:101A4000030E01E286D7DB2A84D7DF2A010E01E2EA
:101A500064D7DB2A62D7040EE15C02E2E16AE55258
:101A6000E16EE552E7CFD9FF1200D9CFE6FFE1CF13
:101A7000D9FF040EE126DE6ADD6A020EDB6A030E80
:101A8000DB6A0101201D8214826E020EDB6A030EE6
:101A9000DB6A020EDBCF10F0030EDBCF11F0D89023
:101AA000115004E6040E105C000E11586EE2020E96
:101AB000DBCFE9FF030EDBCFEAFF240EE926010EA0
:101AC000EA22EF5082143FE1DECF14F0DDCF15F0B3
:101AD000D89014361536D89014361536020EDB50D1
:101AE0001424E96E030EDB501520EA6ED890E93617
:101AF000EA36000EE926010EEA22EECF12F0EFCF11
:101B000013F0010E1226000E1322DECF10F0DDCFEF
:101B100011F0D89010361136D89010361136020ECA
:101B2000DB501024E96E030EDB501120EA6ED890D2
:101B3000E936EA36000EE926010EEA2212C0EEFF6F
:101B400013C0EDFF1BD0DECF10F0DDCF11F0D89029
:101B500010361136D89010361136020EDB50102494
:101B6000E96E030EDB501120EA6ED890E936EA36B2
:101B7000000EE926010EEA22EE6AED6A020EDB2A69
:101B8000030E01E286D7DB2A84D7040EE15C02E271
:101B9000E16AE552E16EE552E7CFD9FF1200D9CFF5
:101BA000E6FFE1CFD9FF040EE126DE6ADD6A020E10
:101BB000DB6A030EDB6A010EDE6EDD6ADECFE9FF53
:101BC000DDCFEAFF200EE926010EEA22EF1C821487
:101BD000826E020EDB6A030EDB6A020EDBCF10F0B0
:101BE000030EDBCF11F0D890115004E6030E105C09
:101BF000000E11586EE2020EDBCFE9FF030EDBCFC1
:101C0000EAFF240EE926010EEA22EF5082143FE19A
:101C1000DECF14F0DDCF15F0D89014361536D890FD
:101C200014361536020EDB501424E96E030EDB5019
:101C30001520EA6ED890E936EA36000EE926010E44
:101C4000EA22EECF12F0EFCF13F0010E1226000EB3
:101C50001322DECF10F0DDCF11F0D8901036113600
:101C6000D89010361136020EDB501024E96E030EA8
:101C7000DB501120EA6ED890E936EA36000EE926EC
:101C8000010EEA2212C0EEFF13C0EDFF1BD0DECF23
:101C900010F0DDCF11F0D89010361136D8901036F4
:101CA0001136020EDB501024E96E030EDB501120BA
:101CB000EA6ED890E936EA36000EE926010EEA22ED
:101CC000EE6AED6A020EDB2A030E01E286D7DB2AFA
:101CD00084D7040EE15C02E2E16AE552E16EE5526E
:101CE000E7CFD9FF1200D9CFE6FFE1CFD9FF040E2D
:101CF000E126DE6ADD6ADECF10F0DDCF11F0FD0EE9
:101D0000DBCF12F0FE0EDBCF13F011501318E8AE4C
:101D100002D0133404D01250105C135011581DE23D
:101D2000020EDB6A030EDB6A020EDBCF10F0030E3D
:101D3000DBCF11F0D890115004E6EE0E105C000ECF
:101D4000115806E2020EDB2A030EEEE3DB2AECD783
:101D5000DF2A010ED0E3DB2ACED7040EE15C02E2DB
:101D6000E16AE552E16EE552E7CFD9FF1200D9CF23
:101D7000E6FFE1CFD9FF040EE126DE6ADD6ADECFA1
:101D800010F0DDCF11F0D890115004E6040E105C75
:101D9000000E115875E2DECFE9FFDDCFEAFF200E1D
:101DA000E926010EEA22EF1C826E020EDB6A030EA8
:101DB000DB6A020EDBCF10F0030EDBCF11F0D89000
:101DC000115004E6040E105C000E11584AE2DECFFA
:101DD00010F0DDCF11F0D89010361136D8901036B3
:101DE0001136020EDB501024E96E030EDB50112079
:101DF000EA6ED890E936EA36000EE926010EEA22AC
:101E0000EE6AED6A020EDBCFE9FF030EDBCFEAFFDD
:101E1000240EE926010EEA22EF5082141CE1DECFE7
:101E200010F0DDCF11F0D89010361136D890103662
:101E30001136020EDB501024E96E030EDB50112028
:101E4000EA6ED890E936EA36000EE926010EEA225B
:101E5000010EEE6EED6A020EDB2A030EAAE3DB2A08
:101E6000A8D78250816EE80EE66E030EE66E3BDF69
:101E7000E552E552DF2A010E01E281D7DB2A7FD746
:101E8000040EE15C02E2E16AE552E16EE552E7CF61
:101E9000D9FF1200D9CFE6FF040EE12684B005D0A9
:101EA0000101002B000E012303D00101006B016B27
:101EB00084B204D0022B000E032302D0026B036B0A
:101EC00084B404D0042B000E052302D0046B056BF0
:101ED00082B004D0062B000E072302D0066B076BDE
:101EE00082B204D0082B000E092302D0086B096BC4
:101EF00082B404D00A2B000E0B2302D00A6B0B6BAA
:101F000082BA04D00C2B000E0D2302D00C6B0D6B8B
:101F100081B004D00E2B000E0F2302D00E6B0F6B7E
:101F2000040EE15C02E2E16AE552E16EE552E7CFC0
:101F3000D9FF1200070E9610966E270E9410946E1D
:081F4000010E9310936E1200D4
:081F4800D9CFE6FFE1CFD9FF7C
:101F5000D59EFD0EDBCF4BF1FE0EDBCF4CF1D59CB9
:101F600013681468156A4BC116F04CC117F0186A53
:101F70001650135C106E17501458116E18501558E7
:101F8000126E0C6A010E0D6E0E6A10C007F011C0C1
:101F900008F012C009F034EC16F00350D66E136846
:101FA0001468156A4BC116F04CC117F0186A165028
:101FB000135C106E17501458116E18501558126E8D
:101FC0000C6A010E0D6E0E6A10C007F011C008F009
:101FD00012C009F034EC16F007C010F008C011F080
:101FE00009C012F00750D76ED59AD586F28AF294BE
:101FF000F184D58EE552E7CFD9FF1200D59E1200AD
:1020000013681468156A4BC116F04CC117F0186AB2
:102010001650135C106E17501458116E1850155846
:10202000126E0C6A010E0D6E0E6A10C007F011C020
:1020300008F012C009F034EC16F00350D66E1368A5
:102040001468156A4BC116F04CC117F0186A165087
:10205000135C106E17501458116E18501558126EEC
:102060000C6A010E0D6E0E6A10C007F011C008F068
:1020700012C009F034EC16F007C010F008C011F0DF
:1020800009C012F00750D76ED58E1200D9CFE6FFE7
:10209000E1CFD9FFCD90FD0EDBCF4DF1FE0EDBCFB2
:1020A0004EF113681468156A4DC116F04EC117F051
:1020B000186A1650135C106E17501458116E185091
:1020C0001558126E0C6A010E0D6E0E6A10C007F0E4
:1020D00011C008F012C009F034EC16F00750CF6EB2
:1020E00013681468156A4DC116F04EC117F0186ACE
:1020F0001650135C106E17501458116E1850155866
:10210000126E0C6A010E0D6E0E6A10C007F011C03F
:1021100008F012C009F034EC16F003C010F004C04F
:1021200011F005C012F00350CE6E9D809E909F90DE
:10213000CD8ECD8CCD98CD9ACD96CD92CD80E552D9
:10214000E7CFD9FF120013681468156A4DC116F065
:102150004EC117F0186A1650135C106E17501458C1
:10216000116E18501558126E0C6A010E0D6E0E6A23
:1021700010C007F011C008F012C009F034EC16F0DE
:102180000750CF6E13681468156A4DC116F04EC122
:1021900017F0186A1650135C106E17501458116E11
:1021A00018501558126E0C6A010E0D6E0E6A10C092
:1021B00007F011C008F012C009F034EC16F003C0AB
:1021C00010F004C011F005C012F00350CE6ECD80A7
:1021D0001200CD901200D9CFE6FFE1CFD9FFCA940B
:1021E000CC6AFE0EDB5001014F6F506BCB6E9D82AF
:1021F0009E929F92CA90CA92CA84E552E7CFD9FFB5
:1022000012004FC1CBFFCA841200CA941200D9CF6A
:10221000E6FFE1CFD9FFB190FD0EDBCF51F1FE0E0D
:10222000DBCF52F113681468156A51C116F052C120
:1022300017F0186A1650135C106E17501458116E70
:1022400018501558126E0C6A010E0D6E0E6A10C0F1
:1022500007F011C008F012C009F034EC16F0075076
:10226000B36E13681468156A51C116F052C117F0A5
:10227000186A1650135C106E17501458116E1850CF
:102280001558126E0C6A010E0D6E0E6A10C007F022
:1022900011C008F012C009F034EC16F003C010F0C1
:1022A00004C011F005C012F00350B26EA082A192DA
:1022B000A292B18EB198B19AB192B180E552E7CFB6
:1022C000D9FF120013681468156A51C116F052C183
:1022D00017F0186A1650135C106E17501458116ED0
:1022E00018501558126E0C6A010E0D6E0E6A10C051
:1022F00007F011C008F012C009F034EC16F00350DA
:10230000B26E13681468156A51C116F052C117F005
:10231000186A1650135C106E17501458116E18502E
:102320001558126E0C6A010E0D6E0E6A10C007F081
:1023300011C008F012C009F034EC16F007C010F01C
:1023400008C011F009C012F00750B36EB18012003E
:10235000B190120001015B2B000E5C2363515B5DA9
:1023600064515C5904E35B6B5C6B010E536F1200AC
:1023700001015D2B000E5E2365515D5D66515E5966
:1023800004E35D6B5E6B010E546F120001015F2B65
:10239000000E602367515F5D6851605904E35F6B15
:1023A000606B010E556F12000101612B000E62235C
:1023B0006951615D6A51625904E3616B626B010EA0
:1023C000566F1200D9CFE6FFE1CFD9FFFD0EDBCF6C
:1023D00063F1FE0EDBCF64F101015B6B5C6B536B51
:1023E000E552E7CFD9FF1200D9CFE6FFE1CFD9FF01
:1023F000FD0EDBCF65F1FE0EDBCF66F1050E0D6E37
:102400000E6A65C108F066C109F00EEC16F008C04E
:1024100065F109C066F101015D6B5E6B546BE552BD
:10242000E7CFD9FF1200D9CFE6FFE1CFD9FFFD0EEC
:10243000DBCF69F1FE0EDBCF6AF10A0E0D6E0E6A7C
:1024400069C108F06AC109F00EEC16F008C069F124
:1024500009C06AF10101616B626B566BE552E7CF0F
:04246000D9FF12008E
:0C246400D9CFE6FFE1CFD9FF020EE12640
:10247000FE0EDB500F0BDF6EFE0EDB380F0B0A0D6E
:10248000010EF3CFDBFFDB50DF24106E020EE15CA8
:1024900002E2E16AE552E16E1050E552E7CFD9FF62
:1024A0001200D9CFE6FFE1CFD9FF020EE1260A0ED6
:1024B000106E0E6EFE0EDBCF09F0F2EC17F0055039
:1024C000DF6E0A0E106E0E6EFE0EDBCF09F0F2EC20
:1024D00017F00950100D010EF3CFDBFFDB50DF24A6
:1024E000106E020EE15C02E2E16AE552E16E10500C
:1024F000E552E7CFD9FF120094869488C79EC79C07
:10250000C690C692C694C686310EC86EC68A1200A0
:10251000D9CFE6FFE1CFD9FF9E96FE0EDB50D00F5C
:10252000C96E9EA6FED7E552E7CFD9FF1200D9CFDC
:10253000E6FFE1CFD9FF9E96FE0EDB50A00FC96EDD
:102540009EA6FED7E552E7CFD9FF12009E96C58022
:102550009EA6FED712009E96C5849EA6FED71200A8
:10256000D9CFE6FFE1CFD9FF9E96FE0EDB50C96EB4
:102570009EA6FED7E552E7CFD9FF12009E96C586EC
:102580009EA6FED7C95012009E96C59AC5889EA6E3
:10259000FED712009E96C58AC5889EA6FED7120059
:1025A000D9CFE6FFE1CFD9FFD1DFE66AB1DFE5524F
:1025B0000101010E8C6FE85004E0C550400BFAE0B9
:1025C000F8D7FE0EDBCFE6FFCBDFE5520101010EAF
:1025D0008C6FE85004E0C550400BFAE0F8D7FD0ED0
:1025E000DBCFE6FF5EDFE552E66EBADFE5520101C2
:1025F000010E8C6FE85004E0C550400BFAE0F8D7AC
:10260000AADFE552E7CFD9FF1200D9CFE6FFE1CF2D
:10261000D9FF9CDFE66A8BDFE5520101010E8C6F6A
:10262000E85004E0C550400BFAE0F8D7FE0EDBCFCF
:10263000E6FF96DFE5520101010E8C6FE85004E0E1
:10264000C550400BFAE0F8D7FD0EDBCF10F0FE0EC0
:10265000DBCF11F00001116A1050E66E81DFE55208
:102660000101010E8C6FE85004E0C550400BFAE008
:10267000F8D7FC0EDBCFE6FF73DFE5520101010E58
:102680008C6FE85004E0C550400BFAE0F8D763DFE8
:10269000E552E7CFD9FF1200D9CFE6FFE1CFD9FF4E
:1026A000E65254DFE66A34DFE5520101010E8C6F19
:1026B000E85004E0C550400BFAE0F8D7FE0EDBCF3F
:1026C000E6FF4EDFE5520101010E8C6FE85004E099
:1026D000C550400BFAE0F8D739DF010EE66E18DF7F
:1026E000E5520101010E8C6FE85004E0C550400B2B
:1026F000FAE0F8D743DFDF6EDFCFE6FFB3DEE55267
:10270000DF6EDF50E552E552E7CFD9FF1200D9CF97
:10271000E6FFE1CFD9FFE65219DFE66A08DFE552AE
:102720000101010E8C6FE85004E0C550400BFAE047
:10273000F8D7FE0EDBCFE6FF13DFE5520101010EF5
:102740008C6FE85004E0C550400BFAE0F8D7FD0E5E
:10275000DBCF10F0FE0EDBCF11F00001116A10503C
:10276000E66EFEDEE5520101010E8C6FE85004E0DA
:10277000C550400BFAE0F8D7E9DE010EE66ED7DE71
:10278000E5520101010E8C6FE85004E0C550400B8A
:10279000FAE0F8D7F3DEDF6EDF50E552E552E7CF1F
:0427A000D9FF12004B
:0C27A400F28ED08EF28C1200F19CF292AA
:1027B000F2881200D8CFE4FFE0CFE4FFE46EDACF76
:1027C000E4FFE2CFDAFFE9CFE4FFEACFE4FFF6CFA0
:1027D000E4FFF7CFE4FFF5CFE4FFF3CFE4FFF4CF5E
:1027E000E4FFFACFE4FF00EE00F0100EE80403E38C
:1027F000EECFE4FFFBD700EE10F00A0EE80403E38F
:10280000EECFE4FFFBD7E652F2A407D0FEEC0FF0C8
:10281000F29400EC10F0AAEC11F09EA007D0E9ECC5
:1028200010F09E90A3EC10F0B8EC11F09EA207D02F
:1028300005EC11F09E9201EC11F0C6EC11F0A1A292
:1028400007D0A8EC11F0A19262EC11F0D4EC11F0D9
:10285000F2B2F2929EAA03D09E9A73EC15F0E55262
:1028600000EE19F00A0EE80403E3E5CFEDFFFBD715
:1028700000EE0FF0100EE80403E3E5CFEDFFFBD709
:10288000E5CFFAFFE5CFF4FFE5CFF3FFE5CFF5FFA6
:10289000E5CFF7FFE5CFF6FFE5CFEAFFE5CFE9FFAC
:1028A000E5CFDAFFE550E5CFE0FFE5CFD8FF100038
:1028B000DACFE4FFE2CFDAFFE9CFE4FFEACFE4FFCB
:1028C000F6CFE4FFF7CFE4FFF5CFE4FFF3CFE4FF6B
:1028D000F4CFE4FFFACFE4FF00EE00F0100EE804BE
:1028E00003E3EECFE4FFFBD700EE10F00A0EE8049E
:1028F00003E3EECFE4FFFBD7E652F2A407D0FEECF1
:102900000FF0F29400EC10F0AAEC11F09EA007D0AA
:10291000E9EC10F09E90A3EC10F0B8EC11F09EA240
:1029200007D005EC11F09E9201EC11F0C6EC11F00D
:10293000A1A207D0A8EC11F0A19262EC11F0D4ECA6
:1029400011F0F2B2F2929EAA03D09E9A73EC15F0A7
:10295000E55200EE19F00A0EE80403E3E5CFEDFFBF
:10296000FBD700EE0FF0100EE80403E3E5CFEDFF18
:10297000FBD7E5CFFAFFE5CFF4FFE5CFF3FFE5CFD7
:10298000F5FFE5CFF7FFE5CFF6FFE5CFEAFFE5CFAF
:08299000E9FFE5CFDAFF1100B9
:08299800B06A810EAF6EAC8A3B
:1029A000AC94B886AC98AB8EAB889E9A9D8A9F9A61
:1029B000949C948E1200D9CFE6FFE1CFD9FF040E8C
:1029C000E126DE6ADD6ADECF10F0DDCF11F0FD0E0C
:1029D000DBCF12F0FE0EDBCF13F011501318E8AE70
:1029E00002D0133404D01250105C135011581DE261
:1029F000020EDB6A030EDB6A020EDBCF10F0030E61
:102A0000DBCF11F0D890115004E6EE0E105C000EF2
:102A1000115806E2020EDB2A030EEEE3DB2AECD7A6
:102A2000DF2A010ED0E3DB2ACED7040EE15C02E2FE
:102A3000E16AE552E16EE552E7CFD9FF1200D9CF46
:102A4000E6FFE1CFD9FF9EA8FED7FE0EDB50AD6EAC
:102A50009E98E552E7CFD9FF1200D9CFE6FFE1CF2C
:102A6000D9FFFD0EDBCFE9FFFE0EDBCFEAFFEF5013
:102A700010E0FD0EDBCFE9FFFE0EDBCFEAFFEF50EB
:102A8000E66EDDDFE552FD0EDB2AFE0EEAE3DB2A11
:102A9000E8D7E552E7CFD9FF1200D9CFE6FFE1CF63
:102AA000D9FFFD0EDBCFF6FFFE0EDBCFF7FF0800F0
:102AB000F55015E0FD0EDBCFF6FFFE0EDBCFF7FF86
:102AC0000800F550E66EBBDFE552FD0EDBCFF6FFEA
:102AD000DB2AFE0EDBCFF7FFE4E3DB2AE2D7E55289
:0A2AE000E7CFD9FF120075EF15F0E3
:062AEA00D9CFE6FFE1CFA9
:102AF000D9FFE652AE50DF6EDFCFE6FF1FEC15F0D8
:102B0000E55201016D51050A2AE0010A21E0070A98
:102B100011E0010A0AE0020A02E0010A2AE1FF0EBE
:102B2000DF5C28E1706B020E22D0FF0EDF5C15E146
:102B3000030E1DD07051EA6A810FE96E000EEA2281
:102B4000DFCFEFFF702B7251705D14E3040E0FD0D6
:102B5000FE0EDF5C02E1050E0AD0010E08D0FE0E6B
:102B6000DF5C04E1010E6E6F6D6B04D0010E6D6FC2
:102B700001D06D6BE552E552E7CFD9FF120012008C
:102B800001016E054AE1B00EE66E2E0EE66EE66AB3
:102B9000E66A35EC07F0E552E552E552E5520001F0
:102BA000806B010172510001805D21E28051EA6A6F
:102BB000810FE96E000EEA22EFCF10F0116A126A5F
:102BC000136A10C0E6FF11C0E6FF12C0E6FF13C093
:102BD000E6FF030E8003F350E66EE66A0EEC06F0A5
:102BE000146E060EE15E14500001802BDAD76DC121
:102BF00010F0116A126A136A6DC1E6FF11C0E6FF98
:102C000012C0E6FF13C0E6FF0F0EE66EE66A0EEC9A
:0C2C100006F0146E060EE15E1450120077
:042C1C00006A0EAE8E
:102C200017EF16F00D6C0E1EE86A0E22001E09AE9C
:102C30001FEF16F0086C091EE86A0922001EBEECA0
:102C400017F009BE2FEF16F000AE000C086C091E3D
:102C5000E86A0922046C051EE86A0522000C00BE21
:102C600026EF16F00188FF0C006A0EAE3FEF16F05B
:102C70000C6C0D1E0E1EE86A0D220E22001E09AEFF
:102C800049EF16F0076C081E091EE86A082209229F
:102C9000001E85EC17F009BE5CEF16F000AE000CCC
:102CA000076C081E091EE86A08220922036C041E2C
:102CB000051E04220522000C00BE50EF16F001880C
:022CC000FF0C07
:0E2CC2001E0EF66E000EF76E000EF86E01018B
:102CD0000900F550836F0900F550846F03E18367A5
:102CE00001D03DD00900F5507E6F0900F5507F6F8F
:102CF0000900F550806F09000900F550E96E0900E0
:102D0000F550EA6E090009000900F550816F0900CD
:102D1000F550826F09000900F6CF85F1F7CF86F1F3
:102D2000F8CF87F17EC1F6FF7FC1F7FF80C1F8FFC2
:102D30000101815302E1825307E00900F550EE6E74
:102D40008107F8E28207F9D785C1F6FF86C1F7FF50
:102D500087C1F8FF01018307000E845BBFD7120013
:102D6000010E926E0E0EC16EC26A040EC06EC2805B
:102D70001200D9CFE6FFE1CFD9FF020EE126DE6ACD
:102D8000DD6AC282C2B2FED7C450DE6EDD6ADECF1B
:102D900012F0DDCF13F0D89012361336D8901236D9
:102DA0001336060EC3CFE7FF070B04E0E742E79EAA
:102DB000E806FCE1E7501224106E000E132010C04C
:102DC000DEFFDD6EDECF61FFDDCF62FFDECF10F014
:102DD000DDCF11F010C0F3FF11C0F4FF020EE15C73
:102DE00002E2E16AE552E16EE552E7CFD9FF120057
:102DF00006500B02F3CF02F0F4CF03F00C02F350B5
:102E00000326000EF420046E06500D02F350042633
:102E1000000EF420056E06500E02F35005260750F2
:102E20000B02F3500326F4500422000E0522075033
:102E30000C02F3500426F450052207500D02F35003
:102E4000052608500B02F3500426F45005220850C2
:102E50000C02F350052609500B02F3500526120010
:102E6000202000202020475245454E5F4D4F4445CD
:102E70002020200020202059454C4C4F575F4D4FBB
:102E80004445202000473A00593A00523A00202099
:102E90002020202020202020202020202020002052
:102EA000202020204E4F524D414C20202020200039
:102EB0002020202020202020202020202020202012
:012EC0000011
:012EC1000010
:0E2EC200056A046A036A026A200EE76ED89061
:102ED0000636073608360936023603360436053616
:102EE0000B50025C0C5003580D5004580E500558FE
:102EF00009E30B50025E0C50035A0D50045A0E5059
:0A2F0000055A062AE72EE4D7120056
:062F0A00056A046A036A77
:102F1000180EE76ED89007360836093603360436A1
:102F200005360C50035C0D5004580E50055807E34D
:102F30000C50035E0D50045A0E50055A072AE72E16
:042F4000EAD71200BA
:0C2F4400CA94CA90CA829B0ECB6EBD9846
:102F5000BD9ABE6ABD9CBD9EBD90BD92BD84BD861E
:102F60009494CA841200D9CFE6FFE1CFD9FFFE0EB8
:0C2F7000DB50BE6EE552E7CFD9FF120027
:042F7C00056A046A74
:102F8000100EE76ED89008360936043605360D5017
:102F9000045C0E50055805E30D50045E0E50055AB2
:082FA000082AE72EF0D7120009
:082FA800800EF36E00EE00F054
:102FB0000F0E01D81200EA6002D0EE6AFCD7F3507F
:082FC000E9601200EE6AFCD783
:082FC8001EEE00F02EEE00F0F9
:102FD000F86A019C61EC16F003EC00F060EC07F07D
:042FE000FBD7120009
:0C2FE400056A080EE76ED8900936053625
:102FF0000E50055C02E3056E092AE72EF7D7120092
:1030000000000000000000000000000000000000C0
:1030100000000000000000000100010001000100AC
:103020000000000000000005050000000000000096
:033030000000009D
:0D3033000102040810204080010000000090
:10304000000000000000C0F9A4B0999282F88090BE
:0630500000010000000079
:0A3056000000000000000000101050
:1030600010101010101018181818181818181C1C08
:103070001C1C1C1C1C1C1E1E1E1E1E1E1E1E1F1F7A
:103080001F1F1F1F1F1F0000000000000000000086
:103090000000000000000000000000000000000030
:1030A0000000000000000000000000000000000020
:0730B0000000000000000019
:0930B700000000D00022222207D3
:1030C00025091000010000000000000000000000C1
:0230D0000000FE
:0E30D2000000000000000000000000000000F0
:1030E00000000000000000000000000000000000E0
:0A30F00000001020408001020408D7
:020000040030CA
:0100010002FC
:0100020003FA
:010003001EDE
:010005008179
:010006008178
:010008000FE8
:01000900C036
:01000A000FE6
:01000B00E014
:01000C000FE4
:01000D0040B2
:00000001FF
