:020000040000FA
:06000000A5EF15F012004F
:020006001200E6
:060008004AEF12F01200A5
:01000E0000F1
:01000F0000F0
:03001000000000ED
:06001800CCEF11F0120014
:02001E000800D8
:10002000662C000000010000280000004B2C00009E
:10003000E50000001B0000000F0000008901000027
:1000400004000000EA2B0000000F00006100000027
:10005000C62B000028010000240000000E00000054
:100060008E01000001000000B32B00006C010000B5
:1000700013000000932B00004C0100002000000042
:10008000D9CFE6FFE1CFD9FF040EE126DE6ADD6AB3
:10009000DECF10F0DDCF11F0126A136A11AE02D07C
:1000A00012681368D950FB0FE96EFF0EDA20EA6E72
:1000B000EE50105CEE501158EE501258EE5013589E
:1000C0001DE2020EDB6A030EDB6A020EDBCF10F0CC
:1000D000030EDBCF11F0D890115004E6050E105C32
:1000E000000E115806E2020EDB2A030EEEE3DB2AB5
:1000F000ECD7DF2A010ECCE3DB2ACAD7040EE15C81
:1001000002E2E16AE552E16EE552E7CFD9FF120063
:10011000D9CFE6FFE1CFD9FF040EE126DE6ADD6A22
:10012000DECF10F0DDCF11F0126A136A11AE02D0EB
:1001300012681368D950FB0FE96EFF0EDA20EA6EE1
:10014000EE50105CEE501158EE501258EE5013580D
:100150001DE2020EDB6A030EDB6A020EDBCF10F03B
:10016000030EDBCF11F0D890115004E6EE0E105CB8
:10017000000E115806E2020EDB2A030EEEE3DB2A24
:10018000ECD7DF2A010ECCE3DB2ACAD7040EE15CF0
:1001900002E2E16AE552E16EE552E7CFD9FF1200D3
:1001A000D9CFE6FFE1CFD9FF0F0E8116FE0EDB504F
:1001B000F00B81128186010EE66EE66AE66AE66A57
:1001C000A7DFE552E552E552E5528196010EE66E53
:1001D000E66AE66AE66A9CDFE552E552E552E552D8
:1001E0000F0E8116FE0EDB38F00B81128186010E98
:1001F000E66EE66AE66AE66A8BDFE552E552E552AC
:10020000E5528196010EE66EE66AE66AE66A80DFEE
:10021000E552E552E552E552E552E7CFD9FF12002B
:10022000D9CFE6FFE1CFD9FFE652936A190EE66E09
:10023000E66AE66AE66A6CDFE552E552E552E552A7
:100240000F0E8116F80E81160F0E8116300E8112D8
:100250008186010EE66EE66AE66AE66A59DFE552D5
:10026000E552E552E5528196010EE66EE66AE66ACF
:10027000E66A4EDFE552E552E552E5520F0E811671
:10028000300E81128186010EE66EE66AE66AE66A43
:100290003FDFE552E552E552E5528196010EE66EEA
:1002A000E66AE66AE66A34DFE552E552E552E5526F
:1002B0000F0E8116300E81128186010EE66EE66AFF
:1002C000E66AE66A25DFE552E552E552E552819697
:1002D000010EE66EE66AE66AE66A1ADFE552E55264
:1002E000E552E5520F0E8116818A8186010EE66E77
:1002F000E66AE66AE66A0CDFE552E552E552E55247
:100300008196010EE66EE66AE66AE66A01DFE5526C
:10031000E552E552E552280EE66E42DFE5520C0E3C
:10032000E66E3EDFE552E552E552E7CFD9FF120017
:10033000D9CFE6FFE1CFD9FF020EE126DF6A010E39
:10034000DB6A81940F0EE66EE66AE66AE66A98DE7C
:10035000E552E552E552E5520F0E81128186E66EB6
:10036000E66AE66AE66A8CDEE552E552E552E55257
:100370000F0E8114E76E010EE7CFDBFF81960F0EA3
:10038000E66EE66AE66AE66A7BDEE552E552E5522B
:10039000E5520F0E81128186E66EE66AE66AE66A2B
:1003A0006FDEE552E552E552E5520F0E8114DF6E25
:1003B000010EDB50DF128196010EE66EE66AE66AF8
:1003C000E66A5EDEE552E552E552E552DF50106E18
:1003D000020EE15C02E2E16AE552E16E1050E55284
:1003E000E7CFD9FF1200D9CFE6FFE1CFD9FFE65220
:1003F000DF6A9EDFDF6EDFBEFCD7DF50E552E552DD
:10040000E7CFD9FF1200D9CFE6FFE1CFD9FF0F0E1A
:100410008116FE0EDB5081128186050EE66EE66ABD
:10042000E66AE66A2DDEE552E552E552E55281962E
:10043000050EE66EE66AE66AE66A22DEE552E552F7
:10044000E552E552E552E7CFD9FF1200D9CFE6FFDA
:10045000E1CFD9FF8194050EE66EE66AE66AE66AA8
:100460000FDEE552E552E552E552FE0EDBCFE6FF28
:10047000CADFE552FE0EDB38F00BE66EC4DFE55254
:10048000E552E7CFD9FF1200D9CFE6FFE1CFD9FF80
:100490008184050EE66EE66AE66AE66AF1DDE552FB
:1004A000E552E552E552FE0EDBCFE6FFACDFE5524A
:1004B000FE0EDB38F00BE66EA6DFE5528194E552C6
:1004C000E7CFD9FF1200D9CFE6FFE1CFD9FFFE0E6B
:1004D000DBCFE6FFD9DFE552E552E7CFD9FF1200C7
:1004E000D9CFE6FFE1CFD9FFFE0EDBCFE6FFCCDFB1
:1004F000E552E552E7CFD9FF1200D9CFE6FFE1CFB1
:10050000D9FFFD0EDBCFF6FFFE0EDBCFF7FF0800B5
:10051000F5500FE0FD0EDBCFF6FFDB2AFE0EDBCF42
:10052000F7FF01E3DB2A0800F550E66ED9DFE5525C
:10053000E8D7E552E7CFD9FF1200D9CFE6FFE1CFE8
:10054000D9FFE652FD0EDB500F0B106EFE0EDB5096
:10055000010B400DF3501024DF6E7F0EDF14800F6F
:10056000DF6EDFCFE6FF72DFE552E552E552E7CFFF
:10057000D9FF1200010EE66E69DFE552E66AE66A0F
:10058000DCDFE552E5521200D9CFE6FFE1CFD9FF1B
:10059000050EE126010EF36EDB6E020EDB6A030E22
:1005A000DB6A040EDB6ADF6ADFCF10F0116A10BE6F
:1005B0001168FB0EDBCF12F0FC0EDBCF13F01150F5
:1005C0001318E8AE02D0133404D01250105C13504C
:1005D00011582DE2FD0EDBCF10F0FE0EDBCF11F037
:1005E000126A136A11AE02D012681368D950010F53
:1005F000E96EDACFEAFF10C00BF011C00CF012C0A8
:100600000DF013C00EF0EECF06F0EECF07F0EECFF8
:1006100008F0EFCF09F0EAEC14F005C0EDFF04C0DC
:10062000EDFF03C0EDFF02C0EFFFDF2ABDD7010ED3
:10063000DBCF10F0020EDBCF11F0030EDBCF12F098
:10064000040EDBCF13F010C006F011C007F012C08B
:1006500008F013C009F0050EE15C02E2E16AE55220
:10066000E16EE552E7CFD9FF1200D9CFE6FFE1CF27
:10067000D9FF020EE126DF6AFB0EDBCF10F0FC0E85
:10068000DBCF11F0FD0EDBCF12F0FE0EDBCF13F04F
:10069000105011101210131005E1300EE66E20DF1D
:1006A000E552F4D0D950FB0FE96EFF0EDA20EA6E66
:1006B000D890030EEB50000A08E6000EEE5C000E28
:1006C000EE58000EEE58000EEE5815E22D0EE66EB6
:1006D00007DFE552D950FB0FE96EFF0EDA20EA6E14
:1006E000000EEE6CEF1EEE22EF1EEE22EF1EEF224A
:1006F000ED52ED52ED52DE52070EDD6E010EDBCFF4
:1007000010F0000EE76E1018E8AE02D0103403D0DF
:10071000E750D880105401E3B9D0010EDB04146E09
:10072000156A14BE156814C0E6FF15C0E6FF0A0E70
:10073000E66EE66A29DFE552E552E552E55206C06B
:1007400010F007C011F008C012F009C013F006C085
:100750000BF007C00CF008C00DF009C00EF0FB0E46
:10076000DBCF06F0FC0EDBCF07F0FD0EDBCF08F091
:10077000FE0EDBCF09F022EC15F006500710081032
:10078000091041E0010EDF6EDB04186E196A18BE15
:10079000196818C0E6FF19C0E6FF0A0EE66EE66AA1
:1007A000F3DEE552E552E552E55206C014F007C00B
:1007B00015F008C016F009C017F006C00BF007C00E
:1007C0000CF008C00DF009C00EF0FB0EDBCF06F0F8
:1007D000FC0EDBCF07F0FD0EDBCF08F0FE0EDBCF0B
:1007E00009F022EC15F006C010F007C011F008C0A7
:1007F00012F009C013F0300E1026000E1122122242
:100800001322105003D0DF5004E0300EE66E68DE95
:10081000E552010EDB04146E156A14BE156814C08F
:10082000E6FF15C0E6FF0A0EE66EE66AADDEE552AB
:10083000E552E552E55206C010F007C011F008C0BD
:1008400012F009C013F0D950FB0FE96EFF0EDA2049
:10085000EA6E06C00BF007C00CF008C00DF009C02E
:100860000EF0EECF06F0EECF07F0EECF08F0EFCFB0
:1008700009F022EC15F005C0EDFF04C0EDFF03C048
:10088000EDFF02C0EFFF010EDB0638D7020EE15C80
:1008900002E2E16AE552E16EE552E7CFD9FF1200CC
:1008A000D9CFE6FFE1CFD9FFFD0EDBCFE6FFFE0E8D
:1008B000DBCFE6FF42DEE552E552D950F90FE96E93
:1008C000FF0EDA20EA6EEECFE6FFEECFE6FFEECFC8
:1008D000E6FFEFCFE6FFC9DEE552E552E552E5520D
:1008E000E552E7CFD9FF1200D9CFE6FFE1CFD9FF1C
:1008F000FD0EDBCFE6FFFE0EDBCFE6FF1EDEE55290
:10090000E552FB0EDBCFE6FFFC0EDBCFE6FFF5DDAD
:10091000E552E552E552E7CFD9FF1200D9CFE6FF05
:10092000E1CFD9FF7BCF10F07CCF11F0040ED8902F
:1009300010361136E806FBE1410E10260F0E11228B
:1009400010500F017D25E96E11507E21EA6EFE0EDA
:10095000DBCFEFFF7D2B000E7E23E552E7CFD9FFE3
:100960001200D9CFE6FFE1CFD9FFE652DF6ADFCF31
:1009700010F0100EE76E1018E8AE02D0E73402D087
:10098000E750105C18E2DFCFE9FFEA6AE9BEEA68E7
:10099000410EE9260F0EEA22200EEF6EDFCFE9FFAF
:1009A000EA6AE9BEEA68510EE9260F0EEA22200E35
:1009B000EF6EDF2ADCD7E552E552E7CFD9FF120010
:1009C000D9CFE6FFE1CFD9FFE6520F014051030A2C
:1009D00052E0010A36E0030A1AE0010A67E1E66A1A
:1009E000E66AABDDE552E552DF6A080EDF5C0CE239
:1009F000DF50EA6A410FE96E0F0EEA22EF50E66E11
:100A00006FDDE552DF2AF1D70F01010E32D0080E5B
:100A1000E66EE66A92DDE552E552DF6A080EDF5CBB
:100A20000DE2080EDF24EA6A410FE96E0F0EEA229A
:100A3000EF50E66E55DDE552DF2AF0D70F01020ECA
:100A400018D0E66A010EE66E78DDE552E552DF6AFF
:100A5000080EDF5C0CE2DF50EA6A510FE96E0F0E00
:100A6000EA22EF50E66E3CDDE552DF2AF1D70F01B6
:100A7000030E406F1CD0080EE66E010EE66E5DDDC3
:100A8000E552E552DF6A080EDF5C0DE2080EDF2456
:100A9000EA6A510FE96E0F0EEA22EF50E66E20DD92
:100AA000E552DF2AF0D70F01406B01D0406BE552D1
:100AB000E552E7CFD9FF1200D9CFE6FFE1CFD9FF4A
:100AC000E6520F014051010A1BE0010A32E1E66AD9
:100AD000E66A33DDE552E552DF6A100EDF5C0CE2B8
:100AE000DF50EA6A410FE96E0F0EEA22EF50E66E20
:100AF000F7DCE552DF2AF1D70F01010E406F1AD063
:100B0000E66A010EE66E19DDE552E552DF6A100E67
:100B1000DF5C0CE2DF50EA6A510FE96E0F0EEA2249
:100B2000EF50E66EDDDCE552DF2AF1D70F01406BB6
:100B300001D0406BE552E552E7CFD9FF1200D9CF83
:100B4000E6FFE1CFD9FFE652E66AE66AF6DCE55257
:100B5000E552DF6A100EDF5C0CE2DF50EA6A410FFB
:100B6000E96E0F0EEA22EF50E66EBADCE552DF2A9C
:100B7000F1D7E66A010EE66EE0DCE552E552DF6A87
:100B8000100EDF5C0CE2DF50EA6A510FE96E0F0EC7
:100B9000EA22EF50E66EA4DCE552DF2AF1D7E552F7
:100BA000E552E7CFD9FF1200D9CFE6FFE1CFD9FF59
:100BB000FE0EDB50010B0F017B6F7C6BFD0EDB50DB
:100BC0000F0B7D6F7E6BFC0EDB500A0802E1610E9D
:100BD00005D0FC0EDB500D0805E1640EF36EFC0E33
:100BE000F3CFDBFF7BCF10F07CCF11F0040ED89059
:100BF00010361136E806FBE1410E10260F0E1122C9
:100C000010500F017D25E96E11507E21EA6EFC0E19
:100C1000DBCFEFFFE552E7CFD9FF1200D9CFE6FFD8
:100C2000E1CFD9FF020EE126DF6AFE0EDB50010B99
:100C30000F017B6F7C6BFD0EDB500F0B7D6F7E6BAE
:100C4000F90EDBCF10F0FA0EDBCF11F0FB0EDBCF8D
:100C500012F0FC0EDBCF13F0105011101210131015
:100C600005E1300EE66E5ADEE552F5D0D950F90FA7
:100C7000E96EFF0EDA20EA6ED890030EEB50000A00
:100C800008E6000EEE5C000EEE58000EEE58000E68
:100C9000EE5815E22D0EE66E41DEE552D950F90F01
:100CA000E96EFF0EDA20EA6E000EEE6CEF1EEE2209
:100CB000EF1EEE22EF1EEF22ED52ED52ED52DE520C
:100CC000070EDD6E010EDBCF10F0000EE76E101880
:100CD000E8AE02D0103403D0E750D880105401E3BE
:100CE000BAD0010EDB04146E156A14BE156814C068
:100CF000E6FF15C0E6FF0A0EE66EE66A45DCE55241
:100D0000E552E552E55206C010F007C011F008C0E8
:100D100012F009C013F006C00BF007C00CF008C0B9
:100D20000DF009C00EF0F90EDBCF06F0FA0EDBCFA6
:100D300007F0FB0EDBCF08F0FC0EDBCF09F022EC56
:100D400015F0065007100810091041E0010EDF6E83
:100D5000DB04186E196A18BE196818C0E6FF19C0BE
:100D6000E6FF0A0EE66EE66A0FDCE552E552E55252
:100D7000E55206C014F007C015F008C016F009C00F
:100D800017F006C00BF007C00CF008C00DF009C04A
:100D90000EF0F90EDBCF06F0FA0EDBCF07F0FB0EFC
:100DA000DBCF08F0FC0EDBCF09F022EC15F006C01B
:100DB00010F007C011F008C012F009C013F0300E97
:100DC0001026000E112212221322105003D0DF50E1
:100DD00004E0300EE66EA2DDE552010EDB04146E77
:100DE000156A14BE156814C0E6FF15C0E6FF0A0EAA
:100DF000E66EE66AC4EC02F0E552E552E552E552D1
:100E000006C010F007C011F008C012F009C013F0BE
:100E1000D950F90FE96EFF0EDA20EA6E06C00BF02A
:100E200007C00CF008C00DF009C00EF0EECF06F0C0
:100E3000EECF07F0EECF08F0EFCF09F022EC15F07F
:100E400005C0EDFF04C0EDFF03C0EDFF02C0EFFFE2
:100E5000010EDB0637D7020EE15C02E2E16AE552E1
:100E6000E16EE552E7CFD9FF1200D9CFE6FFE1CF1F
:100E7000D9FFFE0EDB50010B0F017B6F7C6BFD0E6B
:100E8000DB500F0B7D6F7E6BFB0EDBCFF6FFFC0E96
:100E9000DBCFF7FF0800F5500FE0FB0EDBCFF6FFCE
:100EA000DB2AFC0EDBCFF7FF01E3DB2A0800F5505D
:100EB000E66E34DDE552E8D7E552E7CFD9FF120000
:100EC0000F0E946E82681200070E9410946EDF0E5F
:100ED0009414946E82681200D9CFE6FFE1CFD9FF57
:100EE000040EE126DE6ADD6ADECF10F0DDCF11F000
:100EF000D890115004E6040E105C000E115801E366
:100F000090D0DECFE9FFDDCFEAFF200EE926010E0B
:100F1000EA22EF1C826E020EDB6A030EDB6A020E0F
:100F2000DBCF10F0030EDBCF11F0D890115004E6A8
:100F3000040E105C000E11586EE2020EDBCFE9FFCA
:100F4000030EDBCFEAFF240EE926010EEA22EF5062
:100F500082143FE1DECF14F0DDCF15F0D8901436C7
:100F60001536D89014361536020EDB501424E96E6F
:100F7000030EDB501520EA6ED890E936EA36000EF3
:100F8000E926010EEA22EECF12F0EFCF13F0010EA8
:100F90001226000E1322DECF10F0DDCF11F0D89014
:100FA00010361136D89010361136020EDB50102450
:100FB000E96E030EDB501120EA6ED890E936EA366E
:100FC000000EE926010EEA2212C0EEFF13C0EDFF6B
:100FD0001BD0DECF10F0DDCF11F0D89010361136D7
:100FE000D89010361136020EDB501024E96E030E35
:100FF000DB501120EA6ED890E936EA36000EE92679
:10100000010EEA22EE6AED6A020EDB2A030E01E20D
:1010100086D7DB2A84D7DF2A010E01E265D7DB2AD7
:1010200063D7040EE15C02E2E16AE552E16EE5524B
:10103000E7CFD9FF1200D9CFE6FFE1CFD9FF040EE9
:10104000E126DE6ADD6ADECF10F0DDCF11F0D89048
:10105000115004E6020E105C000E115801E391D00D
:10106000DECFE9FFDDCFEAFF200EE926010EEA22FE
:10107000EF1C8214826E020EDB6A030EDB6A020E24
:10108000DBCF10F0030EDBCF11F0D890115004E647
:10109000040E105C000E11586EE2020EDBCFE9FF69
:1010A000030EDBCFEAFF240EE926010EEA22EF5001
:1010B00082143FE1DECF14F0DDCF15F0D890143666
:1010C0001536D89014361536020EDB501424E96E0E
:1010D000030EDB501520EA6ED890E936EA36000E92
:1010E000E926010EEA22EECF12F0EFCF13F0010E47
:1010F0001226000E1322DECF10F0DDCF11F0D890B3
:1011000010361136D89010361136020EDB501024EE
:10111000E96E030EDB501120EA6ED890E936EA360C
:10112000000EE926010EEA2212C0EEFF13C0EDFF09
:101130001BD0DECF10F0DDCF11F0D8901036113675
:10114000D89010361136020EDB501024E96E030ED3
:10115000DB501120EA6ED890E936EA36000EE92617
:10116000010EEA22EE6AED6A020EDB2A030E01E2AC
:1011700086D7DB2A84D7DF2A010E01E264D7DB2A77
:1011800062D7040EE15C02E2E16AE552E16EE552EB
:10119000E7CFD9FF1200D9CFE6FFE1CFD9FF040E88
:1011A000E126DE6ADD6A020EDB6A030EDB6A0101FC
:1011B000201D8214826E020EDB6A030EDB6A020EB1
:1011C000DBCF10F0030EDBCF11F0D890115004E606
:1011D000040E105C000E11586EE2020EDBCFE9FF28
:1011E000030EDBCFEAFF240EE926010EEA22EF50C0
:1011F00082143FE1DECF14F0DDCF15F0D890143625
:101200001536D89014361536020EDB501424E96ECC
:10121000030EDB501520EA6ED890E936EA36000E50
:10122000E926010EEA22EECF12F0EFCF13F0010E05
:101230001226000E1322DECF10F0DDCF11F0D89071
:1012400010361136D89010361136020EDB501024AD
:10125000E96E030EDB501120EA6ED890E936EA36CB
:10126000000EE926010EEA2212C0EEFF13C0EDFFC8
:101270001BD0DECF10F0DDCF11F0D8901036113634
:10128000D89010361136020EDB501024E96E030E92
:10129000DB501120EA6ED890E936EA36000EE926D6
:1012A000010EEA22EE6AED6A020EDB2A030E01E26B
:1012B00086D7DB2A84D7040EE15C02E2E16AE552BC
:1012C000E16EE552E7CFD9FF1200D9CFE6FFE1CFBB
:1012D000D9FF040EE126DE6ADD6A020EDB6A030E28
:1012E000DB6A010EDE6EDD6ADECFE9FFDDCFEAFFED
:1012F000200EE926010EEA22EF1C8214826E020EF5
:10130000DB6A030EDB6A020EDBCF10F0030EDBCFCD
:1013100011F0D890115004E6030E105C000E115825
:101320006EE2020EDBCFE9FF030EDBCFEAFF240EF5
:10133000E926010EEA22EF5082143FE1DECF14F0DD
:10134000DDCF15F0D89014361536D89014361536F2
:10135000020EDB501424E96E030EDB501520EA6EFA
:10136000D890E936EA36000EE926010EEA22EECFE1
:1013700012F0EFCF13F0010E1226000E1322DECF73
:1013800010F0DDCF11F0D89010361136D89010360D
:101390001136020EDB501024E96E030EDB501120D3
:1013A000EA6ED890E936EA36000EE926010EEA2206
:1013B00012C0EEFF13C0EDFF1BD0DECF10F0DDCF6B
:1013C00011F0D89010361136D89010361136020E22
:1013D000DB501024E96E030EDB501120EA6ED8902A
:1013E000E936EA36000EE926010EEA22EE6AED6AD7
:1013F000020EDB2A030E01E286D7DB2A84D7040E15
:10140000E15C02E2E16AE552E16EE552E7CFD9FF25
:101410001200D9CFE6FFE1CFD9FF040EE126DE6A44
:10142000DD6ADECF10F0DDCF11F0FD0EDBCF12F064
:10143000FE0EDBCF13F011501318E8AE02D01334B8
:1014400004D01250105C135011581DE2020EDB6ADA
:10145000030EDB6A020EDBCF10F0030EDBCF11F0C0
:10146000D890115004E6EE0E105C000E115806E202
:10147000020EDB2A030EEEE3DB2AECD7DF2A010E95
:10148000D0E3DB2ACED7040EE15C02E2E16AE5524A
:10149000E16EE552E7CFD9FF1200D9CFE6FFE1CFE9
:1014A000D9FF040EE126DE6ADD6ADECF10F0DDCF63
:1014B00011F0D890115004E6040E105C000E115883
:1014C00075E2DECFE9FFDDCFEAFF200EE926010E4F
:1014D000EA22EF1C826E020EDB6A030EDB6A020E4A
:1014E000DBCF10F0030EDBCF11F0D890115004E6E3
:1014F000040E105C000E11584AE2DECF10F0DDCF72
:1015000011F0D89010361136D89010361136020EE0
:10151000DB501024E96E030EDB501120EA6ED890E8
:10152000E936EA36000EE926010EEA22EE6AED6A95
:10153000020EDBCFE9FF030EDBCFEAFF240EE92624
:10154000010EEA22EF5082141CE1DECF10F0DDCF55
:1015500011F0D89010361136D89010361136020E90
:10156000DB501024E96E030EDB501120EA6ED89098
:10157000E936EA36000EE926010EEA22010EEE6E89
:10158000ED6A020EDB2A030EAAE3DB2AA8D78250FB
:10159000816EE80EE66E030EE66E3BDFE552E55225
:1015A000DF2A010E01E281D7DB2A7FD7040EE15C3E
:1015B00002E2E16AE552E16EE552E7CFD9FF12009F
:1015C000D9CFE6FF040EE12684B005D00101002B3F
:1015D000000E012303D00101006B016B84B204D023
:1015E000022B000E032302D0026B036B84B404D0E1
:1015F000042B000E052302D0046B056B82B004D0CF
:10160000062B000E072302D0066B076B82B204D0B4
:10161000082B000E092302D0086B096B82B404D09A
:101620000A2B000E0B2302D00A6B0B6B82BA04D07C
:101630000C2B000E0D2302D00C6B0D6B81B004D06F
:101640000E2B000E0F2302D00E6B0F6B040EE15C0D
:1016500002E2E16AE552E16EE552E7CFD9FF1200FE
:10166000070E9610966E270E9410946E010E93102E
:04167000936E120063
:0C167400D9CFE6FFE1CFD9FFD59EFD0ED7
:10168000DBCF4CF1FE0EDBCF4DF1D59C1368146817
:10169000156A4CC116F04DC117F0186A1650135C4C
:1016A000106E17501458116E18501558126E0C6A9F
:1016B000010E0D6E0E6A10C007F011C008F012C0C6
:1016C00009F026EC14F00350D66E13681468156AFE
:1016D0004CC116F04DC117F0186A1650135C106E0D
:1016E00017501458116E18501558126E0C6A010ECE
:1016F0000D6E0E6A10C007F011C008F012C009F09C
:1017000026EC14F007C010F008C011F009C012F068
:101710000750D76ED59AD586F28AF294F184D58E89
:10172000E552E7CFD9FF1200D59E12001368146866
:10173000156A4CC116F04DC117F0186A1650135CAB
:10174000106E17501458116E18501558126E0C6AFE
:10175000010E0D6E0E6A10C007F011C008F012C025
:1017600009F026EC14F00350D66E13681468156A5D
:101770004CC116F04DC117F0186A1650135C106E6C
:1017800017501458116E18501558126E0C6A010E2D
:101790000D6E0E6A10C007F011C008F012C009F0FB
:1017A00026EC14F007C010F008C011F009C012F0C8
:1017B0000750D76ED58E1200D9CFE6FFE1CFD9FF03
:1017C000CD90FD0EDBCF4EF1FE0EDBCF4FF1136857
:1017D0001468156A4EC116F04FC117F0186A1650FA
:1017E000135C106E17501458116E18501558126E65
:1017F0000C6A010E0D6E0E6A10C007F011C008F0E1
:1018000012C009F026EC14F00750CF6E136814686C
:10181000156A4EC116F04FC117F0186A1650135CC6
:10182000106E17501458116E18501558126E0C6A1D
:10183000010E0D6E0E6A10C007F011C008F012C044
:1018400009F026EC14F003C010F004C011F005C03C
:1018500012F00350CE6E9D809E909F90CD8ECD8CC9
:10186000CD98CD9ACD96CD92CD80E552E7CFD9FFD8
:10187000120013681468156A4EC116F04FC117F0B4
:10188000186A1650135C106E17501458116E1850C9
:101890001558126E0C6A010E0D6E0E6A10C007F01C
:1018A00011C008F012C009F026EC14F00750CF6EFA
:1018B00013681468156A4EC116F04FC117F0186A04
:1018C0001650135C106E17501458116E185015589E
:1018D000126E0C6A010E0D6E0E6A10C007F011C078
:1018E00008F012C009F026EC14F003C010F004C098
:1018F00011F005C012F00350CE6ECD801200CD90D5
:101900001200D9CFE6FFE1CFD9FFCA94CC6AFE0E10
:10191000DB500101506F516BCB6E9D829E929F9266
:10192000CA90CA92CA84E552E7CFD9FF120050C1CB
:10193000CBFFCA841200CA941200D9CFE6FFE1CFD0
:10194000D9FFB190FD0EDBCF52F1FE0EDBCF53F18C
:1019500013681468156A52C116F053C117F0186A5B
:101960001650135C106E17501458116E18501558FD
:10197000126E0C6A010E0D6E0E6A10C007F011C0D7
:1019800008F012C009F026EC14F00750B36E13688B
:101990001468156A52C116F053C117F0186A165030
:1019A000135C106E17501458116E18501558126EA3
:1019B0000C6A010E0D6E0E6A10C007F011C008F01F
:1019C00012C009F026EC14F003C010F004C011F0AE
:1019D00005C012F00350B26EA082A192A292B18E05
:1019E000B198B19AB192B180E552E7CFD9FF120018
:1019F00013681468156A52C116F053C117F0186ABB
:101A00001650135C106E17501458116E185015585C
:101A1000126E0C6A010E0D6E0E6A10C007F011C036
:101A200008F012C009F026EC14F00350B26E1368EF
:101A30001468156A52C116F053C117F0186A16508F
:101A4000135C106E17501458116E18501558126E02
:101A50000C6A010E0D6E0E6A10C007F011C008F07E
:101A600012C009F026EC14F007C010F008C011F005
:101A700009C012F00750B36EB1801200B19012008D
:101A800001015C2B000E5D2364515C5D65515D5965
:101A900004E35C6B5D6B010E546F120001015E2B61
:101AA000000E5F2366515E5D67515F5904E35E6B14
:101AB0005F6B010E556F12000101602B000E612358
:101AC0006851605D6951615904E3606B616B010E9F
:101AD000566F12000101622B000E63236A51625D92
:101AE0006B51635904E3626B636B010E576F120015
:101AF000D9CFE6FFE1CFD9FFFD0EDBCF64F1FE0EBB
:101B0000DBCF65F101015C6B5D6B546BE552E7CF98
:101B1000D9FF1200D9CFE6FFE1CFD9FFFD0EDBCF11
:101B200066F1FE0EDBCF67F1050E0D6E0E6A66C123
:101B300008F067C109F000EC14F008C066F109C0B4
:101B400067F101015E6B5F6B556BE552E7CFD9FF23
:101B50001200D9CFE6FFE1CFD9FFFD0EDBCF6AF14E
:101B6000FE0EDBCF6BF10A0E0D6E0E6A6AC108F035
:101B70006BC109F000EC14F008C06AF109C06BF108
:101B80000101626B636B576BE552E7CFD9FF12001F
:101B9000D9CFE6FFE1CFD9FF020EE126DE6ADD6A8A
:101BA00065D8E80EE66E030EE66E19D8E552E552EA
:101BB00001013B51E66EE66A010EE66EE66AB9D9AE
:101BC000E552E552E552E55201013C51E66EE66A06
:101BD000020EE66EE66AADD9E552E552E7D7D9CFF7
:101BE000E6FFE1CFD9FF040EE126DE6ADD6ADECF33
:101BF00010F0DDCF11F0FD0EDBCF12F0FE0EDBCFCB
:101C000013F011501318E8AE02D0133404D0125060
:101C1000105C135011581DE2020EDB6A030EDB6AE2
:101C2000020EDBCF10F0030EDBCF11F0D890115075
:101C300004E6EE0E105C000E115806E2020EDB2ADE
:101C4000030EEEE3DB2AECD7DF2A010ED0E3DB2A1A
:101C5000CED7040EE15C02E2E16AE552E16EE552A4
:101C6000E7CFD9FF1200956A836A1200FCDF10ECFF
:101C700001F060EC07F0C4EC11F0BAEC02F0B1EC4A
:101C800004F0F40EE66E010EE66EA9DFE552E552B1
:101C9000570EE66E120EE66E3AEC0BF0E552E55288
:101CA000AE0EE66E240EE66EDCEC0BF0E552E5526D
:101CB000660EE66EB70EE66E9DEC0CF0E552E55250
:101CC000020EE66EE66A78EC0DF0E552E5520A0E79
:101CD000E66EE66A8AEC0DF0E552E552320EE66EEB
:101CE000E66AA9EC0DF0E552E5521200D9CFE6FF05
:101CF000E1CFD9FFFE0EDBCF11F0800E11141AE1F7
:101D0000FD0EDBCF12F0FE0EDBCF13F0133404E236
:101D100012500708000E13540DE3FD0EDBCFE9FF50
:101D2000FE0EDBCFEAFF280EE926010EEA22EF5075
:101D30008310836EE552E7CFD9FF1200D9CFE6FFBB
:101D4000E1CFD9FFFE0EDBCF11F0800E11141AE1A6
:101D5000FD0EDBCF12F0FE0EDBCF13F0133404E2E6
:101D600012500708000E13540DE3FD0EDBCFE9FF00
:101D7000FE0EDBCFEAFF280EE926010EEA22EF1C59
:101D80008314836EE552E7CFD9FF1200D9CFE6FF67
:101D9000E1CFD9FFFD0EDBCFE9FFFE0EDBCFEAFF7F
:101DA000310EE926010EEA22EF0415E1FD0EDBCF2C
:101DB000E6FFFE0EDBCFE6FFC1DFE552E552FD0E8A
:101DC000DBCFE9FFFE0EDBCFEAFF310EE926010E85
:101DD000EA22EF6A15D0FD0EDBCFE6FFFE0EDBCF69
:101DE000E6FF84DFE552E552FD0EDBCFE9FFFE0E94
:101DF000DBCFEAFF310EE926010EEA22010EEF6E7B
:101E0000E552E7CFD9FF1200D9CFE6FFE1CFD9FFE6
:101E1000020EE126DE6ADD6ADECF10F0DDCF11F0C2
:101E2000D890115004E60E0E105C000E115821E2FD
:101E3000DECFE6FFDDCFE6FF59DFE552E552F40ED7
:101E4000E66E010EE66ECBDEE552E552DECFE6FF32
:101E5000DDCFE6FF73DFE552E552F40EE66E010ECC
:101E6000E66EBDDEE552E552DF2A010ED5E3DB2A40
:101E7000D3D7020EE15C02E2E16AE552E16EE5527F
:101E8000E7CFD9FF1200D9CFE6FFE1CFD9FF020E8D
:101E9000E126DE6ADD6ADE6ADD6ADECF10F0DDCFC4
:101EA00011F0D890115004E6080E105C000E115885
:101EB00036E2FD0EDBCF12F0FE0EDBCF13F0DF506B
:101EC00012C010F013C011F005E0D8901036113692
:101ED000E804FBE1800E1016000E1116800E10189B
:101EE00007E1115005E1000EE66EE66AFFDE04D060
:101EF000000EE66EE66A22DFE552E552010EE66E5E
:101F0000E66AF4DEE552E552010EE66EE66A16DF99
:101F1000E552E552DF2A010EC0E3DB2ABED7020EEE
:101F2000E15C02E2E16AE552E16EE552E7CFD9FFFA
:101F30001200D9CFE6FFE1CFD9FFFB0EDBCFE6FFE2
:101F4000FC0EDBCFE6FF9FDFE552E552FD0EDBCF57
:101F5000E6FFFE0EDBCFE6FF96DFE552E552020E0E
:101F6000E66EE66AC3DEE552E552020EE66EE66A0A
:101F7000E5DEE552E552E552E7CFD9FF1200000E4B
:101F8000E66EE66AB3DEE552E5521200000EE66E3A
:101F9000E66AD4DEE552E5521200040EE66EE66A09
:101FA000A5DEE552E5521200040EE66EE66AC6DED4
:101FB000E552E5521200060EE66EE66A97DEE5523D
:101FC000E5521200060EE66EE66AB8DEE552E5520C
:101FD0001200010EE66EE66A89DEE552E552120055
:101FE000010EE66EE66AAADEE552E5521200050E23
:101FF000E66EE66A7BDEE552E5521200050EE66EFD
:10200000E66A9CDEE552E5521200070EE66EE66ACD
:102010006DDEE552E5521200070EE66EE66A8EDED0
:10202000E552E552120001014B29106E140E116E9B
:102030000E6E10C009F0B3EC15F005C04BF10101B4
:08204000055001E14A071200FE
:08204800D9CFE6FFE1CFD9FF7B
:10205000020EE126FE0EDB500F0BDF6EFE0EDB38AC
:102060000F0B0A0D010EF3CFDBFFDB50DF24106EE8
:10207000020EE15C02E2E16AE552E16E1050E552C7
:10208000E7CFD9FF1200D9CFE6FFE1CFD9FF020E8B
:10209000E1260A0E106E0E6EFE0EDBCF09F0B3ECD9
:1020A00015F00550DF6E0A0E106E0E6EFE0EDBCFC1
:1020B00009F0B3EC15F00950100D010EF3CFDBFF62
:1020C000DB50DF24106E020EE15C02E2E16AE552B1
:1020D000E16E1050E552E7CFD9FF12009486948844
:1020E000C79EC79CC690C692C694C686310EC86E5F
:1020F000C68A1200D9CFE6FFE1CFD9FF9E96FE0E29
:10210000DB50D00FC96E9EA6FED7E552E7CFD9FFB0
:102110001200D9CFE6FFE1CFD9FF9E96FE0EDB502D
:10212000A00FC96E9EA6FED7E552E7CFD9FF1200D9
:102130009E96C5809EA6FED712009E96C5849EA63A
:10214000FED71200D9CFE6FFE1CFD9FF9E96FE0E53
:10215000DB50C96E9EA6FED7E552E7CFD9FF12002D
:102160009E96C5869EA6FED7C95012009E96C59A19
:10217000C5889EA6FED712009E96C58AC5889EA6D3
:10218000FED71200D9CFE6FFE1CFD9FFD1DFE66A53
:10219000B1DFE5520101010E8D6FE85004E0C5503A
:1021A000400BFAE0F8D7FE0EDBCFE6FFCBDFE552BF
:1021B0000101010E8D6FE85004E0C550400BFAE0BC
:1021C000F8D7FD0EDBCFE6FF5EDFE552E66EBADF45
:1021D000E5520101010E8D6FE85004E0C550400B3F
:1021E000FAE0F8D7AADFE552E7CFD9FF1200D9CF3E
:1021F000E6FFE1CFD9FF9CDFE66A8BDFE552010104
:10220000010E8D6FE85004E0C550400BFAE0F8D79E
:10221000FE0EDBCFE6FF96DFE5520101010E8D6F6A
:10222000E85004E0C550400BFAE0F8D7FD0EDBCFD4
:1022300010F0FE0EDBCF11F00001116A1050E66EB7
:1022400081DFE5520101010E8D6FE85004E0C550B9
:10225000400BFAE0F8D7FC0EDBCFE6FF73DFE55268
:102260000101010E8D6FE85004E0C550400BFAE00B
:10227000F8D763DFE552E7CFD9FF1200D9CFE6FFE9
:10228000E1CFD9FFE65254DFE66A34DFE5520101BF
:10229000010E8D6FE85004E0C550400BFAE0F8D70E
:1022A000FE0EDBCFE6FF4EDFE5520101010E8D6F22
:1022B000E85004E0C550400BFAE0F8D739DF010ED2
:1022C000E66E18DFE5520101010E8D6FE85004E063
:1022D000C550400BFAE0F8D743DFDF6EDFCFE6FFF3
:1022E000B3DEE552DF6EDF50E552E552E7CFD9FFAE
:1022F0001200D9CFE6FFE1CFD9FFE65219DFE66A37
:1023000008DFE5520101010E8D6FE85004E0C55071
:10231000400BFAE0F8D7FE0EDBCFE6FF13DFE55205
:102320000101010E8D6FE85004E0C550400BFAE04A
:10233000F8D7FD0EDBCF10F0FE0EDBCF11F0000161
:10234000116A1050E66EFEDEE5520101010E8D6F3E
:10235000E85004E0C550400BFAE0F8D7E9DE010E82
:10236000E66ED7DEE5520101010E8D6FE85004E004
:10237000C550400BFAE0F8D7F3DEDF6EDF50E552D0
:08238000E552E7CFD9FF12007E
:08238800F28ED08EF28C1200DF
:10239000F19CF292F2881200D8CFE4FFE0CFE4FF84
:1023A000E46EDACFE4FFE2CFDAFFE9CFE4FFEACF71
:1023B000E4FFF6CFE4FFF7CFE4FFF5CFE4FFF3CF80
:1023C000E4FFF4CFE4FFFACFE4FF00EE00F0100EDC
:1023D000E80403E3EECFE4FFFBD700EE10F00A0EB3
:1023E000E80403E3EECFE4FFFBD7E652F2A407D004
:1023F00094EC0BF0F29496EC0BF040EC0DF09EA0F8
:1024000007D07FEC0CF09E9039EC0CF04EEC0DF008
:102410009EA207D09BEC0CF09E9297EC0CF05CEC2B
:102420000DF0A1A207D03EEC0DF0A192F8EC0CF05B
:102430006AEC0DF0F2B2F2929EAA03D09E9A65EC7D
:1024400013F0E55200EE19F00A0EE80403E3E5CFBD
:10245000EDFFFBD700EE0FF0100EE80403E3E5CF2D
:10246000EDFFFBD7E5CFFAFFE5CFF4FFE5CFF3FFB4
:10247000E5CFF5FFE5CFF7FFE5CFF6FFE5CFEAFFC4
:10248000E5CFE9FFE5CFDAFFE550E5CFE0FFE5CFA7
:10249000D8FF1000DACFE4FFE2CFDAFFE9CFE4FFA4
:1024A000EACFE4FFF6CFE4FFF7CFE4FFF5CFE4FF98
:1024B000F3CFE4FFF4CFE4FFFACFE4FF00EE00F047
:1024C000100EE80403E3EECFE4FFFBD700EE10F0BC
:1024D0000A0EE80403E3EECFE4FFFBD7E652F2A4D2
:1024E00007D094EC0BF0F29496EC0BF040EC0DF06E
:1024F0009EA007D07FEC0CF09E9039EC0CF04EECD7
:102500000DF09EA207D09BEC0CF09E9297EC0CF085
:102510005CEC0DF0A1A207D03EEC0DF0A192F8EC1E
:102520000CF06AEC0DF0F2B2F2929EAA03D09E9AE1
:1025300065EC13F0E55200EE19F00A0EE80403E32F
:10254000E5CFEDFFFBD700EE0FF0100EE80403E33C
:10255000E5CFEDFFFBD7E5CFFAFFE5CFF4FFE5CF01
:10256000F3FFE5CFF5FFE5CFF7FFE5CFF6FFE5CFCA
:0C257000EAFFE5CFE9FFE5CFDAFF11003C
:04257C00B06A810EB2
:10258000AF6EAC8AAC94B886AC98AB8EAB889E9A92
:102590009D8A9F9A949C948E1200D9CFE6FFE1CF3A
:1025A000D9FF040EE126DE6ADD6ADECF10F0DDCF52
:1025B00011F0FD0EDBCF12F0FE0EDBCF13F0115049
:1025C0001318E8AE02D0133404D01250105C13502C
:1025D00011581DE2020EDB6A030EDB6A020EDBCF2E
:1025E00010F0030EDBCF11F0D890115004E6EE0E80
:1025F000105C000E115806E2020EDB2A030EEEE319
:10260000DB2AECD7DF2A010ED0E3DB2ACED7040E7B
:10261000E15C02E2E16AE552E16EE552E7CFD9FF03
:102620001200D9CFE6FFE1CFD9FF9EA8FED7FE0E5C
:10263000DB50AD6E9E98E552E7CFD9FF1200D9CF9F
:10264000E6FFE1CFD9FFFD0EDBCFE9FFFE0EDBCFCA
:10265000EAFFEF5010E0FD0EDBCFE9FFFE0EDBCF0F
:10266000EAFFEF50E66EDDDFE552FD0EDB2AFE0EDF
:10267000EAE3DB2AE8D7E552E7CFD9FF1200D9CF4A
:10268000E6FFE1CFD9FFFD0EDBCFF6FFFE0EDBCF7D
:10269000F7FF0800F55015E0FD0EDBCFF6FFFE0E4C
:1026A000DBCFF7FF0800F550E66EBBDFE552FD0E0D
:1026B000DBCFF6FFDB2AFE0EDBCFF7FFE4E3DB2AFE
:0E26C000E2D7E552E7CFD9FF120067EF13F023
:0226CE00D9CF62
:1026D000E6FFE1CFD9FFE652AE50DF6EDFCFE6FF77
:1026E00011EC13F0E55201016E51050A2AE0010ACE
:1026F00021E0070A11E0010A0AE0020A02E0010AE9
:102700002AE1FF0EDF5C28E1716B020E22D0FF0E82
:10271000DF5C15E1030E1DD07151EA6A810FE96E8D
:10272000000EEA22DFCFEFFF712B7351715D14E3CE
:10273000040E0FD0FE0EDF5C02E1050E0AD0010E82
:1027400008D0FE0EDF5C04E1010E6F6F6E6B04D0EB
:10275000010E6E6F01D06E6BE552E552E7CFD9FFE7
:102760001200120001016F054AE1820EE66E2B0E87
:10277000E66EE66AE66A35EC07F0E552E552E552A8
:10278000E5520001806B010173510001805D21E27F
:102790008051EA6A810FE96E000EEA22EFCF10F055
:1027A000116A126A136A10C0E6FF11C0E6FF12C078
:1027B000E6FF13C0E6FF030E8003F350E66EE66A01
:1027C0000EEC06F0146E060EE15E14500001802B34
:1027D000DAD76EC110F0116A126A136A6EC1E6FF91
:1027E00011C0E6FF12C0E6FF13C0E6FF0F0EE66E53
:1027F000E66A0EEC06F0146E060EE15E145012004E
:10280000006A0EAE09EF14F00D6C0E1EE86A0E227F
:10281000001E09AE11EF14F0086C091EE86A0922C7
:10282000001E7FEC15F009BE21EF14F000AE000C85
:10283000086C091EE86A0922046C051EE86A052274
:10284000000C00BE18EF14F00188FF0C006A0EAEF9
:1028500031EF14F00C6C0D1E0E1EE86A0D220E22D4
:10286000001E09AE3BEF14F0076C081E091EE86A53
:1028700008220922001E46EC15F009BE4EEF14F0A6
:1028800000AE000C076C081E091EE86A0822092227
:10289000036C041E051E04220522000C00BE42EF3C
:0628A00014F00188FF0C9A
:0A28A6001E0EF66E000EF76E000E17
:1028B000F86E01010900F550846F0900F550856F2D
:1028C00003E1846701D03DD00900F5507F6F090016
:1028D000F550806F0900F550816F09000900F5502F
:1028E000E96E0900F550EA6E090009000900F5508B
:1028F000826F0900F550836F09000900F6CF86F159
:10290000F7CF87F1F8CF88F17FC1F6FF80C1F7FFDD
:1029100081C1F8FF0101825302E1835307E00900FE
:10292000F550EE6E8207F8E28307F9D786C1F6FF0D
:1029300087C1F7FF88C1F8FF01018407000E855B9E
:04294000BFD71200EB
:0C294400010E926E0E0EC16EC26A040EEF
:10295000C06EC2801200D9CFE6FFE1CFD9FF020ED0
:10296000E126DE6ADD6AC282C2B2FED7C450DE6EE4
:10297000DD6ADECF12F0DDCF13F0D89012361336B9
:10298000D89012361336060EC3CFE7FF070B04E0CC
:10299000E742E79EE806FCE1E7501224106E000EC5
:1029A000132010C0DEFFDD6EDECF61FFDDCF62FFE2
:1029B000DECF10F0DDCF11F010C0F3FF11C0F4FF37
:1029C000020EE15C02E2E16AE552E16EE552E7CF18
:0429D000D9FF120019
:0C29D40006500B02F3CF02F0F4CF03F02A
:1029E0000C02F3500326000EF420046E06500D0274
:1029F000F3500426000EF420056E06500E02F3502C
:102A0000052607500B02F3500326F4500422000E53
:102A1000052207500C02F3500426F45005220750FB
:102A20000D02F350052608500B02F3500426F45013
:102A3000052208500C02F350052609500B02F350F2
:042A40000526120055
:0C2A4400056A046A036A026A200EE76E4D
:102A5000D89006360736083609360236033604366D
:102A600005360B50025C0C5003580D5004580E50A4
:102A7000055809E30B50025E0C50035A0D50045ADE
:0C2A80000E50055A062AE72EE4D712007B
:042A8C00056A046A69
:102A9000036A180EE76ED8900736083609360336F3
:102AA000043605360C50035C0D5004580E50055882
:102AB00007E30C50035E0D50045A0E50055A072AC6
:062AC000E72EEAD7120028
:0A2AC600CA94CA90CA829B0ECB6E20
:102AD000BD98BD9ABE6ABD9CBD9EBD90BD92BD8491
:102AE000BD869494CA841200D9CFE6FFE1CFD9FF06
:0E2AF000FE0EDB50BE6EE552E7CFD9FF12009E
:022AFE00056A67
:102B0000046A100EE76ED89008360936043605368A
:102B10000D50045C0E50055805E30D50045E0E5038
:0A2B2000055A082AE72EF0D712002C
:062B2A00800EF36E00EEC8
:102B300000F00F0E01D81200EA6002D0EE6AFCD756
:0A2B4000F350E9601200EE6AFCD7C2
:062B4A001EEE00F02EEE6D
:102B500000F0F86A019C53EC14F003EC00F0C8ECB0
:062B60000DF0FBD712008E
:0A2B6600056A080EE76ED8900936E4
:102B700005360E50055C02E3056E092AE72EF7D7ED
:022B8000120041
:0E2B8200202020202020202020202020202085
:032B900020200002
:0D2B93000000000000000000000000000035
:102BA0000000000000000000000000010001000122
:032BB00000010021
:0D2BB300000000000000000505000000000B
:062BC0000000000000000F
:0A2BC6000102040810204080010005
:102BD000000000000000000000C0F9A4B09992823B
:0A2BE000F88090FF190314030000B1
:062BEA00000000000000E5
:102BF00000001010101010101010181818181818C5
:102C000018181C1C1C1C1C1C1C1C1E1E1E1E1E1E00
:102C10001E1E1F1F1F1F1F1F1F1F00000000000080
:102C200000000000000000000000000000000000A4
:102C30000000000000000000000000000000000094
:0B2C4000000000000000000000000089
:052C4B00000000D000B4
:102C500022222207250910000100000000000000C8
:062C60000000000000006E
:0A2C66000000000000000000000064
:102C70000000000000000000000000000000000054
:0E2C8000000000000000102040800102040847
:020000040030CA
:0100010002FC
:0100020003FA
:010003001EDE
:010005008179
:010006008178
:010008000FE8
:01000900C036
:01000A000FE6
:01000B00E014
:01000C000FE4
:01000D0040B2
:00000001FF
