:020000040000FA
:06000000C3EF14F0120032
:020006001200E6
:0600080026EF12F01200C9
:02000E000000F0
:020010000000EE
:06001800EAEF11F01200F6
:02001E000600DA
:100020009C2A00000001000028000000802A000037
:10003000E10000001C0000000E0000003201000082
:10004000040000001F2A0000800000006100000082
:10005000F1290000330F00002E000000BE2900002F
:08006000000F00003300000056
:08006800D7EC06F062D8E80EA7
:10007000E66E030EE66E19D8E552E5521EEC05F069
:100080000F010B51FDE00B6B0F014A2B4A51106E13
:10009000116A040E101803E1115001E14A6BC6EC1D
:1000A0000FF04DD9FDEC08F0EBD7FDEC05F0040E98
:1000B000E126DE6ADD6ADECF10F0DDCF11F04BEC19
:1000C00006F011501318E8AE02D0133404D01250C9
:1000D000105C135011581DE2020EDB6A030EDB6A3E
:1000E000020EDBCF10F0030EDBCF11F0D8901150D1
:1000F00004E6EE0E105C000E115806E2020EDB2A3A
:10010000030EEEE3DB2AECD7DF2A010ED4E3DB2A71
:10011000D2D7040EE15C02E2E16AE552E16E08EF3B
:1001200006F0956A836A080E966E846E926A936AE8
:100130001200F7DF74EC07F0BDEC0FF0E2EC11F009
:10014000FEEC07F0D5EC08F012EC06F0570EE66E68
:10015000120EE66EF1EC0DF0E552E552AE0EE66ED3
:10016000240EE66E07EC0EF0E552E552660EE66EE2
:10017000B70EE66E36EC0EF0E552E5526EEC06F088
:1001800090EC0EF0E552E5520A0EE66EE66A9CEC43
:100190000EF0E552E552320EE66EE66AB5EC0EF070
:1001A000E552E552C1EC0FF0F4EC0BF0DCEC13F08F
:1001B00007EF11F0C3EC06F00FE14BEC06F013343F
:1001C00004E212500708000E135406E3ECEC05F0AD
:1001D000EF508310836E0AD065EC06F007E1ED5016
:1001E00005E1ECEC05F0EF508410846E08EF06F0AA
:1001F000C3EC06F00FE14BEC06F0133404E21250AE
:100200000708000E135406E3ECEC05F0EF1C831412
:10021000836E0AD065EC06F007E1ED5005E1ECECE9
:1002200005F0EF1C8414846E08EF06F0FDEC05F079
:1002300002EC06F0EF0408E17EEC06F0DAEC06F0E2
:1002400002EC06F0EF6A08D07EEC06F0DFEC06F078
:1002500002EC06F0010EEF6E08EF06F0D7EC06F0A8
:10026000DECF10F0DDCF11F0D890115004E60E0E65
:10027000105C000E115815E2DECFE6FFDDCFE6FF81
:10028000DFEC06F012EC06F0DECFE6FFDDCFE6FF96
:10029000DAEC06F012EC06F0DF2A010EE1E3DB2ACD
:1002A000DFD7020EE15C02E2E16AE552E16E08EF9F
:1002B00006F0FDEC05F0FE0EDB50030A28E0010A13
:1002C00011E0030A3AE11BEC06F007E1ED5005E10D
:1002D000030EF2EC05F0040E0ED0060EF2EC05F063
:1002E000070E11D01BEC06F00AE1ED5008E1040EF8
:1002F000F2EC05F0030EE2EC05F0050E1CD0070E43
:10030000F2EC05F0060EE2EC05F0080E14D01BEC42
:1003100006F00AE1ED5008E1050EF2EC05F0040EDE
:10032000E2EC05F0030E07D0080EF2EC05F0070E24
:10033000E2EC05F0060EE2EC05F008EF06F07EDADE
:100340000F015651535D0AE15551525D07E1545179
:10035000515D04E1020E466F010E606F5951535D0D
:1003600009E15851525D06E15751515D03E1030E19
:10037000466F606B4651040A01E167D1070A01E14B
:10038000DAD0010A11E0030A01E06BD1D5EC08F0E4
:10039000090EE66E270EABEC06F0BFD965D9000951
:1003A00001E161D128EF06F0D5EC08F0F80EE66E19
:1003B000260EABEC06F057CFE6FF58CFE6FF59CF3D
:1003C000E6FF52EC06F0E8AE02D0E73402D0E75088
:1003D0005C5D10E235EC06F0080EE4EC06F03FEC54
:1003E00006F010AE03D011681268136891EC06F0A5
:1003F000090E0AD03FEC06F010AE03D01168126867
:10040000136891EC06F0080E24EC06F0BEEC06F042
:100410000A0EE66EE66AB9DB0A0E0F01E76E5B199B
:10042000E8AE02D0E73402D0E7505B5D10E235EC75
:1004300006F00B0EE4EC06F043EC06F010AE03D031
:1004400011681268136891EC06F00C0E0AD043ECA8
:1004500006F010AE03D011681268136891EC06F034
:100460000B0E24EC06F0BEEC06F00D0EE66EE66A0E
:100470008CDB0A0E0F01E76E5A19E8AE02D0E734A2
:1004800002D0E7505A5D10E235EC06F00E0EE4ECB7
:1004900006F047EC06F010AE03D01168126813683E
:1004A00091EC06F00F0E0AD047EC06F010AE03D028
:1004B00011681268136891EC06F00E0EC5DBE50EAC
:1004C000E66E260ECAEC06F0E20EE66E260ECAECCA
:1004D00006F00EEC07F0F3EC06F0020E51DBDF0E37
:1004E000E66E260EE66E060E99EC06F014EC07F0AA
:1004F000F3EC06F0080E44DBDC0EE66E260EE66E2C
:100500000C0E99EC06F01AEC07F0F3EC06F00E0E68
:1005100037DB0BD9A9D8000903E00F01030E466FA2
:100520000101010E001906E1015101E09CD00F010B
:10053000010E466F1200D5EC08F0CB0EE66E260ECB
:10054000ABEC06F00F01605101E074D054CFE6FF30
:1005500055CFE6FF56CFE6FFA5DBE8AE02D0E73485
:1005600002D0E7505C5D0EE280DBE66AE8EC06F064
:1005700086DB10AE03D0116812681368D2DB010E5F
:10058000E66E09D07CDB10AE03D0116812681368E8
:10059000C8DBE66A010EE66EE3DBBEEC06F0020E97
:1005A000C8DB0A0E0F01E76E5B19E8AE02D0E73434
:1005B00002D0E7505B5D0EE258DB030EE66EE8EC1E
:1005C00006F061DB10AE03D0116812681368A9DB76
:1005D000040E08D058DB10AE03D0116812681368FF
:1005E000A0DB030ECDDACADB050EA3DB0A0E0F017A
:1005F000E76E5A19E8AE02D0E73402D0E7505A5DF0
:100600000DE233DB060EE66EE3DB41DB10AE03D01A
:1006100011681268136885DB070E08D038DB10AE4E
:1006200003D01168126813687CDB060EA9DAB1DA10
:100630000E0E02D0AEDA080EA3DA85D815D800095E
:1006400012E00F01040E466F1200D5EC08F0BA0E4E
:10065000E66E260E80DB8EDB88D806D8000903E024
:10066000F7D2020E466F12000101010E081903E1D4
:10067000095101E1010C000C0101010E041909E10D
:10068000055107E10F014B2B4B51630801E24B6B06
:10069000B1D3000C0101010E02190AE1035108E176
:1006A0000F014B074B51000802E3630E4B6FA2D3BF
:1006B000000C7DDB0F014651040A0BE0070A18E12C
:1006C0000101010E001914E1015112E14BCF4DFF60
:1006D00008D00101010E00190BE1015109E14BCFD6
:1006E0004EFF0F014D514E254C6F010EDE6EDD6A3F
:1006F000D9CFE9FFDACFEAFF010EEE1804E1ED50A1
:1007000002E1010E01D0000E106E020EE15C02E269
:10071000E16AE552E16E10507BD2E8DA5DDB010E52
:100720003FDA0F01020E326F12000F01010E326F1D
:100730002FD859D850CFE6FF4FCFE6FF3CEC0FF053
:10074000E552E55212000F01326B0F014A5104E1EC
:10075000CDDA020E41DB24DAD8DA06E1115004E1E9
:10076000040E30DA070E2EDABDD20F01326B0F0104
:100770004A5105E1BBDA030E2FDB030E11DAC5DAAD
:1007800006E1115004E1050E1DDA080E1BDAAAD2AB
:100790000F014751020A1BE0010A0DE0020A01E0C5
:1007A0001200A4DAD4DA1EE14F074F511BE14ECFFD
:1007B0004FFF030E0AD09ADA030EC9DA13E14F078E
:1007C0004F5110E14DCF4FFF020E476F12008EDAEE
:1007D000020EBDDA07E14F074F5104E14CCF4FFF46
:1007E000010E476F12000F014851030A1BE0010A76
:1007F0000EE0030A01E0120071DA010EA8DA1DE131
:10080000500750511AE14ECF50FF030E09D066DA5F
:100810009EDA13E15007505110E14CCF50FF010E0A
:10082000486F12005BDA030E92DA07E1500750516D
:1008300004E14DCF50FF020E486F1200DED9040EC6
:10084000E126E5EC13F0F3CFDEFFF4CFDDFFDECFE2
:1008500006F0DDCF07F0086A096A07AE02D0086823
:100860000968100E0B6E270E0C6E0D6A0E6A24ECD2
:1008700014F002C006F003C007F004C008F005C081
:1008800009F00B68030E0C6E0D6A0E6A02EC13F091
:10089000020E06C0DBFF030E07C0DBFF43D84EDAB3
:1008A0000F014651040A12E0070A0CE0020A06E0B2
:1008B000030A10E1AB0EE66E260E0BD0A10EE66E1B
:1008C000260E07D0950EE66E260E03D08A0EE66E33
:1008D000260E6AD933DA850EE66E260E65D99EDAC3
:1008E000AFDA7E0EE66E260E5FD9A4DAA9DA760EAE
:1008F000E66E260E59D998DAA3DA020EDBCFE6FFB0
:10090000030EDBCFE6FF3FEC0DF0E552E552720E31
:10091000E66E260E49D9040EE15C02E2E16AE55278
:10092000E16E76D1E66A91EC11F0E5520F01516F5C
:10093000010EA0D90F01526F020E9CD90F01536F07
:10094000040E98D90F015D6F050E94D90F015E6FEB
:10095000060E90D90F015F6FCDD95DCF09F036D962
:1009600010AE03D0116812681368DFD95DCF09F0AB
:1009700021D910AE03D011681268136843DA5ECF34
:1009800009F024D910AE03D0116812681368CDD9CC
:100990005ECF09F00FD910AE03D01168126813684A
:1009A00031DA5FCF09F012D910AE03D011681268A6
:1009B0001368BBD95FCF09F0FDD810AE03D0116822
:1009C00012681368B2D96E0EE66E260ED0D953CFD8
:1009D00009F0FCD810AE03D0116812681368A5D9CD
:1009E00053CF09F0E7D810AE03D01168126813682E
:1009F0000FDA52CF09F0EAD810AE03D011681268AE
:100A0000136893D952CF09F0D5D810AE03D011682E
:100A100012681368FDD951CF09F0D8D810AE03D0B1
:100A200011681268136881D951CF09F0C3D810AE8C
:100A300003D011681268136895EF06F0200E1AD9DA
:100A4000220805E005D8220EE66E200EE5D8120039
:100A50000F01010E516F526F080E536F060E5D6F3E
:100A6000010E5E6F160E5F6F51CFE6FFE66A87ECF0
:100A700011F0E552E55252CFE6FF010ECDD853CF2B
:100A8000E6FF020EC9D85DCFE6FF040EC5D85ECFE3
:100A9000E6FF050EC1D85FCFE6FF060E0CEF06F0AD
:100AA000ACD8FC0EDBCF10F00F015151E76E1018DF
:100AB000E8AE02D0E73402D0E750105C1DE2FC0E35
:100AC000DB503C0FE76EFC0EE7CFDBFFFD0EDB04D7
:100AD000E76EFD0EE7CFDBFFDBCF10F010340CE349
:100AE0003B0EF36EFD0EF3CFDBFFE5D805E3170EEB
:100AF000F36EFE0EF3CFDBFFFC0EDB50D8805155BA
:100B00005A6FFD0EDBCF10F05251E76E1018E8AEB1
:100B100002D0E73402D0E750105C0EE2FD0EDB504D
:100B20003C0FE76EFD0EE7CFDBFFC5D805E3170EE0
:100B3000F36EFE0EF3CFDBFFFD0EDB50D880525577
:100B40005B6FFE0EDBCF10F05351E76E1018E8AE6E
:100B500002D0E73402D0E750105C07E2FE0EDB5013
:100B6000180FE76EFE0EE7CFDBFFFE0EDB50D880DE
:100B700053555C6F4DD037D9B8EC0CF0E5522FD1FE
:100B8000E66E010EE66EB0EF06F0CCEC09F0E55231
:100B900026D14BCF10F0D7D84BCFE6FFF3EF06F0BE
:100BA000E66E59EC01F01BD1E66E50EC0CF0E5520C
:100BB000E55212000A0E0E6E95EC12F005C010F010
:100BC000A3EF06F0E66EE66ADAEF06F095EC12F0B7
:100BD00009C010F0A3EF06F0E3D8330EE9260F0E9C
:100BE000EA221200E66EE66ADFEF06F07EEC09F01C
:100BF000106E060EE15E10501200D9CFE6FFE1CF75
:100C0000D9FF1200CDD83C0EE9260F0EEA221200C1
:100C1000E552E7CFD9FF1200E66E87EC11F0E552FE
:100C2000E5521200F40EE66E010EE66E55EC00F091
:100C3000E552E5521200D950FC0FE96EFF0EDA20A2
:100C4000EA6E010EEE181200E66EE66AB0EF06F0EC
:100C50000F01020E466F010E476F030E486F4A6B7D
:100C60004CCF4FFF4ECF50FF1200E66AE66AE66AAD
:100C7000E66A1200E66E91EC11F0E55212005CCFCC
:100C800010F0A3EF06F05BCF10F0A3EF06F05ACF01
:100C900010F0A3EF06F0FD0EDBCF12F0FE0EDBCF5F
:100CA00013F01200FDDEE552E552E5520A0E0F0187
:100CB000E76E5C191200FE0EDB04E76EFE0EE7CF56
:100CC000DBFFDBCF10F010341200D950FD0FE96EBE
:100CD000FF0EDA20EA6E080EEE181200020EE66E23
:100CE000E66A1200C9DCD6DC59EF03F0010EE66EAD
:100CF000E66A12000A0E146E0E6E1200FD0EDBCFB5
:100D0000E6FFFE0EDBCFE6FF12000F014A51106E28
:100D1000116A020E10181200020EE126DE6ADD6A68
:100D2000120010C0E6FFF3EF06F010C0E6FFBBEFC5
:100D300005F0E66E010EE66EC5EF05F0B70EE66E45
:100D4000260ED4EF05F0116A126A136A120028DF2A
:100D50000F014A511200E66EE66AE66AC5EF05F039
:100D60007EEC09F0146E060EE15E145012001CDFDA
:100D70007AEF06F00EDF0A0EC0EF05F0F60EE66E13
:100D8000260EE66E120039DFFE0EDBCF11F0800E6C
:100D900011141200E66EE66A010EE66EC5EF05F06C
:100DA000FD0EDBCFE9FFFE0EDBCFEAFF120025DFF1
:100DB0008CEF06F0F8EC00F0E552E5521200DAECA8
:100DC00000F0E552E5521200E66EE66AF6EF05F035
:100DD000010EE66EF6EF05F0E3DE6EEF06F0E5528B
:100DE000E552E552120011C0E6FF12C0E6FF13C043
:100DF000E6FF1200B70EE66E260EE66E0A0E99DFCB
:100E0000B9DF010C92DF700EE66E260EB7EF06F02A
:100E10008CDFF60EE66E260EB7EF06F04CCF10F024
:100E200092DF4CCFE6FF12004DCF10F08CDF4DCF9C
:100E3000E6FF12004ECF10F086DF4ECFE6FF120025
:060E40009ADE9EEF06F0B1
:0A0E4600BDEC0BF0E3DB11AE02D0AF
:100E5000126813688CDB13E2F1DBB1DB04E6050EEC
:100E6000105C000E115806E2020EDB2A030EF5E3B9
:100E7000DB2AF3D7DF2A010EE8E3DB2AE6D7040EEC
:100E8000E15C02E2E16AE552E16E1FD3BDEC0BF0DA
:100E9000C0DB11AE02D01268136869DB13E2CEDB4F
:100EA0008EDB04E6EE0E105C000E115806E2020E18
:100EB000DB2A030EF5E3DB2AF3D7DF2A010EE8E392
:100EC000DB2AE6D7040EE15C02E2E16AE552E16E5C
:100ED000FCD2C3EC0BF0F00B6FEC0BF0FE0EDB382A
:100EE000F00B8112CDDAF1D2BAEC0BF0190EC2DBA5
:100EF0000F0E8116F80E81160F0E8116300EEFDBE5
:100F0000300EEDDB300EEBDB818ABADA280EE66EAE
:100F1000E0DFE5520C0EE66EDCDFE552E552D5D29D
:100F2000B0EC0BF0010EDB6A8194DEDBE76E010EA4
:100F3000E7CFDBFF8196D8DBDF6E010EDB50DF12DF
:100F40008196010EA4DADF50106E020EE15C02E21F
:100F5000E16AE552E16E1050B8D2BAEC0BF0DF6AEC
:100F6000DFDFDF6EDFBEFCD7DF50E552AED2C3EC71
:100F70000BF081128186050E8ADA8196050E87DADA
:100F8000A4D29EDA8194050E82DAFDDA9ED298DA36
:100F90008184050E7CDAF7DA819497D2CDD3CCD355
:100FA0008FDAFD0EDBCFF6FFFE0EDBCFF7FF08007A
:100FB000F5500DE0FD0EDBCFF6FFDB2AFE0EDBCF9A
:100FC000F7FF01E3DB2A0800F550ADDBEAD77DD25D
:100FD000D1DBFD0EDB500F0B106EFE0EDB50010B54
:100FE000400DF3501024DF6E7F0EDF14800FDF6E94
:100FF000DFCFE6FFC6DFE552E55267D2010EE66EAF
:10100000C0DFE552E66AE66AC9EF0BF059DA050E71
:10101000E126010EF36EDB6E11DB040EDB6ADF6A84
:10102000DFCF10F0116A10BE1168FADA11501318F0
:10103000E8AE02D0133404D01250105C1350115893
:101040001FE2FD0EDBCF10F0FE0EDBCF11F0126AB7
:10105000136A11AE02D012681368D950010FE96EFD
:10106000DACFEAFF10C00BF011C00CF012C00DF087
:1010700013C00EF096DB24EC14F069DBDF2AD0D726
:10108000010EDBCF10F0020EDBCF11F0030EDBCF31
:1010900012F0040EDBCF13F004DB050EE15C02E27C
:1010A000E16AE552E16E11D25BDBFB0EDBCF10F0A3
:1010B000FC0EDBCF11F0FD0EDBCF12F0FE0EDBCF0E
:1010C00013F0105011101210131003E1300E2BDB2F
:1010D00036D0D950FB0F7CDA01E680DA05E22D0E1E
:1010E00022DBD950FB0F36DADE52070EDD6E9FDAB7
:1010F000E8AE02D0103403D0E750D88010541FE27D
:101100007FDA14BE1568CAD9ACDAF7DA70DA0BE008
:10111000010EDF6EDB04186E196A18BE1968EFD96C
:10112000ECDA0BDA03D0DF5002E0300EFCDA68DADA
:1011300014BE1568B3D9D950FB0FD8D9D8D7020E31
:10114000E15C02E2E16AE552E16EBFD1B9D931DA80
:10115000D950F90FECDAEECFE6FFEECFE6FFEECF97
:10116000E6FFEFCFE6FFA0DF25DBAFD1A9D921DA7B
:10117000FB0EDBCFE6FFFC0EDBCFE6FF11DFE55217
:10118000E552A3D19DD97BCF10F07CCF11F0040E96
:10119000D89010361136E806FBE1FFD9FE0EDBCF02
:1011A000EFFF7D2B000E7E2390D1E4DADF6ADFCFE4
:1011B00010F0100EE76E1018E8AE02D0E73402D03F
:1011C000E750105C18E2DFCFE9FFEA6AE9BEEA689F
:1011D000C10EE926000EEA22200EEF6EDFCFE9FFF6
:1011E000EA6AE9BEEA68D10EE926000EEA22200E7C
:1011F000EF6EDF2ADCD7E55268D1BCDA0001C051BE
:10120000030A29E0010A1CE0030A0CE0010A32E1AA
:10121000C4DA080EDF5C03E2DF5055DAFAD70001CA
:10122000010E17D0080EE66EE66A78D9080EDF5C6C
:1012300004E2080EDF2447DAF9D70001020E09D0D4
:1012400094DA080EDF5C03E2DF5043DAFAD70001DC
:10125000030EC06F10D0080EE66E010EE66E5ED96A
:10126000080EDF5C04E2080EDF2433DAF9D7000150
:10127000C06B01D0C06BE55228D17CDA0001C051AF
:10128000010A0DE0010A15E188DA100EDF5C03E2C5
:10129000DF5019DAFAD70001010EC06F0BD065DA02
:1012A000100EDF5C03E2DF5014DAFAD70001C06BE6
:1012B00001D0C06BE55209D15DDA6FDA100EDF5C48
:1012C00003E2DF5000DAFAD750DA100EDF5C03E2F7
:1012D000DF50FFD9FAD7E552F8D0F2D822D97BCF28
:1012E00010F07CCF11F0040ED89010361136E806BD
:1012F000FBE153D9FC0EDBCFEFFFE7D031DA11D998
:10130000F90EDBCF10F0FA0EDBCF11F089D91050B7
:1013100011101210131003E1300E77D936D0D950C6
:10132000F90F56D901E65AD905E22D0E6ED9D950DA
:10133000F90F10D9DE52070EDD6E79D9E8AE02D072
:10134000103403D0E750D88010541FE259D914BE8E
:101350001568A4D886D9DCD94AD90BE0010EDF6E16
:10136000DB04186E196A18BE1968C9D8D1D9E5D836
:1013700003D0DF5002E0300E48D942D914BE1568C0
:101380008DD8D950F90FB2D8D8D7020EE15C02E25D
:10139000E16AE552E16E99D093D8C3D8FB0EDBCF5A
:1013A000F6FFFC0EDBCFF7FF0800F5500DE0FB0E5B
:1013B000DBCFF6FFDB2AFC0EDBCFF7FF01E3DB2AF6
:1013C0000800F55022D9EAD780D07AD8050EE12658
:1013D00002DAF90EDBCFEEFFFA0EDBCFEEFFFB0EEB
:1013E000DBCFEEFFFC0EDBCFEEFF2DD9E80E0B6E50
:1013F000030E0C6E5AD8FD0EDBCFE6FF6AD8640EE2
:101400000B6E0C6A52D8FD0EDB28E66E26D9640EF0
:101410000B6E0C6A37D96C0EE66E260EE66EFD0E6C
:10142000DB50020FE66EDCD9B7DFC4D90CD90A0E47
:101430000B6E0C6A3AD8FD0EDB50030FE66E49D8EE
:101440000A0E0B6E0C6AC2D902C010F003C011F074
:1014500004C012F005C013F002C0E6FF03C0E6FFAF
:1014600004C0E6FF05C0E6FFFD0EDB50040FE66E8C
:10147000A6D9050EE15C02E2E16AE552E16E25D0F3
:101480008186010EF7D88196010E3AEF0BF0E66ED9
:10149000E66AE66AE66AD7DCDAEF0BF014C0E6FF2C
:1014A00015C0E6FF4ED95AEF0BF090D903D906C00C
:1014B000E6FF07C0E6FF08C0E6FF09C0E6FF12002E
:1014C000D9CFE6FFE1CFD9FF1200E552E7CFD9FF30
:1014D0001200C3D8E80E0B6E030E0C6ED3D823EFA8
:1014E0000BF0EA22EF501FD9DF2A120020D9B9D819
:1014F00058D95CEC14F02BD9010EDB06120018C091
:10150000E6FF19C0E6FF1DD906C014F007C015F0AC
:1015100008C016F009C017F031EF0BF03AD9DF6AB6
:101520001200FE0EDB50010B0F017B6F7C6BFD0E7A
:10153000DB500F0B7D6F7E6B1200DBCF09F05CEC94
:1015400014F0B8D8300E1026000E112212221322E9
:1015500010501200ECD8000EEE6CEF1EEE22EF1EC3
:10156000EE22EF1EEF22ED52ED52ED521200D95055
:10157000FB0FDDD8EE50105CEE501158EE501258B3
:10158000EE50135812002CD9F2DCE552FE0EDB3877
:10159000F00BE66EECDCE5521200C10E1026000ED8
:1015A000112210500F017D25E96E11507E21EA6E47
:1015B0001200FD0EDBCFE6FF13D9C9EF0BF0020ED0
:1015C000DBCF10F0030EDBCF11F0D89011501200DA
:1015D000AED8D890030EEB50000A1200000EEE5C5D
:1015E000000EEE58000EEE58000EEE581200DBCF43
:1015F00009F05CEC14F006500710081009101200F6
:10160000010EDB04146E156A1200E66EBBDDE552B6
:101610001200DECF10F0DDCF11F0126A136A120053
:10162000FB0EDBCF12F0FC0EDBCF13F01200010E2D
:10163000DBCF10F0000EE76E10181200020EDB6A0E
:10164000030EDB6A1200C7D8EECF10F0EECF11F018
:10165000EECF12F0EFCF13F01200B1D8BCD8D1EF1B
:101660000BF006C00BF007C00CF008C00DF009C06D
:101670000EF01200E66EE66AE66AE66A46EC07F0ED
:10168000DAEF0BF00D6A0E6A02EC13F002C0DEFF17
:1016900003C0DEFF04C0DEFF05C0DDFFDD52DD520A
:1016A000120010C006F011C007F012C008F013C0FD
:1016B00009F0120006C010F007C011F008C012F0C7
:1016C00009C013F01200EA6AC10FE96E000E71EF53
:1016D0000AF0EA6AD10FE96E000E71EF0AF081128A
:1016E000CFDE0F0E811612000F0ED1DE0F0E81120B
:1016F0008186CDDE0F0E81141200FB0EDBCF06F0CB
:10170000FC0EDBCF07F0FD0EDBCF08F0FE0E120063
:10171000F90EDBCF06F0FA0EDBCF07F0FB0EDBCFC6
:1017200008F0FC0E1200E66E3ADCE5521200E96E9B
:10173000FF0EDA20EA6E1200C3DE52D828DCE55232
:10174000C4D60A0EE66EE66A61DCDAEF0BF005C07D
:10175000EDFF04C0EDFF03C0EDFF02C0EFFF12007C
:10176000AFDE020EE126DF6A1200E66A010EE66EC7
:101770008EEF0AF0A5DEE6521200A2DE040EE1268C
:10178000DE6ADD6A12009CDE0F0E8116FE0EDB5053
:1017900012001EDCE552E5521200E66AE66A8EEFA0
:1017A0000AF0EECF06F0EECF07F0EECF08F0EFCF65
:1017B00009F01200E552E552E552E552120010D848
:1017C0009DDD146E060EE15E145012000D6A0E6A65
:1017D00068DF02EF13F0D9CFE9FFDACFEAFF12009A
:0817E000FE0EDBCFE6FF120054
:0817E800B06A810EAF6EAC8AFD
:1017F000AC94B886AC98AB8EAB889E9A9D8A9F9A23
:10180000949C948E120075D9040EE126DE6ADD6A7E
:10181000DECF10F0DDCF11F0BBD911501318E8AEB8
:1018200002D0133404D01250105C135011581DE232
:10183000020EDB6A030EDB6A020EDBCF10F0030E32
:10184000DBCF11F0D890115004E6EE0E105C000EC4
:10185000115806E2020EDB2A030EEEE3DB2AECD778
:10186000DF2A010ED5E3DB2AD3D7040EE15C02E2C6
:10187000E16AE552E16E42D13CD99EA8FED7FE0E48
:10188000DB50AD6E9E983AD134D97AD908E078D938
:1018900051D9FD0EDB2AFE0EF8E3DB2AF6D72ED156
:1018A00028D953D90CE051D945D9FD0EDBCFF6FF2D
:1018B000DB2AFE0EDBCFF7FFF4E3DB2AF2D71ED1E3
:1018C00018D9050EE126010EF36EDB6E020EDB6AFF
:1018D000030EDB6A040EDB6ADF6ADFCF10F0116AE9
:1018E00010BE1168FB0EDBCF12F0FC0EDBCF13F045
:1018F00011501318E8AE02D0133404D01250105C0B
:10190000135011581AE266D9126A136A11AE02D046
:1019100012681368D950010FE96EDACFEAFF10C0E0
:101920000BF011C00CF012C00DF013C00EF016D960
:1019300024EC14F01CD9DF2AD0D7010EDBCF10F035
:10194000020EDBCF11F0030EDBCF12F0040EDBCF63
:1019500013F010C006F011C007F012C008F013C059
:1019600009F0050EE15C02E2E16AE552E16EC6D0E3
:10197000C0D8020EE126DF6AFB0EDBCF10F0FC0EB2
:10198000DBCF11F005D9105011101210131003E124
:10199000300ED0D86DD0D2D8D890030EEB50000ABC
:1019A00008E6000EEE5C000EEE58000EEE58000E3B
:1019B000EE580EE22D0EBED8C1D8000EEE6CEF1E12
:1019C000EE22EF1EEE22EF1EEF22ED52ED52ED520F
:1019D000DE520A0EDD6E010EDBCF10F0000EE76E58
:1019E0001018E8AE02D0103403D0E750D88010545D
:1019F0003FE2010EDB04146E156A14BE156872D83E
:101A000062D806500710081009101EE0010EDF6EA4
:101A1000DB04186E196A18BE196818C0E6FF19C0F1
:101A2000E6FFBDD806C014F007C015F008C016F0D8
:101A300009C017F048D8BCD8300E1026000E11226D
:101A400012221322105003D0DF5002E0300E72D861
:101A5000010EDB04146E156A14BE156843D86ED8E7
:101A6000B0D87CD85CEC14F082D8010EDB06B3D77A
:101A7000020EE15C02E2E16AE552E16E3FD039D844
:101A800041D808C010F009C011F0126A136A11AEF3
:101A900002D01268136840D82E0E4CD833D804C038
:101AA00010F005C011F0126A136A11AE02D012686C
:101AB000136832D823D01DD8E652AE50DF6EDFCF88
:101AC0007FFFE5521BD07DD8FB0EDBCF06F0FC0E6E
:101AD000DBCF07F0FD0EDBCF08F0FE0EDBCF09F009
:101AE0005CEF14F014C0E6FF15C0E6FF58D8D8EF3D
:101AF0000DF0D9CFE6FFE1CFD9FF1200E552E7CFD5
:101B0000D9FF120067D8640E0D6E0E6A10C008F07F
:101B100011C009F0AFEF12F010C0E6FF11C0E6FFF0
:101B200012C0E6FF13C0E6FF23DFE552E552E5529F
:101B3000E5521200E66EA0DEE5521200D950FB0F0E
:101B4000E96EFF0EDA20EA6E1200FD0EDBCFF6FF23
:101B5000FE0EDBCFF7FF0800F5501200EECF06F0C7
:101B6000EECF07F0EECF08F0EFCF09F0120005C07E
:101B7000EDFF04C0EDFF03C0EDFF02C0EFFF120058
:101B8000FD0EDBCFE9FFFE0EDBCFEAFFEF501200C8
:101B9000FD0EDBCF12F0FE0EDBCF13F012000A0EAB
:101BA000E66EE66A8DDEE552E552E552E552120038
:101BB00006C010F007C011F008C012F009C013F001
:101BC000120006C00BF007C00CF008C00DF009C0F1
:101BD0000EF01200FD0EDBCF10F0FE0EDBCF11F089
:021BE0001200F1
:0E1BE2006ED9D59EFD0EDBCF00FFFE0EDBCFD1
:101BF00001FFD59C9FD9D59AD586F28AF294F184BB
:101C0000D58E63D1D59E120095D9D58E120058D9A4
:101C1000CD90FD0EDBCF02FFFE0EDBCF03FF91D98F
:101C20009D809E909F90CD8ECD8CCD98CD9ACD9657
:101C3000CD92CD804AD185D9CD801200CD901200B1
:101C40003FD9CA94CC6AFE0EDB500F01046F056BBE
:101C5000CB6E9D829E929F92CA90CA92CA8435D1C1
:101C600004CFCBFFCA841200CA94120029D9B190C4
:101C7000FD0EDBCF06FFFE0EDBCF07FF69D9075055
:101C8000B36E66D93FD9B26EA082A192A292B18EF4
:101C9000B198B19AB192B18018D15AD90350B26EAD
:101CA00057D928D9B36EB1801200B19012000F013C
:101CB000102B000E11231851105D1951115905E315
:101CC000106B116B010E086FA8D812000F01122BB8
:101CD000000E13231A51125D1B51135904E3126BAA
:101CE000136B010E096F12000F01142B000E152348
:101CF0001C51145D1D51155904E3146B156B010E35
:101D00000A6F12000F01162B000E17231E51165DCD
:101D10001F51175904E3166B176B010E0B6F12005E
:101D2000CFD8FD0EDBCF18FFFE0EDBCF19FF0F0162
:101D3000106B116B086BC9D0C3D8FD0EDBCF1AFF37
:101D4000FE0EDBCF1BFF050E0D6E0E6A1ACF08F0DC
:101D50001BCF09F0AFEC12F008C01AFF09C01BFF3F
:101D60000F01126B136B096BB0D0AAD8FD0EDBCF3D
:101D70001EFFFE0EDBCF1FFF0A0E0D6E0E6A1ECF7A
:101D800008F01FCF09F0AFEC12F008C01EFF09C029
:101D90001FFF0F01166B176B0B6B97D091D8020EBC
:101DA000E126DE6ADD6ADE6ADD6ADECF10F0DDCFB5
:101DB00011F0D890115004E6080E105C000E115876
:101DC00017E2FE0EDB50DF5206E0DFCFF3FFE846FE
:101DD000FE0BF306FCE1800B800802E1838001D05A
:101DE000839083828392DF2A010EDFE3DB2ADDD733
:101DF000020EE15C02E2E16AE552E16E66D060D873
:101E0000FD0EDBCFE6FFCADFE552FE0EDBCFE6FFBD
:101E1000C5DFE5528384839458D052D8E652DF6AF6
:101E20000F013251020A1EE0020A16E0010A22E105
:101E3000DF6A040EDF5C1EE2DF50EA6A2E0FE96EF5
:101E40000F0EEA22EF50EA6A200FE96E0F0EEA2227
:101E5000EF50E66E3ED8EDD7E66AE66AD0DFE5528F
:101E6000E55208D0DF6A040EDF5C04E228CFE6FF0B
:101E700030D8F9D7E55229D023D84CD809C02EFF45
:101E800049D805C02FFF4ED809C030FF4BD805C038
:101E900031FF1BD0186A1650135C106E175014587F
:101EA000116E18501558126E0C6A010E0D6E0E6AE6
:101EB00010C007F011C008F012C009F0D5EF12F001
:101EC000D9CFE6FFE1CFD9FF1200E552E7CFD9FF26
:101ED0001200DF50EA6A2A0FE96E0F0EEA22EF5075
:101EE000E66E8DDFE552E552DF2A120013681468B2
:101EF000156A120007C010F008C011F009C012F0F6
:101F00000750120003C010F004C011F005C012F019
:101F1000035012000A0E106E0E6EFE0EDBCF09F09B
:101F2000D1EF14F00A0E106E0E6EFD0EDBCF09F02D
:101F3000D1EF14F014D80350D66E11D8DBDFD76E72
:101F4000120014D80750CF6E11D8DCDFCE6E12000D
:101F5000CDDF06CF16F007CF17F04AEF0FF0C6DF40
:101F600000CF16F001CF17F04AEF0FF0BFDF02CF1E
:0A1F700016F003CF17F04AEF0FF050
:061F7A000F0E946E826858
:101F80001200CF0E9414946E82681200C0D8E0D86C
:101F900001E6E2D816E2CDD8E4D8C2D801E6DCD812
:101FA0000BE2A8D802E1E3D801D001D9020EDB2A66
:101FB000030EF3E3DB2AF1D7DF2A010EE8E3DB2A85
:101FC000E6D7040EE15C02E2E16AE552BCD09FD89C
:101FD000BFD804E6020E105C000E11581AE2A9D810
:101FE0008214826E0F0E8210BCD89AD801E6B4D843
:101FF0000BE280D802E1BBD801D0D9D8020EDB2A8F
:10200000030EF3E3DB2AF1D7DF2A010EE1E3DB2A3B
:10201000DFD7040EE15C02E2E16AE55294D077D8A2
:10202000CAD8FD0EDBCF12F0FE0EDBCF13F011503D
:102030001318E8AE02D0133404D01250105C1350C1
:10204000115816E2020EDB6A030EDB6A69D804E659
:10205000EE0E105C000E115806E2020EDB2A030E93
:10206000F5E3DB2AF3D7DF2A010EDAE3DB2AD8D740
:10207000040EE15C02E2E16AE55265D048D868D816
:1020800001E66AD821E255D86CD84AD801E664D86E
:102090000DE28DD82FD804E11DD8010EEE6EED6A49
:1020A000020EDB2A030EF1E3DB2AEFD78250816EAA
:1020B000E80EE66E030EE66EB2DFE552E552DF2A69
:1020C000010EDDE3DB2ADBD7040EE15C02E2E16A0C
:1020D000E55239D070D8D89010361136D8901036D5
:1020E0001136020EDB501024E96E030EDB50112076
:1020F000E0EF10F0020EDBCFE9FF030EDBCFEAFFCB
:10210000240EE926010EEA22EF5082141200D9CFE4
:10211000E6FFE1CFD9FF040EE126DE6ADD6A120098
:10212000020EDBCF10F0030EDBCF11F0D890115070
:102130001200DECFE9FFDDCFEAFF200EE926010E17
:10214000EA22EF1C1200E16EE552E7CFD9FF120040
:1021500032D8D89011501200040E105C000E1158A5
:102160001200826E020EDB6A030EDB6A1200DECF03
:1021700014F0DDCF15F0D89014361536D8901436FB
:102180001536020EDB501424E96E030EDB501520C9
:1021900017D8EECF12F0EFCF13F0010E1226000E7B
:1021A000132298DF12C0EEFF13C0EDFF120092DF82
:1021B000EE6AED6A1200DECF10F0DDCF11F01200F2
:1021C000EA6ED890E936EA36000EE926010EEA22D8
:0221D0001200FB
:0E21D200F0D8FE0EDB500F0BDF6EFE0EDB387A
:1021E0000F0B0A0DD6D802E2E16AE552E16E1050FB
:1021F000C3D0E0D8D7D80550DF6ED4D80950100D21
:10220000C8D802E2E16AE552E16E1050B5D094966A
:1022100094981200ACD8E652DF6AFE0EDB50DF5C09
:1022200002E2DF2AFAD7E552A7D082A8000C010CFF
:102230000001FC5102E08288828682988296010E1B
:10224000FC6F12008298828682880001FC6B12006B
:10225000B1D8DF6ADFCF10F0080EE76E1018E8AED5
:1022600002D0E73402D0E750105C0FE2FE0EDBBE76
:1022700002D0829801D0828882868296DB50020D3D
:10228000FE0EF3CFDBFFDF2AE5D794888286CDDF11
:10229000E76E010EE7CFDBFF82969498DB50106E5D
:1022A000020EE15C02E2E16AE552E16E105064D098
:1022B00081D8DF6A9488010EDB6ADBCF10F0080E4C
:1022C000E76E1018E8AE02D0E73402D0E750105C99
:1022D0000BE28286AADF106EDF50E8241010DF6E5A
:1022E0008296010EDB2AE9D79498FE0EDB5002E0BD
:1022F000828801D0829882868296DF50106E020E0C
:10230000E15C02E2E16AE552E16E105035D02FD86F
:1023100037D8FD0EDBCFE6FF6CDFE5524FD892DFFA
:102320002BD025D8E6522CD883DFD10E47D8010E0A
:10233000E66EBEDFE552DF6EDFCFE6FF4ADFE55235
:10234000DF6E80DFDF50E55217D011D8FD0EDBCFF6
:10235000E6FFFE0EDBCFE6FFDADFE552E5520CD0FA
:1023600006D8FE0EDBCFE6FFDCDFE55205D0D9CF85
:10237000E6FFE1CFD9FF1200E552E7CFD9FF120007
:1023800057DFD00E1BD8FE0EDBCFE6FF61DFE55234
:102390001200010EF3CFDBFFDB50DF24106E020EC4
:1023A000E15C12000A0E106E0E6EFE0EDBCF09F01D
:1023B000D1EF14F0DCDF020EE1261200E66E48DFFA
:0423C000E5521200D0
:0C23C400F28ED08EF28C1200F19CF2928E
:1023D000F2881200D8CFE4FFE0CFE4FFE46E68D8C3
:1023E00000EE00F0100EE80403E3EECFE4FFFBD7AD
:1023F00000EE10F00A0EE80403E3EECFE4FFFBD793
:10240000E652F2B47DD89EB082D8A1B287D8F2B29B
:10241000F2929EAA03D09E9A5BEC0DF0E55200EE7C
:1024200019F00A0EE80403E3E5CFEDFFFBD700EE59
:102430000FF0100EE80403E3E5CFEDFFFBD74DD816
:10244000E550E5CFE0FFE5CFD8FF100031D800EE32
:1024500000F0100EE80403E3EECFE4FFFBD700EE3C
:1024600010F00A0EE80403E3EECFE4FFFBD7E652D8
:10247000F2B446D89EB04BD8A1B250D8F2B2F29284
:102480009EAA03D09E9A5BEC0DF0E55200EE19F087
:102490000A0EE80403E3E5CFEDFFFBD700EE0FF0F3
:1024A000100EE80403E3E5CFEDFFFBD716D81100CB
:1024B000DACFE4FFE2CFDAFFE9CFE4FFEACFE4FFCF
:1024C000F6CFE4FFF7CFE4FFF5CFE4FFF3CFE4FF6F
:1024D000F4CFE4FFFACFE4FF1200E5CFFAFFE5CF37
:1024E000F4FFE5CFF3FFE5CFF5FFE5CFF7FFE5CF4D
:1024F000F6FFE5CFEAFFE5CFE9FFE5CFDAFF12000F
:1025000002EC0EF0F29404EC0EF057EF0EF01EEC1D
:102510000EF09E901BEC0EF066EF0EF055EC0EF0F8
:0A252000A1924DEC0EF082EF0EF0D8
:06252A00006A0EAE9BEFFB
:1025300012F00E6C001E09AEA0EF12F0096C001E26
:10254000D1EC14F009BEAAEF12F000AE000C096C39
:10255000056C000C00BEA7EF12F00188FF0C006AAA
:102560000EAEB8EF12F00D6C0E1EE86A0E22001EC1
:1025700009AEC0EF12F0086C091EE86A0922001EBD
:102580009DEC14F009BED0EF12F000AE000C086C08
:10259000091EE86A0922046C051EE86A0522000C7F
:1025A00000BEC7EF12F00188FF0C006A0EAEE0EF2C
:1025B00012F00C6C0D1E0E1EE86A0D220E22001E7B
:1025C00009AEEAEF12F0076C081E091EE86A08223D
:1025D0000922001E80EC14F009BEFDEF12F000AEDF
:1025E000000C076C081E091EE86A08220922036C09
:1025F000041E051E04220522000C00BEF1EF12F09D
:102600000188FF0C006AE86A0EAE0FEF13F00B6C46
:102610000C1E0D1E0E1E0C220D220E22001E09AED7
:102620001AEF13F0066C071E081E091E0722082267
:102630000922001E5CEC14F009BE31EF13F000AE6D
:10264000000C066C071E081E091EE86A07220822F5
:102650000922026C031E041E051E03220422052209
:0C266000000C00BE21EF13F00188FF0CFD
:04266C002E0020001C
:102670002E00250D0A0059454C4C4F573A00475241
:1026800045454E3A005245443A00475245454E5F53
:102690004D4F44450059454C4C4F575F4D4F4445B5
:1026A0000053544F505F4D4F4445004E4F524D41E3
:1026B0004C5F4D4F444500202000202020475245CC
:1026C000454E5F4D4F444520202000202020594595
:1026D0004C4C4F575F4D4F4445202000473A00591E
:1026E0003A00523A002020202020202020202020C4
:1026F0002020202020003A004E4F524D414C2020F7
:1027000030303A30303A30300020202053544F508F
:0A2710005F4D4F44452020202000BB
:06271A001E0EF66E000E1B
:10272000F76E000EF86E01010900F5502D6F0900DB
:10273000F5502E6F03E12D6701D03DD00900F55013
:10274000286F0900F550296F0900F5502A6F09001C
:102750000900F550E96E0900F550EA6E090009001C
:102760000900F5502B6F0900F5502C6F0900090086
:10277000F6CF2FF1F7CF30F1F8CF31F128C1F6FFC6
:1027800029C1F7FF2AC1F8FF01012B5302E12C53A5
:1027900007E00900F550EE6E2B07F8E22C07F9D799
:1027A0002FC1F6FF30C1F7FF31C1F8FF01012D073E
:0827B000000E2E5BBFD71200E2
:0827B800010E926E0E0EC16EBF
:1027C000C26A040EC06EC2801200D9CFE6FFE1CF0C
:1027D000D9FF020EE126DE6ADD6AC282C2B2FED7EE
:1027E000C450DE6EDD6ADECF12F0DDCF13F0D8907C
:1027F00012361336D89012361336060EC3CFE7FFC3
:10280000070B04E0E742E79EE806FCE1E7501224EC
:10281000106E000E132010C0DEFFDD6EDECF61FFF4
:10282000DDCF62FFDECF10F0DDCF11F010C0F3FF7F
:1028300011C0F4FF020EE15C02E2E16AE552E16ED2
:08284000E552E7CFD9FF1200B9
:0828480006500B02F3CF02F071
:10285000F4CF03F00C02F3500326000EF420046EB4
:1028600006500D02F3500426000EF420056E0650AB
:102870000E02F350052607500B02F3500326F450C6
:102880000422000E052207500C02F3500426F450D7
:10289000052207500D02F350052608500B02F35095
:1028A0000426F450052208500C02F3500526095066
:0828B0000B02F3500526120093
:0828B800056A046A036A026A62
:1028C000200EE76ED89006360736083609360236EF
:1028D0000336043605360B50025C0C5003580D507D
:1028E00004580E50055809E30B50025E0C50035A71
:1028F0000D50045A0E50055A062AE72EE4D712004E
:10290000056A046A036A180EE76ED890073608361F
:1029100009360336043605360C50035C0D50045856
:102920000E50055807E30C50035E0D50045A0E502C
:0A293000055A072AE72EEAD7120025
:06293A00056A046A100E9C
:10294000E76ED89008360936043605360D50045C1B
:102950000E50055805E30D50045E0E50055A082A26
:06296000E72EF0D7120083
:0A296600800EF36E00EE00F00F0E7D
:1029700001D81200EA6002D0EE6AFCD7F350E96099
:062980001200EE6AFCD714
:0A2986001EEE00F02EEE00F0F86ADD
:10299000019C8DEC13F003EC00F034EC00F0FBD75D
:0229A000120023
:0E29A200056A080EE76ED890093605360E500D
:0E29B000055C02E3056E092AE72EF7D7120038
:0229BE00000017
:1029C0000000000000000000000000000000000007
:1029D0000000000000000100010001000100C0F93A
:1029E000A4B0999282F880900102040800050003C7
:0129F00000E6
:0F29F100010204081020408001000000000000D7
:102A000000000000020103010000050203050300AD
:0F2A100000000F1B15001B150000000000000147
:012A1F0000B6
:102A2000000000000000001010101010101010180E
:102A3000181818181818181C1C1C1C1C1C1C1C1EF0
:102A40001E1E1E1E1E1E1E1F1F1F1F1F1F1F1F00BC
:102A50000000000000000000000000000000000076
:102A60000000000000000000000000000000000066
:102A70000000000000000000000000000000000056
:102A8000000000D0002222220725091000010000CA
:0C2A90000000000000000000000000003A
:042A9C000000000036
:102AA0000000000000000000000000000000000026
:102AB0000000000000000000000000001020408026
:042AC0000102040803
:020000040030CA
:0100010002FC
:0100020003FA
:010003001EDE
:010005008179
:010006008178
:010008000FE8
:01000900C036
:01000A000FE6
:01000B00E014
:01000C000FE4
:01000D0040B2
:00000001FF
