:020000040000FA
:0600000064EF1DF0120088
:020006001200E6
:06000800CBEF1AF012001C
:02000E000000F0
:020010000000EE
:0600180056EF1AF0120081
:02001E000600DA
:10002000D53B0000330F000028000000B93B000062
:10003000E10000001C0000000E000000280100008C
:1000400004000000583B0000800000006100000038
:10005000333B00005B0F000025000000003B000068
:08006000000F00003300000056
:08006800D9CFE6FFE1CFD9FF7B
:10007000040EE126DE6ADD6ADECF10F0DDCF11F07E
:10008000126A136A11AE02D012681368D950FB0FBE
:10009000E96EFF0EDA20EA6EEE50105CEE50115859
:1000A000EE501258EE5013581DE2020EDB6A030E9A
:1000B000DB6A020EDBCF10F0030EDBCF11F0D8901D
:1000C000115004E6050E105C000E115806E2020EF7
:1000D000DB2A030EEEE3DB2AECD7DF2A010ECCE3AA
:1000E000DB2ACAD7040EE15C02E2E16AE552E16E66
:1000F000E552E7CFD9FF1200D9CFE6FFE1CFD9FF14
:10010000040EE126DE6ADD6ADECF10F0DDCF11F0ED
:10011000126A136A11AE02D012681368D950FB0F2D
:10012000E96EFF0EDA20EA6EEE50105CEE501158C8
:10013000EE501258EE5013581DE2020EDB6A030E09
:10014000DB6A020EDBCF10F0030EDBCF11F0D8908C
:10015000115004E6EE0E105C000E115806E2020E7D
:10016000DB2A030EEEE3DB2AECD7DF2A010ECCE319
:10017000DB2ACAD7040EE15C02E2E16AE552E16ED5
:10018000E552E7CFD9FF1200D9CFE6FFE1CFD9FF83
:100190000F0E8116FE0EDB50F00B81128186010ED0
:1001A000E66EE66AE66AE66AA7DFE552E552E552E0
:1001B000E5528196010EE66EE66AE66AE66A9CDF23
:1001C000E552E552E552E5520F0E8116FE0EDB3880
:1001D000F00B81128186010EE66EE66AE66AE66A37
:1001E0008BDFE552E552E552E5528196010EE66E4F
:1001F000E66AE66AE66A80DFE552E552E552E552D4
:10020000E552E7CFD9FF1200D9CFE6FFE1CFD9FF02
:10021000E652190EE66EE66AE66AE66A6DDFE552B8
:10022000E552E552E5520F0E8116F80E81160F0EBB
:100230008116300E81128186010EE66EE66AE66A4C
:10024000E66A5ADFE552E552E552E5528196010E23
:10025000E66EE66AE66AE66A4FDFE552E552E55287
:10026000E5520F0E8116300E81128186010EE66E68
:10027000E66AE66AE66A40DFE552E552E552E55293
:100280008196010EE66EE66AE66AE66A35DFE552B9
:10029000E552E552E5520F0E8116300E811281862D
:1002A000010EE66EE66AE66AE66A26DFE552E55288
:1002B000E552E5528196010EE66EE66AE66AE66A66
:1002C0001BDFE552E552E552E5520F0E8116818A99
:1002D0008186010EE66EE66AE66AE66A0DDFE552A1
:1002E000E552E552E5528196010EE66EE66AE66A4F
:1002F000E66A02DFE552E552E552E552280EE66E67
:1003000043DFE5520C0EE66E3FDFE552E552E55263
:10031000E7CFD9FF1200D9CFE6FFE1CFD9FF020E18
:10032000E126DF6A010EDB6A81940F0EE66EE66A53
:10033000E66AE66A99DEE552E552E552E5520F0EAD
:1003400081128186E66EE66AE66AE66A8DDEE5522D
:10035000E552E552E5520F0E8114E76E010EE7CF2C
:10036000DBFF81960F0EE66EE66AE66AE66A7CDEE1
:10037000E552E552E552E5520F0E81128186E66E96
:10038000E66AE66AE66A70DEE552E552E552E55253
:100390000F0E8114DF6E010EDB50DF128196010E0D
:1003A000E66EE66AE66AE66A5FDEE552E552E55227
:1003B000E552DF50106E020EE15C02E2E16AE552A6
:1003C000E16E1050E552E7CFD9FF1200D9CFE6FF1A
:1003D000E1CFD9FFE652DF6A9EDFDF6EDFBEFCD7DA
:1003E000DF50E552E552E7CFD9FF1200D9CFE6FF43
:1003F000E1CFD9FF0F0E8116FE0EDB5081128186F0
:10040000050EE66EE66AE66AE66A2EDEE552E5521B
:10041000E552E5528196050EE66EE66AE66AE66A00
:1004200023DEE552E552E552E552E552E7CFD9FF2A
:100430001200D9CFE6FFE1CFD9FF8194050EE66E19
:10044000E66AE66AE66A10DEE552E552E552E552F2
:10045000FE0EDBCFE6FFCADFE552FE0EDB38F00B07
:10046000E66EC4DFE552E552E7CFD9FF1200D9CFDF
:10047000E6FFE1CFD9FF8184050EE66EE66AE66A03
:10048000E66AF2DDE552E552E552E552FE0EDBCFBB
:10049000E6FFACDFE552FE0EDB38F00BE66EA6DFC2
:1004A000E5528194E552E7CFD9FF1200D9CFE6FF9C
:1004B000E1CFD9FFFE0EDBCFE6FFD9DFE552E552F3
:1004C000E7CFD9FF1200D9CFE6FFE1CFD9FFFE0E6B
:1004D000DBCFE6FFCCDFE552E552E7CFD9FF1200D4
:1004E000D9CFE6FFE1CFD9FFFD0EDBCFF6FFFE0E41
:1004F000DBCFF7FF0800F5500FE0FD0EDBCFF6FF76
:10050000DB2AFE0EDBCFF7FF01E3DB2A0800F55004
:10051000E66ED9DFE552E8D7E552E7CFD9FF120002
:10052000D9CFE6FFE1CFD9FFE652FD0EDB500F0B2E
:10053000106EFE0EDB50010B400DF3501024DF6EE9
:100540007F0EDF14800FDF6EDFCFE6FF72DFE55234
:10055000E552E552E7CFD9FF1200010EE66E69DFE2
:10056000E552E66AE66ADCDFE552E5521200D9CFD1
:10057000E6FFE1CFD9FF050EE126010EF36EDB6E3B
:10058000020EDB6A030EDB6A040EDB6ADF6ADFCF72
:1005900010F0116A10BE1168FB0EDBCF12F0FC0EDA
:1005A000DBCF13F011501318E8AE02D0133404D08F
:1005B0001250105C135011582DE2FD0EDBCF10F0DD
:1005C000FE0EDBCF11F0126A136A11AE02D0126870
:1005D0001368D950010FE96EDACFEAFF10C00BF0B3
:1005E00011C00CF012C00DF013C00EF0EECF06F0EB
:1005F000EECF07F0EECF08F0EFCF09F0C5EC1CF01E
:1006000005C0EDFF04C0EDFF03C0EDFF02C0EFFF2A
:10061000DF2ABDD7010EDBCF10F0020EDBCF11F0C9
:10062000030EDBCF12F0040EDBCF13F010C006F088
:1006300011C007F012C008F013C009F0050EE15C0C
:1006400002E2E16AE552E16EE552E7CFD9FF12001E
:10065000D9CFE6FFE1CFD9FF020EE126DF6AFB0E1C
:10066000DBCF10F0FC0EDBCF11F0FD0EDBCF12F074
:10067000FE0EDBCF13F0105011101210131005E115
:10068000300EE66E20DFE552F4D0D950FB0FE96E54
:10069000FF0EDA20EA6ED890030EEB50000A08E64F
:1006A000000EEE5C000EEE58000EEE58000EEE58F6
:1006B00015E22D0EE66E07DFE552D950FB0FE96E0D
:1006C000FF0EDA20EA6E000EEE6CEF1EEE22EF1E39
:1006D000EE22EF1EEF22ED52ED52ED52DE52070EEA
:1006E000DD6E010EDBCF10F0000EE76E1018E8AEE5
:1006F00002D0103403D0E750D880105401E3B9D0B1
:10070000010EDB04146E156A14BE156814C0E6FFF2
:1007100015C0E6FF0A0EE66EE66A29DFE552E552ED
:10072000E552E55206C010F007C011F008C012F003
:1007300009C013F006C00BF007C00CF008C00DF0A4
:1007400009C00EF0FB0EDBCF06F0FC0EDBCF07F08E
:10075000FD0EDBCF08F0FE0EDBCF09F0FDEC1CF048
:10076000065007100810091041E0010EDF6EDB048F
:10077000186E196A18BE196818C0E6FF19C0E6FF9E
:100780000A0EE66EE66AF3DEE552E552E552E55200
:1007900006C014F007C015F008C016F009C017F025
:1007A00006C00BF007C00CF008C00DF009C00EF039
:1007B000FB0EDBCF06F0FC0EDBCF07F0FD0EDBCF30
:1007C00008F0FE0EDBCF09F0FDEC1CF006C010F0C7
:1007D00007C011F008C012F009C013F0300E102647
:1007E000000E112212221322105003D0DF5004E019
:1007F000300EE66E68DEE552010EDB04146E156AFB
:1008000014BE156814C0E6FF15C0E6FF0A0EE66EBA
:10081000E66AADDEE552E552E552E55206C010F05B
:1008200007C011F008C012F009C013F0D950FB0F37
:10083000E96EFF0EDA20EA6E06C00BF007C00CF07E
:1008400008C00DF009C00EF0EECF06F0EECF07F0B5
:10085000EECF08F0EFCF09F0FDEC1CF005C0EDFF86
:1008600004C0EDFF03C0EDFF02C0EFFF010EDB0689
:1008700038D7020EE15C02E2E16AE552E16EE55230
:10088000E7CFD9FF1200D9CFE6FFE1CFD9FFFD0EA8
:10089000DBCFE6FFFE0EDBCFE6FF42DEE552E552A0
:1008A000D950F90FE96EFF0EDA20EA6EEECFE6FFBF
:1008B000EECFE6FFEECFE6FFEFCFE6FFC9DEE55273
:1008C000E552E552E552E552E7CFD9FF1200D9CF04
:1008D000E6FFE1CFD9FFFD0EDBCFE6FFFE0EDBCF5B
:1008E000E6FF1EDEE552E552FB0EDBCFE6FFFC0E17
:1008F000DBCFE6FFF5DDE552E552E552E7CFD9FF64
:100900001200D9CFE6FFE1CFD9FF24C110F025C1F5
:1009100011F0040ED89010361136E806FBE1C10E36
:100920001026000E1122105001012625E96E1150EB
:100930002721EA6EFE0EDBCFEFFF262B000E2723CA
:10094000E552E7CFD9FF1200D9CFE6FFE1CFD9FFBB
:10095000E652DF6ADFCF10F0100EE76E1018E8AE37
:1009600002D0E73402D0E750105C18E2DFCFE9FF95
:10097000EA6AE9BEEA68C10EE926000EEA22200E04
:10098000EF6EDFCFE9FFEA6AE9BEEA68D10EE92639
:10099000000EEA22200EEF6EDF2ADCD7E552E55288
:1009A000E7CFD9FF1200D9CFE6FFE1CFD9FFE6525A
:1009B0000001C051030A52E0010A36E0030A1AE0BE
:1009C000010A67E1E66AE66AABDDE552E552DF6AF5
:1009D000080EDF5C0CE2DF50EA6AC10FE96E000E20
:1009E000EA22EF50E66E6FDDE552DF2AF1D7000113
:1009F000010E32D0080EE66EE66A92DDE552E5524F
:100A0000DF6A080EDF5C0DE2080EDF24EA6AC10F20
:100A1000E96E000EEA22EF50E66E55DDE552DF2A60
:100A2000F0D70001020E18D0E66A010EE66E78DDFE
:100A3000E552E552DF6A080EDF5C0CE2DF50EA6A3D
:100A4000D10FE96E000EEA22EF50E66E3CDDE55272
:100A5000DF2AF1D70001030EC06F1CD0080EE66E2E
:100A6000010EE66E5DDDE552E552DF6A080EDF5CE1
:100A70000DE2080EDF24EA6AD10FE96E000EEA22C9
:100A8000EF50E66E20DDE552DF2AF0D70001C06BA3
:100A900001D0C06BE552E552E7CFD9FF1200D9CFA4
:100AA000E6FFE1CFD9FFE6520001C051010A1BE089
:100AB000010A32E1E66AE66A33DDE552E552DF6AB1
:100AC000100EDF5C0CE2DF50EA6AC10FE96E000E27
:100AD000EA22EF50E66EF7DCE552DF2AF1D700019B
:100AE000010EC06F1AD0E66A010EE66E19DDE552FE
:100AF000E552DF6A100EDF5C0CE2DF50EA6AD10FCC
:100B0000E96E000EEA22EF50E66EDDDCE552DF2AE8
:100B1000F1D70001C06B01D0C06BE552E552E7CFC1
:100B2000D9FF1200D9CFE6FFE1CFD9FFE652E66A3E
:100B3000E66AF6DCE552E552DF6A100EDF5C0CE295
:100B4000DF50EA6AC10FE96E000EEA22EF50E66E4E
:100B5000BADCE552DF2AF1D7E66A010EE66EE0DC88
:100B6000E552E552DF6A100EDF5C0CE2DF50EA6A04
:100B7000D10FE96E000EEA22EF50E66EA4DCE552DA
:100B8000DF2AF1D7E552E552E7CFD9FF1200D9CFDE
:100B9000E6FFE1CFD9FFFE0EDB50010B0101246F10
:100BA000256BFD0EDB500F0B266F276B24C110F059
:100BB00025C111F0040ED89010361136E806FBE17D
:100BC000C10E1026000E1122105001012625E96EDB
:100BD00011502721EA6EFC0EDBCFEFFFE552E7CF85
:100BE000D9FF1200D9CFE6FFE1CFD9FF020EE126EF
:100BF000DF6AFE0EDB50010B0101246F256BFD0E39
:100C0000DB500F0B266F276BF90EDBCF10F0FA0EBF
:100C1000DBCF11F0FB0EDBCF12F0FC0EDBCF13F0BD
:100C2000105011101210131005E1300EE66E69DE3F
:100C3000E552F5D0D950F90FE96EFF0EDA20EA6ED1
:100C4000D890030EEB50000A08E6000EEE5C000E92
:100C5000EE58000EEE58000EEE5815E22D0EE66E20
:100C600050DEE552D950F90FE96EFF0EDA20EA6E38
:100C7000000EEE6CEF1EEE22EF1EEE22EF1EEF22B4
:100C8000ED52ED52ED52DE52070EDD6E010EDBCF5E
:100C900010F0000EE76E1018E8AE02D0103403D04A
:100CA000E750D880105401E3BAD0010EDB04146E73
:100CB000156A14BE156814C0E6FF15C0E6FF0A0EDB
:100CC000E66EE66A54DCE552E552E552E55206C0AE
:100CD00010F007C011F008C012F009C013F006C0F0
:100CE0000BF007C00CF008C00DF009C00EF0F90EB3
:100CF000DBCF06F0FA0EDBCF07F0FB0EDBCF08F000
:100D0000FC0EDBCF09F0FDEC1CF0065007100810BC
:100D1000091041E0010EDF6EDB04186E196A18BE7F
:100D2000196818C0E6FF19C0E6FF0A0EE66EE66A0B
:100D30001EDCE552E552E552E55206C014F007C04C
:100D400015F008C016F009C017F006C00BF007C078
:100D50000CF008C00DF009C00EF0F90EDBCF06F064
:100D6000FA0EDBCF07F0FB0EDBCF08F0FC0EDBCF7B
:100D700009F0FDEC1CF006C010F007C011F008C02F
:100D800012F009C013F0300E1026000E11221222AC
:100D90001322105003D0DF5004E0300EE66EB1DDB8
:100DA000E552010EDB04146E156A14BE156814C0FA
:100DB000E6FF15C0E6FF0A0EE66EE66AB7EC02F043
:100DC000E552E552E552E55206C010F007C011F0B9
:100DD00008C012F009C013F0D950F90FE96EFF0EE8
:100DE000DA20EA6E06C00BF007C00CF008C00DF068
:100DF00009C00EF0EECF06F0EECF07F0EECF08F010
:100E0000EFCF09F0FDEC1CF005C0EDFF04C0EDFFD5
:100E100003C0EDFF02C0EFFF010EDB0637D7020E65
:100E2000E15C02E2E16AE552E16EE552E7CFD9FF0B
:100E30001200D9CFE6FFE1CFD9FFFE0EDB50010B48
:100E40000101246F256BFD0EDB500F0B266F276B06
:100E5000FB0EDBCFF6FFFC0EDBCFF7FF0800F550F3
:100E60000FE0FB0EDBCFF6FFDB2AFC0EDBCFF7FF3C
:100E700001E3DB2A0800F550E66E43DDE552E8D7D2
:100E8000E552E7CFD9FF1200D9CFE6FFE1CFD9FF76
:100E9000050EE126D9CFE9FFDACFEAFFF90EDBCF65
:100EA000EEFFFA0EDBCFEEFFFB0EDBCFEEFFFC0E0C
:100EB000DBCFEEFFD9CFE9FFDACFEAFFEECF10F0BC
:100EC000EECF11F0EECF12F0EFCF13F0E80E0B6E75
:100ED000030E0C6E0D6A0E6A10C006F011C007F00A
:100EE00012C008F013C009F0A3EC1BF006C010F00C
:100EF00007C011F008C012F009C013F006C0E6FFE9
:100F000007C0E6FF08C0E6FF09C0E6FFFD0EDBCF25
:100F1000E6FFFE0EDBCFE6FF65DE146E060EE15E39
:100F20001450D9CFE9FFDACFEAFFEECF06F0EECFCB
:100F300007F0EECF08F0EFCF09F0E80E0B6E030ECE
:100F40000C6E0D6A0E6AA3EC1BF002C0DEFF03C03C
:100F5000DEFF04C0DEFF05C0DDFFDD52DD52D9CF6C
:100F6000E9FFDACFEAFFEECF10F0EECF11F0EECFCF
:100F700012F0EFCF13F0640E0B6E0C6A0D6A0E6A5E
:100F800010C006F011C007F012C008F013C009F03D
:100F9000A3EC1BF006C010F007C011F008C012F05F
:100FA00009C013F006C0E6FF07C0E6FF08C0E6FF71
:100FB00009C0E6FFFD0EDB28E66EFE0EDBCFE6FF86
:100FC00011DE146E060EE15E1450D9CFE9FFDACFC0
:100FD000EAFFEECF06F0EECF07F0EECF08F0EFCF4E
:100FE00009F0640E0B6E0C6A0D6A0E6AA3EC1BF01E
:100FF00002C0DEFF03C0DEFF04C0DEFF05C0DDFF70
:10100000DD52DD52AE0EE66E370EE66EFD0EDB50A3
:10101000020FE66EFE0EDBCFE6FF0BDFE552E55278
:10102000E552E552D9CFE9FFDACFEAFFEECF10F073
:10103000EECF11F0EECF12F0EFCF13F00A0E0B6EE1
:101040000C6A0D6A0E6A10C006F011C007F012C0DB
:1010500008F013C009F0A3EC1BF006C010F007C0A5
:1010600011F008C012F009C013F006C0E6FF07C077
:10107000E6FF08C0E6FF09C0E6FFFD0EDB50030FE8
:10108000E66EFE0EDBCFE6FFADDD146E060EE15E12
:101090001450D9CFE9FFDACFEAFFEECF06F0EECF5A
:1010A00007F0EECF08F0EFCF09F0E80E0B6E030E5D
:1010B0000C6E0D6A0E6AA3EC1BF002C0DEFF03C0CB
:1010C000DEFF04C0DEFF05C0DDFFDD52DD52D9CFFB
:1010D000E9FFDACFEAFFEECF10F0EECF11F0EECF5E
:1010E00012F0EFCF13F00A0E0B6E0C6A0D6A0E6A47
:1010F00010C006F011C007F012C008F013C009F0CC
:10110000A3EC1BF002C010F003C011F004C012F0F9
:1011100005C013F002C0E6FF03C0E6FF04C0E6FF0F
:1011200005C0E6FFFD0EDB50040FE66EFE0EDBCFC2
:10113000E6FF58DD146E060EE15E1450050EE15C0C
:1011400002E2E16AE552E16EE552E7CFD9FF120013
:10115000D9CFE6FFE1CFD9FF020EE126DE6ADD6AD4
:101160006AD8E80EE66E030EE66E19D8E552E5522F
:1011700093EC10F00F010B51FDE00B6B0F01722B84
:101180007251106E116A040E101803E1115001E142
:10119000726BD7EC16F012DAD3EC04F0EBD7D9CFA0
:1011A000E6FFE1CFD9FF040EE126DE6ADD6ADECF7D
:1011B00010F0DDCF11F0FD0EDBCF12F0FE0EDBCF15
:1011C00013F011501318E8AE02D0133404D01250AB
:1011D000105C135011581DE2020EDB6A030EDB6A2D
:1011E000020EDBCF10F0030EDBCF11F0D8901150C0
:1011F00004E6EE0E105C000E115806E2020EDB2A29
:10120000030EEEE3DB2AECD7DF2A010ED0E3DB2A64
:10121000CED7040EE15C02E2E16AE552E16EE552EE
:10122000E7CFD9FF1200956A836A080E966E846E26
:10123000926A936A1200F7DF04EC01F0CEEC16F02C
:101240004EEC1AF0ADEC02F0A4EC04F0F40EE66EF5
:10125000010EE66EA4DFE552E552570EE66E120E61
:10126000E66EE0EC10F0E552E552AE0EE66E240EAE
:10127000E66E82EC11F0E552E552660EE66EB70EB0
:10128000E66E43EC12F0E552E552020EE66EE66AB7
:101290001FEC13F0E552E5520A0EE66EE66A31ECF9
:1012A00013F0E552E552320EE66EE66A50EC13F0AA
:1012B000E552E552D2EC16F035EC14F07DEC1CF062
:1012C0005AEF19F0D9CFE6FFE1CFD9FFFE0EDBCF01
:1012D00011F0800E11141BE1FD0EDBCF12F0FE0E9B
:1012E000DBCF13F0133404E212500708000E13543E
:1012F0000EE3FD0EDBCFE9FFFE0EDBCFEAFF5B0E58
:10130000E9260F0EEA22EF508310836E18D0D950D1
:10131000FD0FE96EFF0EDA20EA6E080EEE180FE1FF
:10132000ED500DE1FD0EDBCFE9FFFE0EDBCFEAFF56
:101330005B0EE9260F0EEA22EF508410846EE55210
:10134000E7CFD9FF1200D9CFE6FFE1CFD9FFFE0EDC
:10135000DBCF11F0800E11141BE1FD0EDBCF12F07C
:10136000FE0EDBCF13F0133404E212500708000E18
:1013700013540EE3FD0EDBCFE9FFFE0EDBCFEAFFD9
:101380005B0EE9260F0EEA22EF1C8314836E18D041
:10139000D950FD0FE96EFF0EDA20EA6E080EEE1846
:1013A0000FE1ED500DE1FD0EDBCFE9FFFE0EDBCFCF
:1013B000EAFF5B0EE9260F0EEA22EF1C8414846E0E
:1013C000E552E7CFD9FF1200D9CFE6FFE1CFD9FF31
:1013D000FD0EDBCFE9FFFE0EDBCFEAFF640EE92650
:1013E0000F0EEA22EF0415E1FD0EDBCFE6FFFE0E45
:1013F000DBCFE6FFA8DFE552E552FD0EDBCFE9FFCC
:10140000FE0EDBCFEAFF640EE9260F0EEA22EF6A3A
:1014100015D0FD0EDBCFE6FFFE0EDBCFE6FF52DF81
:10142000E552E552FD0EDBCFE9FFFE0EDBCFEAFF12
:10143000640EE9260F0EEA22010EEF6EE552E7CFA9
:10144000D9FF1200D9CFE6FFE1CFD9FF020EE12686
:10145000DE6ADD6ADECF10F0DDCF11F0D8901150DA
:1014600004E60E0E105C000E115821E2DECFE6FFFE
:10147000DDCFE6FF27DFE552E552F40EE66E010E02
:10148000E66E8DDEE552E552DECFE6FFDDCFE6FF0C
:101490005ADFE552E552F40EE66E010EE66E7FDE8F
:1014A000E552E552DF2A010ED5E3DB2AD3D7020E3F
:1014B000E15C02E2E16AE552E16EE552E7CFD9FF75
:1014C0001200D9CFE6FFE1CFD9FFFE0EDB50030AB1
:1014D00046E0010A1DE0030A6DE1D950FC0FE96EF8
:1014E000FF0EDA20EA6E010EEE180AE1ED5008E177
:1014F000030EE66EE66AE6DEE552E552040E1AD009
:10150000060EE66EE66ADEDEE552E552070E20D0F4
:10151000D950FC0FE96EFF0EDA20EA6E010EEE18CC
:1015200010E1ED500EE1040EE66EE66ACBDEE55208
:10153000E552030EE66EE66A06DFE552E552050E59
:1015400034D0070EE66EE66ABDDEE552E552060EC1
:10155000E66EE66AF8DEE552E552080E26D0D9506E
:10156000FC0FE96EFF0EDA20EA6E010EEE1810E1B4
:10157000ED500EE1050EE66EE66AA4DEE552E55298
:10158000040EE66EE66ADFDEE552E552030E0DD08C
:10159000080EE66EE66A96DEE552E552070EE66E46
:1015A000E66AD1DEE552E552060EE66EE66ACBDE6D
:1015B000E552E552E552E7CFD9FF12000DDB0F01EE
:1015C0006E51040A01E107D1070A01E1C0D0010A06
:1015D00023E0030A01E035D1A4EC04F04B0EE66EE3
:1015E000380EE66EE66AE66A19EC07F0E552E55257
:1015F000E552E552D6D928D9000901E124D10F01DD
:10160000020E6E6F010E6F6F030E706F726B74CFF0
:1016100077FF76CF78FF1200A4EC04F03A0EE66E66
:10162000380EE66EE66AE66A19EC07F0E552E55216
:10163000E552E552290EE66E380EE66EE66A010EB8
:10164000E66E19EC07F0E552E552E552E552260E3A
:10165000E66E380EE66EE66A010EE66E19EC07F0ED
:10166000E552E552E552E55274CF10F0116A126A64
:10167000136A74CFE6FF11C0E6FF12C0E6FF13C085
:10168000E6FF020EE66E010EE66EF2EC05F0146E59
:10169000060EE15E1450230EE66E380EE66E060E60
:1016A000E66E010EE66E19EC07F0E552E552E552E2
:1016B000E55275CF10F0116A126A136A75CFE6FF12
:1016C00011C0E6FF12C0E6FF13C0E6FF080EE66E8B
:1016D000010EE66EF2EC05F0146E060EE15E14509B
:1016E000200EE66E380EE66E0C0EE66E010EE66E0D
:1016F00019EC07F0E552E552E552E55276CF10F0CD
:10170000116A126A136A76CFE6FF11C0E6FF12C0B3
:10171000E6FF13C0E6FF0E0EE66E010EE66EF2EC7B
:1017200005F0146E060EE15E145050D98DD80009F4
:1017300003E00F01030E6E6F0F01010E331906E176
:10174000345101E080D00F01010E6E6F1200A4EC45
:1017500004F00F0EE66E380EE66EE66AE66A19ECE5
:1017600007F0E552E552E552E55279CF10F0116AE3
:10177000126A136A79CFE6FF11C0E6FF12C0E6FFD6
:1017800013C0E6FF020EE66E010EE66EF2EC05F007
:10179000146E060EE15E145073CF10F0116A126AD7
:1017A000136A73CFE6FF11C0E6FF12C0E6FF13C055
:1017B000E6FF0A0EE66E010EE66EF2EC05F0146E20
:1017C000060EE15E145010D93FD800093CE00F012D
:1017D000040E6E6F1200A4EC04F0FE0EE66E370EDF
:1017E000E66EE66AE66A19EC07F0E552E552E55264
:1017F000E55273CF10F0116A126A136A73CFE6FFD5
:1018000011C0E6FF12C0E6FF13C0E6FF0A0EE66E47
:10181000010EE66EF2EC05F0146E060EE15E145059
:1018200022D912D800090FE00F01020E6E6F010ECF
:101830006F6F030E706F726B74CF77FF76CF78FF88
:101840001200020E6E6F12000F01010E3B1903E130
:101850003C5101E1010C000C0F01010E37192EE182
:1018600038512CE10F01732B7351630801E2736B44
:10187000FB0EE66E370EE66E0A0EE66E010EE66EA3
:1018800019EC07F0E552E552E552E55273CF10F03E
:10189000116A126A136A73CFE6FF11C0E6FF12C025
:1018A000E6FF13C0E6FF0A0EE66E010EE66EF2ECEE
:1018B00005F0146E060EE15E1450010C000C0F01D1
:1018C000010E35192FE136512DE10F0173077351C8
:1018D000000802E3630E736FFB0EE66E370EE66ED2
:1018E0000A0EE66E010EE66E19EC07F0E552E552BF
:1018F000E552E55273CF10F0116A126A136A73CF82
:10190000E6FF11C0E6FF12C0E6FF13C0E6FF0A0EB5
:10191000E66E010EE66EF2EC05F0146E060EE15E68
:101920001450010C000CD9CFE6FFE1CFD9FF020E15
:10193000E126DE6ADD6A0F016E51040A0BE0070A38
:1019400018E10F01010E331914E1345112E173CF84
:1019500075FF08D00F01010E33190BE1345109E175
:1019600073CF76FF0F0175517625746F010EDE6E11
:10197000DD6AD9CFE9FFDACFEAFF010EEE1804E104
:10198000ED5002E1010E01D0000E106E020EE15C7E
:1019900002E2E16AE552E16E1050E552E7CFD9FF6D
:1019A0001200010EE66EE66AE66E8BDDE552E55248
:1019B000E552020EE66EE66A010EE66E82DDE55243
:1019C000E552E5520F01020E326F12000F01010EB7
:1019D000326F7CD8BED878CFE6FF77CFE6FF05EC34
:1019E00014F0E552E55212000F01326B0F017251F3
:1019F00022E1010EE66EE66A020EE66E62DDE55257
:101A0000E552E552020EE66EE66AE66E5ADDE552F2
:101A1000E552E5520F017907795100080CE3640E95
:101A2000796F020E6E6F010E6F6F030E706F74CFC1
:101A300077FF76CF78FF7251106E116A020E101880
:101A40000EE111500CE1040EE66EE66A7CDCE55214
:101A5000E552070EE66EE66A76DCE552E552FCDEFC
:101A60002EDF93EF0CF00F01640E796F0F01326BD4
:101A70000F01725112E1010EE66EE66A030EE66E88
:101A800020DDE552E552E552020EE66EE66A030EEF
:101A9000E66E17DDE552E552E5520F017251106E08
:101AA000116A020E10180EE111500CE1050EE66EDF
:101AB000E66A49DCE552E552080EE66EE66A43DC6A
:101AC000E552E552C9DEFBDE93EF0CF00F016F51DA
:101AD000020A2BE0010A15E0020A01E01200010EE1
:101AE000E66EE66AE66EEDDCE552E552E5520F0180
:101AF00072512EE1770777512BE176CF77FF030EF6
:101B000012D0010EE66EE66A030EE66EDADCE552EE
:101B1000E552E5520F0172511BE17707775118E149
:101B200075CF77FF020E6F6F1200010EE66EE66A48
:101B3000020EE66EC6DCE552E552E5520F01725127
:101B400007E17707775104E174CF77FF010E6F6FDC
:101B500012000F017051030A2BE0010A16E0030A7C
:101B600001E01200020EE66EE66A010EE66EA9DCE6
:101B7000E552E552E5520F0172512DE17807785197
:101B80002AE176CF78FF030E11D0020EE66EE66AE8
:101B9000E66E97DCE552E552E5520F0172511BE10A
:101BA0007807785118E174CF78FF010E706F12003A
:101BB000020EE66EE66A030EE66E83DCE552E5523F
:101BC000E5520F01725107E17807785104E175CFB2
:101BD00078FF020E706F1200D9CFE6FFE1CFD9FF78
:101BE000040EE12686EC1CF0F3CFDEFFF4CFDDFF20
:101BF000DECF06F0DDCF07F0086A096A07AE02D033
:101C000008680968100E0B6E270E0C6E0D6A0E6ABE
:101C1000C5EC1CF002C006F003C007F004C008F0D9
:101C200005C009F00B68030E0C6E0D6A0E6AA3EC7A
:101C30001BF0020E06C0DBFF030E07C0DBFFB3D8AC
:101C4000FB0EE66E370EE66EB6EC14F0E552E5528A
:101C50000F016E51040A12E0070A0CE0020A06E0C6
:101C6000030A14E1EF0EE66E370E0BD0E50EE66EBA
:101C7000370E07D0D90EE66E370E03D0CE0EE66EC5
:101C8000370EE66EB6EC14F0E552E552FB0EE66E4A
:101C9000370EE66EB6EC14F0E552E552C90EE66E6C
:101CA000370EE66EB6EC14F0E552E55274CF10F044
:101CB000116A126A136A74CFE6FF11C0E6FF12C000
:101CC000E6FF13C0E6FF4DEC15F0E552E552E55294
:101CD000E552FB0EE66E370EE66EB6EC14F0E552FA
:101CE000E552C20EE66E370EE66EB6EC14F0E55223
:101CF000E55276CF10F0116A126A136A76CFE6FFCA
:101D000011C0E6FF12C0E6FF13C0E6FF4DEC15F070
:101D1000E552E552E552E552FB0EE66E370EE66EF1
:101D2000B6EC14F0E552E552BA0EE66E370EE66EEA
:101D3000B6EC14F0E552E55275CF10F0116A126A54
:101D4000136A75CFE6FF11C0E6FF12C0E6FF13C0AD
:101D5000E6FF4DEC15F0E552E552E552E552FB0E7B
:101D6000E66E370EE66EB6EC14F0E552E552020E62
:101D7000DBCFE6FF030EDBCFE6FF68EC16F0E552A3
:101D8000E552B60EE66E370EE66EB6EC14F0E5528E
:101D9000E552040EE15C02E2E16AE552E16EE552D1
:101DA000E7CFD9FF1200E66A0BEC1AF0E5520F01FB
:101DB0007A6F010EE66E0BEC1AF0E5520F017B6FA5
:101DC000020EE66E0BEC1AF0E5520F017C6F040E6A
:101DD000E66E0BEC1AF0E5520F017D6F050EE66E14
:101DE0000BEC1AF0E5520F017E6F060EE66E0BEC5F
:101DF0001AF0E5520F017F6F0A0E146E0E6E7DCF42
:101E000009F036EC1BF009C010F0116A126A136A6F
:101E100010AE03D011681268136810C0E6FF11C03D
:101E2000E6FF12C0E6FF13C0E6FF4DEC15F0E552E9
:101E3000E552E552E5527DCF09F00A0E0E6E36EC02
:101E40001BF005C010F0116A126A136A10AE03D0BD
:101E500011681268136810C0E6FF11C0E6FF12C0D7
:101E6000E6FF13C0E6FF4DEC15F0E552E552E552F2
:101E7000E552B40EE66E370EE66EB6EC14F0E5529F
:101E8000E5520A0E146E0E6E7ECF09F036EC1BF092
:101E900009C010F0116A126A136A10AE03D01168FB
:101EA0001268136810C0E6FF11C0E6FF12C0E6FF1B
:101EB00013C0E6FF4DEC15F0E552E552E552E55250
:101EC0007ECF09F00A0E0E6E36EC1BF005C010F046
:101ED000116A126A136A10AE03D01168126813688F
:101EE00010C0E6FF11C0E6FF12C0E6FF13C0E6FF18
:101EF0004DEC15F0E552E552E552E552B40EE66EB2
:101F0000370EE66EB6EC14F0E552E5520A0E146E8A
:101F10000E6E7FCF09F036EC1BF009C010F0116A8D
:101F2000126A136A10AE03D011681268136810C0E9
:101F3000E6FF11C0E6FF12C0E6FF13C0E6FF4DEC5E
:101F400015F0E552E552E552E5527FCF09F00A0E51
:101F50000E6E36EC1BF005C010F0116A126A136A9F
:101F600010AE03D011681268136810C0E6FF11C0EC
:101F7000E6FF12C0E6FF13C0E6FF4DEC15F0E55298
:101F8000E552E552E552B20EE66E370EE66EB6EC5D
:101F900014F0E552E5520A0E146E0E6E7CCF09F075
:101FA00036EC1BF009C010F0116A126A136A10AE09
:101FB00003D011681268136810C0E6FF11C0E6FF75
:101FC00012C0E6FF13C0E6FF4DEC15F0E552E552F6
:101FD000E552E5527CCF09F00A0E0E6E36EC1BF08E
:101FE00005C010F0116A126A136A10AE03D01168AE
:101FF0001268136810C0E6FF11C0E6FF12C0E6FFCA
:1020000013C0E6FF4DEC15F0E552E552E552E552FE
:10201000B00EE66E370EE66EB6EC14F0E552E55201
:102020000A0E146E0E6E7BCF09F036EC1BF009C061
:1020300010F0116A126A136A10AE03D011681268A8
:10204000136810C0E6FF11C0E6FF12C0E6FF13C020
:10205000E6FF4DEC15F0E552E552E552E5527BCF37
:1020600009F00A0E0E6E36EC1BF005C010F0116A76
:10207000126A136A10AE03D011681268136810C098
:10208000E6FF11C0E6FF12C0E6FF13C0E6FF4DEC0D
:1020900015F0E552E552E552E552B00EE66E370E08
:1020A000E66EB6EC14F0E552E5520A0E146E0E6EB2
:1020B0007ACF09F036EC1BF009C010F0116A126AF1
:1020C000136A10AE03D011681268136810C0E6FFDF
:1020D00011C0E6FF12C0E6FF13C0E6FF4DEC15F09D
:1020E000E552E552E552E5527ACF09F00A0E0E6E3E
:1020F00036EC1BF005C010F0116A126A136A10AEBC
:1021000003D011681268136810C0E6FF11C0E6FF23
:1021100012C0E6FF13C0E6FF4DEC15F0E552E552A4
:10212000E552E5521200200EE66E0BEC1AF0E55275
:10213000220809E009D8220EE66E200EE66EF0ECC9
:1021400019F0E552E55212000F01010E7A6F7B6F14
:10215000080E7C6F060E7D6F010E7E6F160E7F6F70
:102160007ACFE6FFE66AF0EC19F0E552E5527BCF54
:10217000E6FF010EE66EF0EC19F0E552E5527CCF79
:10218000E6FF020EE66EF0EC19F0E552E5527DCF67
:10219000E6FF040EE66EF0EC19F0E552E5527ECF54
:1021A000E6FF050EE66EF0EC19F0E552E5527FCF42
:1021B000E6FF060EE66EF0EC19F0E552E55212006D
:1021C000D9CFE6FFE1CFD9FFD59EFD0EDBCF00FFD3
:1021D000FE0EDBCF01FFD59C13681468156A00CF93
:1021E00016F001CF17F0186A1650135C106E1750D6
:1021F0001458116E18501558126E0C6A010E0D6E9F
:102200000E6A10C007F011C008F012C009F076EC99
:102210001BF00350D66E13681468156A00CF16F0D1
:1022200001CF17F0186A1650135C106E175014582F
:10223000116E18501558126E0C6A010E0D6E0E6A52
:1022400010C007F011C008F012C009F076EC1BF0C6
:1022500007C010F008C011F009C012F00750D76E87
:10226000D59AD586F28AF294F184D58EE552E7CFDD
:10227000D9FF1200D59E120013681468156A00CFAA
:1022800016F001CF17F0186A1650135C106E175035
:102290001458116E18501558126E0C6A010E0D6EFE
:1022A0000E6A10C007F011C008F012C009F076ECF9
:1022B0001BF00350D66E13681468156A00CF16F031
:1022C00001CF17F0186A1650135C106E175014588F
:1022D000116E18501558126E0C6A010E0D6E0E6AB2
:1022E00010C007F011C008F012C009F076EC1BF026
:1022F00007C010F008C011F009C012F00750D76EE7
:10230000D58E1200D9CFE6FFE1CFD9FFCD90FD0EDB
:10231000DBCF02FFFE0EDBCF03FF13681468156AE4
:1023200002CF16F003CF17F0186A1650135C106E28
:1023300017501458116E18501558126E0C6A010E71
:102340000D6E0E6A10C007F011C008F012C009F03F
:1023500076EC1BF00750CF6E13681468156A02CF35
:1023600016F003CF17F0186A1650135C106E175052
:102370001458116E18501558126E0C6A010E0D6E1D
:102380000E6A10C007F011C008F012C009F076EC18
:102390001BF003C010F004C011F005C012F0035090
:1023A000CE6E9D809E909F90CD8ECD8CCD98CD9AF7
:1023B000CD96CD92CD80E552E7CFD9FF12001368BC
:1023C0001468156A02CF16F003CF17F0186A16507A
:1023D000135C106E17501458116E18501558126E69
:1023E0000C6A010E0D6E0E6A10C007F011C008F0E5
:1023F00012C009F076EC1BF00750CF6E136814681A
:10240000156A02CF16F003CF17F0186A1650135C46
:10241000106E17501458116E18501558126E0C6A21
:10242000010E0D6E0E6A10C007F011C008F012C048
:1024300009F076EC1BF003C010F004C011F005C0E9
:1024400012F00350CE6ECD801200CD901200D9CF85
:10245000E6FFE1CFD9FFCA94CC6AFE0EDB500F0134
:10246000046F056BCB6E9D829E929F92CA90CA921A
:10247000CA84E552E7CFD9FF120004CFCBFFCA844C
:102480001200CA941200D9CFE6FFE1CFD9FFB19074
:10249000FD0EDBCF06FFFE0EDBCF07FF13681468CF
:1024A000156A06CF16F007CF17F0186A1650135C9E
:1024B000106E17501458116E18501558126E0C6A81
:1024C000010E0D6E0E6A10C007F011C008F012C0A8
:1024D00009F076EC1BF00750B36E13681468156AA8
:1024E00006CF16F007CF17F0186A1650135C106E5F
:1024F00017501458116E18501558126E0C6A010EB0
:102500000D6E0E6A10C007F011C008F012C009F07D
:1025100076EC1BF003C010F004C011F005C012F0FF
:102520000350B26EA082A192A292B18EB198B19ADC
:10253000B192B180E552E7CFD9FF12001368146859
:10254000156A06CF16F007CF17F0186A1650135CFD
:10255000106E17501458116E18501558126E0C6AE0
:10256000010E0D6E0E6A10C007F011C008F012C007
:1025700009F076EC1BF00350B26E13681468156A0C
:1025800006CF16F007CF17F0186A1650135C106EBE
:1025900017501458116E18501558126E0C6A010E0F
:1025A0000D6E0E6A10C007F011C008F012C009F0DD
:1025B00076EC1BF007C010F008C011F009C012F053
:1025C0000750B36EB1801200B19012000F01102BB2
:1025D000000E11231851105D1951115905E3106BAC
:1025E000116B010E086FC6D812000F01122B000EDE
:1025F00013231A51125D1B51135904E3126B136B11
:10260000010E096F12000F01142B000E15231C512F
:10261000145D1D51155904E3146B156B010E0A6FFF
:1026200012000F01162B000E17231E51165D1F51AD
:10263000175904E3166B176B010E0B6F1200D9CFFD
:10264000E6FFE1CFD9FFFD0EDBCF18FFFE0EDBCF9B
:1026500019FF0F01106B116B086BE552E7CFD9FF23
:102660001200D9CFE6FFE1CFD9FFFD0EDBCF1AFF75
:10267000FE0EDBCF1BFF050E0D6E0E6A1ACF08F0A3
:102680001BCF09F050EC1BF008C01AFF09C01BFF5C
:102690000F01126B136B096BE552E7CFD9FF1200E4
:1026A000D9CFE6FFE1CFD9FFFD0EDBCF1EFFFE0E37
:1026B000DBCF1FFF0A0E0D6E0E6A1ECF08F01FCF74
:1026C00009F050EC1BF008C01EFF09C01FFF0F01EE
:1026D000166B176B0B6BE552E7CFD9FF1200D9CF02
:1026E000E6FFE1CFD9FF020EE126DE6ADD6ADE6A8F
:1026F000DD6ADECF10F0DDCF11F0D890115004E686
:10270000080E105C000E115817E2FE0EDB50DF526F
:1027100006E0DFCFF3FFE846FE0BF306FCE1800B9B
:10272000800802E1838001D0839083828392DF2A34
:10273000010EDFE3DB2ADDD7020EE15C02E2E16A93
:10274000E552E16EE552E7CFD9FF1200D9CFE6FF9F
:10275000E1CFD9FFFD0EDBCFE6FFC1DFE552FE0E74
:10276000DBCFE6FFBCDFE55283848394E552E7CFFD
:10277000D9FF1200D9CFE6FFE1CFD9FFE652DF6AD9
:102780000F013251020A29E0020A21E0010A38E170
:10279000DF6A040EDF5C34E2DF50EA6A2E0FE96E76
:1027A0000F0EEA22EF50EA6A200FE96E0F0EEA22BE
:1027B000EF50E66EDF50EA6A2A0FE96E0F0EEA224A
:1027C000EF50E66EC3DFE552E552DF2AE2D7E66A54
:1027D000E66ABCDFE552E55213D0DF6A040EDF5C27
:1027E0000FE228CFE6FFDF50EA6A2A0FE96E0F0EEC
:1027F000EA22EF50E66EAADFE552E552DF2AEED775
:10280000E552E552E7CFD9FF1200D9CFE6FFE1CF7D
:10281000D9FF0A0E106E0E6EFE0EDBCF09F072ECC1
:102820001DF009C02EFF0A0E106E0E6EFE0EDBCFDD
:1028300009F072EC1DF005C02FFF0A0E106E0E6E2F
:10284000FD0EDBCF09F072EC1DF009C030FF0A0E5F
:10285000106E0E6EFD0EDBCF09F072EC1DF005C0A0
:0A28600031FFE552E7CFD9FF120067
:06286A00B06A810EAF6EA2
:10287000AC8AAC94B886AC98AB8EAB889E9A9D8A95
:102880009F9A949C948E1200D9CFE6FFE1CFD9FF96
:10289000040EE126DE6ADD6ADECF10F0DDCF11F036
:1028A000FD0EDBCF12F0FE0EDBCF13F0115013182C
:1028B000E8AE02D0133404D01250105C13501158FB
:1028C0001DE2020EDB6A030EDB6A020EDBCF10F0A4
:1028D000030EDBCF11F0D890115004E6EE0E105C21
:1028E000000E115806E2020EDB2A030EEEE3DB2A8D
:1028F000ECD7DF2A010ED0E3DB2ACED7040EE15C51
:1029000002E2E16AE552E16EE552E7CFD9FF12003B
:10291000D9CFE6FFE1CFD9FF9EA8FED7FE0EDB5050
:10292000AD6E9E98E552E7CFD9FF1200D9CFE6FFF2
:10293000E1CFD9FFFD0EDBCFE9FFFE0EDBCFEAFFD3
:10294000EF5010E0FD0EDBCFE9FFFE0EDBCFEAFF1C
:10295000EF50E66EDDDFE552FD0EDB2AFE0EEAE308
:10296000DB2AE8D7E552E7CFD9FF1200D9CFE6FF3F
:10297000E1CFD9FFFD0EDBCFF6FFFE0EDBCFF7FF79
:102980000800F55015E0FD0EDBCFF6FFFE0EDBCFA5
:10299000F7FF0800F550E66EBBDFE552FD0EDBCF1A
:1029A000F6FFDB2AFE0EDBCFF7FFE4E3DB2AE2D7FC
:1029B000E552E7CFD9FF1200D9CFE6FFE1CFD9FF2B
:1029C000050EE126010EF36EDB6E020EDB6A030ECE
:1029D000DB6A040EDB6ADF6ADFCF10F0116A10BE1B
:1029E0001168FB0EDBCF12F0FC0EDBCF13F01150A1
:1029F0001318E8AE02D0133404D01250105C1350F8
:102A000011582DE2FD0EDBCF10F0FE0EDBCF11F0E2
:102A1000126A136A11AE02D012681368D950010FFE
:102A2000E96EDACFEAFF10C00BF011C00CF012C053
:102A30000DF013C00EF0EECF06F0EECF07F0EECFA4
:102A400008F0EFCF09F0C5EC1CF005C0EDFF04C0A5
:102A5000EDFF03C0EDFF02C0EFFFDF2ABDD7010E7F
:102A6000DBCF10F0020EDBCF11F0030EDBCF12F044
:102A7000040EDBCF13F010C006F011C007F012C037
:102A800008F013C009F0050EE15C02E2E16AE552CC
:102A9000E16EE552E7CFD9FF1200D9CFE6FFE1CFD3
:102AA000D9FF020EE126DF6AFB0EDBCF10F0FC0E31
:102AB000DBCF11F0FD0EDBCF12F0FE0EDBCF13F0FB
:102AC000105011101210131005E1300EE66E20DFC9
:102AD000E552F4D0D950FB0FE96EFF0EDA20EA6E12
:102AE000D890030EEB50000A08E6000EEE5C000ED4
:102AF000EE58000EEE58000EEE5815E22D0EE66E62
:102B000007DFE552D950FB0FE96EFF0EDA20EA6EBF
:102B1000000EEE6CEF1EEE22EF1EEE22EF1EEF22F5
:102B2000ED52ED52ED52DE520A0EDD6E010EDBCF9C
:102B300010F0000EE76E1018E8AE02D0103403D08B
:102B4000E750D880105401E3B9D0010EDB04146EB5
:102B5000156A14BE156814C0E6FF15C0E6FF0A0E1C
:102B6000E66EE66A29DFE552E552E552E55206C017
:102B700010F007C011F008C012F009C013F006C031
:102B80000BF007C00CF008C00DF009C00EF0FB0EF2
:102B9000DBCF06F0FC0EDBCF07F0FD0EDBCF08F03D
:102BA000FE0EDBCF09F0FDEC1CF0065007100810FC
:102BB000091041E0010EDF6EDB04186E196A18BEC1
:102BC000196818C0E6FF19C0E6FF0A0EE66EE66A4D
:102BD000F3DEE552E552E552E55206C014F007C0B7
:102BE00015F008C016F009C017F006C00BF007C0BA
:102BF0000CF008C00DF009C00EF0FB0EDBCF06F0A4
:102C0000FC0EDBCF07F0FD0EDBCF08F0FE0EDBCFB6
:102C100009F0FDEC1CF006C010F007C011F008C070
:102C200012F009C013F0300E1026000E11221222ED
:102C30001322105003D0DF5004E0300EE66E68DE41
:102C4000E552010EDB04146E156A14BE156814C03B
:102C5000E6FF15C0E6FF0A0EE66EE66AADDEE55257
:102C6000E552E552E55206C010F007C011F008C069
:102C700012F009C013F0D950FB0FE96EFF0EDA20F5
:102C8000EA6E06C00BF007C00CF008C00DF009C0DA
:102C90000EF0EECF06F0EECF07F0EECF08F0EFCF5C
:102CA00009F0FDEC1CF005C0EDFF04C0EDFF03C012
:102CB000EDFF02C0EFFF010EDB0638D7020EE15C2C
:102CC00002E2E16AE552E16EE552E7CFD9FF120078
:102CD000D9CFE6FFE1CFD9FFFD0EDBCF10F0FE0E1E
:102CE000DBCF11F0640E0D6E0E6A10C008F011C03B
:102CF00009F050EC1BF008C010F009C011F0126A86
:102D0000136A11AE02D01268136810C0E6FF11C03A
:102D1000E6FF12C0E6FF13C0E6FFBFDEE552E55254
:102D2000E552E5522E0EE66EF3DDE552FD0EDBCFE9
:102D300010F0FE0EDBCF11F0640E0D6E0E6A10C0A7
:102D400008F011C009F050EC1BF004C010F005C0F1
:102D500011F0126A136A11AE02D01268136810C023
:102D6000E6FF11C0E6FF12C0E6FF13C0E6FF95DEE6
:102D7000E552E552E552E552E552E7CFD9FF1200A0
:102D8000D9CFE6FFE1CFD9FFE652AE50DF6EDFCFFD
:0C2D9000FDF0E552E552E7CFD9FF12003C
:042D9C000F0E946E14
:102DA00082681200CF0E9414946E82681200D9CFFC
:102DB000E6FFE1CFD9FF040EE126DE6ADD6ADECF51
:102DC00010F0DDCF11F0D890115004E6040E105C25
:102DD000000E115801E390D0DECFE9FFDDCFEAFF0E
:102DE000530EE9260F0EEA22EF1C826E020EDB6AFA
:102DF000030EDB6A020EDBCF10F0030EDBCF11F007
:102E0000D890115004E6040E105C000E11586EE2CA
:102E1000020EDBCFE9FF030EDBCFEAFF570EE926F8
:102E20000F0EEA22EF5082143FE1DECF14F0DDCF27
:102E300015F0D89014361536D89014361536020E83
:102E4000DB501424E96E030EDB501520EA6ED89097
:102E5000E936EA36330EE9260F0EEA22EECF12F0FB
:102E6000EFCF13F0010E1226000E1322DECF10F06A
:102E7000DDCF11F0D89010361136D89010361136BB
:102E8000020EDB501024E96E030EDB501120EA6EB7
:102E9000D890E936EA36330EE9260F0EEA2212C040
:102EA000EEFF13C0EDFF1BD0DECF10F0DDCF11F031
:102EB000D89010361136D89010361136020EDB50ED
:102EC0001024E96E030EDB501120EA6ED890E9362B
:102ED000EA36330EE9260F0EEA22EE6AED6A020E9A
:102EE000DB2A030E01E286D7DB2A84D7DF2A010E14
:102EF00001E265D7DB2A63D7040EE15C02E2E16AF6
:102F0000E552E16EE552E7CFD9FF1200D9CFE6FFD7
:102F1000E1CFD9FF040EE126DE6ADD6ADECF10F0D4
:102F2000DDCF11F0D890115004E6020E105C000EB7
:102F3000115801E394D0DECFE9FFDDCFEAFF530E55
:102F4000E9260F0EEA22EF1C8214826E0F0E821009
:102F5000826E020EDB6A030EDB6A020EDBCF10F01C
:102F6000030EDBCF11F0D890115004E6040E105C74
:102F7000000E11586EE2020EDBCFE9FF030EDBCF2D
:102F8000EAFF570EE9260F0EEA22EF5082143FE1C6
:102F9000DECF14F0DDCF15F0D89014361536D8906A
:102FA00014361536020EDB501424E96E030EDB5086
:102FB0001520EA6ED890E936EA36330EE9260F0E70
:102FC000EA22EECF12F0EFCF13F0010E1226000E20
:102FD0001322DECF10F0DDCF11F0D890103611366D
:102FE000D89010361136020EDB501024E96E030E15
:102FF000DB501120EA6ED890E936EA36330EE92626
:103000000F0EEA2212C0EEFF13C0EDFF1BD0DECF81
:1030100010F0DDCF11F0D89010361136D890103660
:103020001136020EDB501024E96E030EDB50112026
:10303000EA6ED890E936EA36330EE9260F0EEA2218
:10304000EE6AED6A020EDB2A030E01E286D7DB2A66
:1030500084D7DF2A010E01E261D7DB2A5FD7040E95
:10306000E15C02E2E16AE552E16EE552E7CFD9FFA9
:103070001200D9CFE6FFE1CFD9FF040EE126DE6AC8
:10308000DD6ADECF10F0DDCF11F0FD0EDBCF12F0E8
:10309000FE0EDBCF13F011501318E8AE02D013343C
:1030A00004D01250105C135011581DE2020EDB6A5E
:1030B000030EDB6A020EDBCF10F0030EDBCF11F044
:1030C000D890115004E6EE0E105C000E115806E286
:1030D000020EDB2A030EEEE3DB2AECD7DF2A010E19
:1030E000D0E3DB2ACED7040EE15C02E2E16AE552CE
:1030F000E16EE552E7CFD9FF1200D9CFE6FFE1CF6D
:10310000D9FF040EE126DE6ADD6ADECF10F0DDCFE6
:1031100011F0D890115004E6040E105C000E115806
:1031200075E2DECFE9FFDDCFEAFF530EE9260F0E91
:10313000EA22EF1C826E020EDB6A030EDB6A020ECD
:10314000DBCF10F0030EDBCF11F0D890115004E666
:10315000040E105C000E11584AE2DECF10F0DDCFF5
:1031600011F0D89010361136D89010361136020E64
:10317000DB501024E96E030EDB501120EA6ED8906C
:10318000E936EA36330EE9260F0EEA22EE6AED6AD8
:10319000020EDBCFE9FF030EDBCFEAFF570EE92675
:1031A0000F0EEA22EF5082141CE1DECF10F0DDCFCB
:1031B00011F0D89010361136D89010361136020E14
:1031C000DB501024E96E030EDB501120EA6ED8901C
:1031D000E936EA36330EE9260F0EEA22010EEE6ECC
:1031E000ED6A020EDB2A030EAAE3DB2AA8D782507F
:1031F000816EE80EE66E030EE66E3BDFE552E552A9
:10320000DF2A010E01E281D7DB2A7FD7040EE15CC1
:1032100002E2E16AE552E16EE552E7CFD9FF120022
:10322000D9CFE6FFE1CFD9FF020EE126FE0EDB503B
:103230000F0BDF6EFE0EDB380F0B0A0D010EF3CF06
:10324000DBFFDB50DF24106E020EE15C02E2E16A7C
:10325000E552E16E1050E552E7CFD9FF1200D9CF09
:10326000E6FFE1CFD9FF020EE1260A0E106E0E6EC8
:10327000FE0EDBCF09F072EC1DF00550DF6E0A0E7A
:10328000106E0E6EFE0EDBCF09F072EC1DF00950D1
:10329000100D010EF3CFDBFFDB50DF24106E020EAA
:1032A000E15C02E2E16AE552E16E1050E552E7CFDF
:1032B000D9FF1200949694981200D9CFE6FFE1CF7F
:1032C000D9FFE652DF6AFE0EDB50DF5C02E2DF2A46
:1032D000FAD7E552E552E7CFD9FF120082A8000CD9
:1032E000010C0001FC5102E082888286829882965D
:1032F000010EFC6F12008298828682880001FC6BAE
:103300001200D9CFE6FFE1CFD9FF020EE126DF6A36
:10331000DFCF10F0080EE76E1018E8AE02D0E734E9
:1033200002D0E750105C0FE2FE0EDBBE02D08298A6
:1033300001D0828882868296DB50020DFE0EF3CF8A
:10334000DBFFDF2AE5D794888286C8DFE76E010EAF
:10335000E7CFDBFF82969498DB50106E020EE15CA3
:1033600002E2E16AE552E16E1050E552E7CFD9FF83
:103370001200D9CFE6FFE1CFD9FF020EE126DF6AC6
:103380009488010EDB6ADBCF10F0080EE76E101890
:10339000E8AE02D0E73402D0E750105C0BE2828640
:1033A0009DDF106EDF50E8241010DF6E8296010E54
:1033B000DB2AE9D79498FE0EDB5002E0828801D028
:1033C000829882868296DF50106E020EE15C02E2E5
:1033D000E16AE552E16E1050E552E7CFD9FF1200E5
:1033E000D9CFE6FFE1CFD9FF7CDFD00EE66E89DFD3
:1033F000E552FE0EDBCFE6FF84DFE552FD0EDBCFAC
:10340000E6FF2DDFE552E66E7CDFE55274DFE55224
:10341000E7CFD9FF1200D9CFE6FFE1CFD9FFE652BF
:1034200060DFD00EE66E6DDFE552FE0EDBCFE6FF0D
:1034300068DFE55256DFD10EE66E63DFE552010E1E
:10344000E66E97DFE552DF6EDFCFE6FFE9DEE5529D
:10345000DF6E51DFDF50E552E552E7CFD9FF1200B2
:10346000D9CFE6FFE1CFD9FFFD0EDBCFE6FFFE0EA1
:10347000DBCFE6FFB5DFE552E552E552E7CFD9FFF6
:103480001200D9CFE6FFE1CFD9FFFE0EDBCFE6FF7A
:0C349000C2DFE552E552E7CFD9FF120081
:04349C00F28ED08E4E
:1034A000F28C1200F19CF292F2881200D8CFE4FF65
:1034B000E0CFE4FFE46EDACFE4FFE2CFDAFFE9CF5A
:1034C000E4FFEACFE4FFF6CFE4FFF7CFE4FFF5CF68
:1034D000E4FFF3CFE4FFF4CFE4FFFACFE4FF00EE24
:1034E00000F0100EE80403E3EECFE4FFFBD700EE9C
:1034F00010F00A0EE80403E3EECFE4FFFBD7E65238
:10350000F2A407D03AEC11F0F2943CEC11F0E6ECA6
:1035100012F09EA007D025EC12F09E90DFEC11F087
:10352000F5EC12F0A1A207D0E4EC12F0A1929EEC0F
:1035300012F011EC13F0F2B2F2929EAA03D09E9A0E
:10354000C0EC16F0E55200EE19F00A0EE80403E3B1
:10355000E5CFEDFFFBD700EE0FF0100EE80403E31C
:10356000E5CFEDFFFBD7E5CFFAFFE5CFF4FFE5CFE1
:10357000F3FFE5CFF5FFE5CFF7FFE5CFF6FFE5CFAA
:10358000EAFFE5CFE9FFE5CFDAFFE550E5CFE0FF61
:10359000E5CFD8FF1000DACFE4FFE2CFDAFFE9CFC2
:1035A000E4FFEACFE4FFF6CFE4FFF7CFE4FFF5CF87
:1035B000E4FFF3CFE4FFF4CFE4FFFACFE4FF00EE43
:1035C00000F0100EE80403E3EECFE4FFFBD700EEBB
:1035D00010F00A0EE80403E3EECFE4FFFBD7E65257
:1035E000F2A407D03AEC11F0F2943CEC11F0E6ECC6
:1035F00012F09EA007D025EC12F09E90DFEC11F0A7
:10360000F5EC12F0A1A207D0E4EC12F0A1929EEC2E
:1036100012F011EC13F0F2B2F2929EAA03D09E9A2D
:10362000C0EC16F0E55200EE19F00A0EE80403E3D0
:10363000E5CFEDFFFBD700EE0FF0100EE80403E33B
:10364000E5CFEDFFFBD7E5CFFAFFE5CFF4FFE5CF00
:10365000F3FFE5CFF5FFE5CFF7FFE5CFF6FFE5CFC9
:0C366000EAFFE5CFE9FFE5CFDAFF11003B
:04366C00006A0EAE34
:103670003CEF1BF00E6C001E09AE41EF1BF0096C15
:10368000001E72EC1DF009BE4BEF1BF000AE000CEB
:10369000096C056C000C00BE48EF1BF00188FF0CA4
:1036A000006A0EAE59EF1BF00D6C0E1EE86A0E227A
:1036B000001E09AE61EF1BF0086C091EE86A0922C2
:1036C000001E3EEC1DF009BE71EF1BF000AE000CB9
:1036D000086C091EE86A0922046C051EE86A0522C6
:1036E000000C00BE68EF1BF00188FF0C006A0EAEF4
:1036F00081EF1BF00C6C0D1E0E1EE86A0D220E22CF
:10370000001E09AE8BEF1BF0076C081E091EE86A4D
:1037100008220922001E21EC1DF009BE9EEF1BF0BD
:1037200000AE000C076C081E091EE86A0822092278
:10373000036C041E051E04220522000C00BE92EF3D
:103740001BF00188FF0C006AE86A0EAEB0EF1BF0B8
:103750000B6C0C1E0D1E0E1E0C220D220E22001EC6
:1037600009AEBBEF1BF0066C071E081E091E0722E0
:1037700008220922001EFDEC1CF009BED2EF1BF04E
:1037800000AE000C066C071E081E091EE86A072220
:1037900008220922026C031E041E051E03220422B5
:0E37A0000522000C00BEC2EF1BF00188FF0CDA
:0237AE002E00EB
:1037B0003A0020002E00250D0A0059454C4C4F5769
:1037C0003A00475245454E3A005245443A00475266
:1037D00045454E5F4D4F44450059454C4C4F575F52
:1037E0004D4F44450053544F505F4D4F4445004E9C
:1037F0004F524D414C5F4D4F44450020200020204A
:1038000020475245454E5F4D4F4445202020002023
:10381000202059454C4C4F575F4D4F4445202000C8
:10382000473A00593A00523A002020202020202018
:103830002020202020202020200020202020204E7A
:103840004F524D414C202020202000202020535456
:0C3850004F505F4D4F44452020202000C9
:04385C001E0EF66ED8
:10386000000EF76E000EF86E01010900F5501F6F93
:103870000900F550206F03E11F6701D03DD009001A
:10388000F5501A6F0900F5501B6F0900F5501C6FB9
:1038900009000900F550E96E0900F550EA6E0900CB
:1038A00009000900F5501D6F0900F5501E6F090051
:1038B0000900F6CF21F1F7CF22F1F8CF23F11AC199
:1038C000F6FF1BC1F7FF1CC1F8FF01011D5302E108
:1038D0001E5307E00900F550EE6E1D07F8E21E07C3
:1038E000F9D721C1F6FF22C1F7FF23C1F8FF01017B
:0A38F0001F07000E205BBFD7120077
:0638FA00010E926E0E0E9D
:10390000C16EC26A040EC06EC2801200D9CFE6FF3B
:10391000E1CFD9FF020EE126DE6ADD6AC282C2B2C1
:10392000FED7C450DE6EDD6ADECF12F0DDCF13F0BD
:10393000D89012361336D89012361336060EC3CFEF
:10394000E7FF070B04E0E742E79EE806FCE1E750EB
:103950001224106E000E132010C0DEFFDD6EDECFCD
:1039600000F1DDCF01F1DECF10F0DDCF11F010C09E
:10397000F3FF11C0F4FF020EE15C02E2E16AE552DE
:0A398000E16EE552E7CFD9FF120017
:06398A0006500B02F3CF12
:1039900002F0F4CF03F00C02F3500326000EF420E3
:1039A000046E06500D02F3500426000EF420056E3E
:1039B00006500E02F350052607500B02F350032663
:1039C000F4500422000E052207500C02F350042686
:1039D000F450052207500D02F350052608500B0243
:1039E000F3500426F450052208500C02F35005262B
:0A39F00009500B02F35005261200E7
:0639FA00056A046A036A7D
:103A0000026A200EE76ED890063607360836093669
:103A100002360336043605360B50025C0C50035850
:103A20000D5004580E50055809E30B50025E0C501F
:103A3000035A0D50045A0E50055A062AE72EE4D7B1
:023A4000120072
:0E3A4200056A046A036A180EE76ED89007360C
:103A5000083609360336043605360C50035C0D5023
:103A600004580E50055807E30C50035E0D50045ADD
:0C3A70000E50055A072AE72EEAD7120074
:043A7C00056A046A69
:103A8000100EE76ED89008360936043605360D500C
:103A9000045C0E50055805E30D50045E0E50055AA7
:083AA000082AE72EF0D71200FE
:083AA800800EF36E00EE00F049
:103AB0000F0E01D81200EA6002D0EE6AFCD7F35074
:083AC000E9601200EE6AFCD778
:083AC8001EEE00F02EEE00F0EE
:103AD000F86A019C2EEC1CF003EC00F0A8EC08F056
:043AE000FBD71200FE
:0C3AE400056A080EE76ED890093605361A
:103AF0000E50055C02E3056E092AE72EF7D7120087
:103B000000000000000000000000000000000000B5
:103B100000000000000000000100010001000100A1
:103B2000C0F9A4B0999282F88090010204080005BF
:033B30000003008F
:0D3B33000102040810204080010000000085
:103B4000000000000000020103010000050203055F
:083B5000036400000000000006
:083B5800000000000000000065
:103B60001010101010101010181818181818181815
:103B70001C1C1C1C1C1C1C1C1E1E1E1E1E1E1E1E75
:103B80001F1F1F1F1F1F1F1F00000000000000003D
:103B90000000000000000000000000000000000025
:103BA0000000000000000000000000000000000015
:093BB0000000000000000000000C
:073BB900000000D0002222F1
:103BC000220725091000010000000000000000008D
:053BD0000000000000F0
:0B3BD5000000000000000000000000E5
:103BE00000000000000000000000000000000000D5
:0D3BF00000000000001020408001020408C9
:020000040030CA
:0100010002FC
:0100020003FA
:010003001EDE
:010005008179
:010006008178
:010008000FE8
:01000900C036
:01000A000FE6
:01000B00E014
:01000C000FE4
:01000D0040B2
:00000001FF
