:020000040000FA
:06000000DEEF12F0120019
:020006001200E6
:0600080041EF10F01200B0
:02000E000000F0
:020010000000EE
:0600180005EF10F01200DC
:02001E000600DA
:10002000C9260000330F000028000000AD260000A4
:10003000E10000001C0000000E000000280100008C
:10004000040000004C260000800000006100000059
:10005000272600005B0F000025000000F4250000AB
:08006000000F00003300000056
:08006800FFEC04F060D8E80E83
:10007000E66E030EE66E18D8E552E552A5DB0F01D9
:100080000B51FDE00B6B0F01722B7251106E116A58
:10009000050E101803E1115001E1726BE1EC0DF057
:1000A00023D913EC07F0EBD754EC04F0040EE1264F
:1000B000DE6ADD6ADECF10F0DDCF11F086EC04F0F1
:1000C00011501318E8AE02D0133404D01250105C53
:1000D000135011581DE2020EDB6A030EDB6A020E9A
:1000E000DBCF10F0030EDBCF11F0D890115004E6F7
:1000F000EE0E105C000E115806E2020EDB2A030E13
:10010000EEE3DB2AECD7DF2A010ED4E3DB2AD2D7D9
:10011000040EE15C02E2E16AE552E16ED4D3956A35
:10012000836A080E966E846E926A936A1200F7DFF5
:100130008AEC05F0D8EC0DF0FDEC0FF014EC06F0B5
:10014000EBEC06F0C4DB570EE66E120EE66E07EC23
:100150000CF0E552E552AE0EE66E240EE66E1DEC96
:100160000CF0E552E552660EE66EB70EE66E4CEC0C
:100170000CF0E552E552DADBA6EC0CF0E552E55264
:100180000A0EE66EE66AB2EC0CF0E552E552320E6B
:10019000E66EE66ACBEC0CF0E552E552DCEC0DF0D5
:1001A0000AEC0AF0F7EC11F022EF0FF0E4EC04F0A7
:1001B0000DE1ACDB133404E212500708000E1354B7
:1001C00005E362DBEF508310836E08D0A6DB06E107
:1001D000ED5004E159DBEF508410846E74D3E4ECED
:1001E00004F00DE193DB133404E212500708000E13
:1001F000135405E349DBEF1C8314836E08D08DDBB9
:1002000006E1ED5004E140DBEF1C8414846E5BD307
:100210004BDB44DBEF0406E199DB02EC05F03EDB4F
:10022000EF6A06D093DB07EC05F038DB010EEF6ECA
:100230004AD3E5DBDECF10F0DDCF11F0D8901150BE
:1002400004E60E0E105C000E115811E2DECFE6FF40
:10025000DDCFE6FFDCDB3BDBDECFE6FFDDCFE6FF1D
:10026000D1DB35DBDF2A010EE5E3DB2AE3D7020E23
:10027000E15C02E2E16AE552E16E25D315DBFE0E98
:10028000DB50030A20E0010A0EE0030A2CE128DB20
:1002900006E1ED5004E1030EFDDA040E0BD0060E6C
:1002A000F9DA070E0DD01CDB08E1ED5006E1040E73
:1002B000F1DA030EDFDA050E15D0070EEBDA060EC3
:1002C000D9DA080E0FD00CDB08E1ED5006E1050E7F
:1002D000E1DA040ECFDA030E05D0080EDBDA070EE2
:1002E000C9DA060EC7DAEFD20F016E51040A5BE0DD
:1002F000070A44E0010A0DE0030A61E1EBEC06F0B5
:100300003F0EE66E230E54DBB6D85CD8000959E0E8
:10031000F0D2EBEC06F02E0EE66E230E49DB1D0E3E
:10032000E66E230E58DB1A0EE66E230E54DB8CDBD2
:10033000C6DA170EE66E230EE66E060E74DB8ADB57
:100340001FDB080E13DB140EE66E230EE66E0C0E9A
:100350006ADB86DB15DB0E0E09DB95D833D8000986
:1003600003E00F01030E6E6F0F01010E331905E15B
:10037000345127E10F01010E6E6F1200EBEC06F015
:10038000030EE66E230E14DB79CF10F016DB79CF67
:10039000E6FF95DA51DA85D815D8000912E00F0189
:1003A000040E6E6F1200EBEC06F0F20EE66E220EFB
:1003B000FFDA42DA98D806D8000903E09AD2020E92
:1003C0006E6F12000F01010E3B1903E13C5101E178
:1003D000010C000C0F01010E371909E1385107E13A
:1003E0000F01732B7351630801E2736BD5D2000CBC
:1003F0000F01010E35190AE1365108E10F017307AB
:100400007351000802E3630E736FC6D2000CF7DA73
:100410000F016E51040A0BE0070A18E10F01010EEB
:10042000331914E1345112E173CF75FF08D00F0175
:10043000010E33190BE1345109E173CF76FF0F013F
:1004400075517625746F010EDE6EDD6AD9CFE9FF36
:10045000DACFEAFF010EEE1804E1ED5002E1010EE1
:1004600001D0000E106E020EE15C02E2E16AE5527C
:10047000E16E105028D262DACFDA010EE6D90F0110
:10048000020E326F12000F01010E326F47D871D881
:1004900078CFE6FF77CFE6FF52EC0DF0E552E5525C
:1004A00012000F01326B0F01725110E147DA020E98
:1004B000B3DACBD90F0179077951000807E30A0EA7
:1004C000796F8FDA74CF77FF76CF78FF7251106E25
:1004D000116A020E101806E1115004E1040ECAD987
:1004E000070EC8D927D20F010A0E796F0F01326BA0
:1004F0000F01725105E122DA030E8EDA030EA5D93F
:100500000F017251106E116A020E101806E111509F
:1005100004E1050EAFD9080EADD90CD20F016F5111
:10052000020A1BE0010A0DE0020A01E0120006DAED
:100530003BDA1EE1770777511BE176CF77FF030E99
:100540000AD0FCD9030E30DA13E17707775110E1B6
:1005500075CF77FF020E6F6F1200F0D9020E24DA0A
:1005600007E17707775104E174CF77FF010E6F6FD2
:1005700012000F017051030A1BE0010A0EE0030A8A
:1005800001E01200D3D9010E0FDA1DE1780778518E
:100590001AE176CF78FF030E09D0C8D905DA13E146
:1005A0007807785110E174CF78FF010E706F120058
:1005B000BDD9030EF9D907E17807785104E175CF69
:1005C00078FF020E706F12006FD9040EE12600EC66
:1005D00012F0F3CFDEFFF4CFDDFFDECF06F0DDCF8C
:1005E00007F0086A096A07AE02D008680968100EA9
:1005F0000B6E270E0C6E0D6A0E6A3FEC12F002C0F5
:1006000006F003C007F004C008F005C009F00B684D
:10061000030E0C6E0D6A0E6A1DEC11F0020E06C080
:10062000DBFF030E07C0DBFF43D8B1D90F016E51CA
:10063000040A12E0070A0CE0020A06E0030A10E1CD
:10064000E30EE66E220E0BD0D90EE66E220E07D018
:10065000CD0EE66E220E03D0C20EE66E220EF8D844
:1006600096D9BD0EE66E220EF3D8EED9FFD9B60E9E
:10067000E66E220EEDD8F4D9F9D9AE0EE66E220E52
:10068000E7D8E8D9F3D9020EDBCFE6FF030EDBCFC4
:10069000E6FF55EC0BF0E552E552AA0EE66E220E8F
:1006A000D7D8040EE15C02E2E16AE552E16E0BD1BB
:1006B000E66AACEC0FF0E5520F017A6F010E21D91A
:1006C0000F017B6F020E1DD90F017C6F040E19D92B
:1006D0000F017D6F050E15D90F017E6F060E11D922
:1006E0000F017F6F2FD97DCF09F0C8D810AE03D08E
:1006F00011681268136836D97DCF09F0B3D810AEEF
:1007000003D011681268136893D97ECF09F0B6D868
:1007100010AE03D011681268136824D97ECF09F097
:10072000A1D810AE03D011681268136881D97FCFA9
:1007300009F0A4D810AE03D011681268136812D95A
:100740007FCF09F08FD810AE03D0116812681368FC
:1007500009D9A60EE66E220E34D97CCF09F08ED8C8
:1007600010AE03D0116812681368FCD87CCF09F072
:1007700079D810AE03D01168126813685FD97BCFA7
:1007800009F07CD810AE03D0116812681368EAD85B
:100790007BCF09F067D810AE03D0116812681368D8
:1007A0004DD97ACF09F06AD810AE03D0116812681B
:1007B0001368D8D87ACF09F055D810AE03D0116895
:1007C00012681368B2EF04F0200E9BD8220805E0EF
:1007D00005D8220EE66E200E6CD812000F01320EE4
:1007E0007A6F3B0E7B6F170E7C6F1F0E7D6F0C0EAA
:1007F0007E6F0E0E7F6F7ACFE6FFE66AA2EC0FF0F7
:10080000E552E5527BCFE6FF010E53D87CCFE6FFE1
:10081000020E4FD87DCFE6FF040E4BD87ECFE6FF09
:10082000050E47D87FCFE6FF060E59EF04F0A8D893
:10083000CEEC0AF0E552F3D073CF10F0BED873CFF0
:10084000E6FF9ED80A0EB6EF04F0E66E17DDE7D09D
:10085000E66E66EC0AF0E552E5521200E2EC07F0B3
:10086000E552DDD00A0E0E6EB0EC10F005C010F0AF
:10087000DDEF04F0E66EE66A02EF05F0B0EC10F092
:1008800009C010F0DDEF04F0B3D85B0EE9260F0EBF
:10089000EA221200E66EE66A07EF05F0A9D8640EB8
:1008A000E9260F0EEA221200D9CFE6FFE1CFD9FFE9
:1008B0001200E66EA2EC0FF0E552E552120060D88D
:1008C000020EB6EF04F0E552E7CFD9FF1200F40EA6
:1008D000E66E010EE66E54EC00F0E552E5521200B1
:1008E000D950FC0FE96EFF0EDA20EA6E010EEE1809
:1008F00012000F0176D8726B74CF77FF76CF78FF36
:100900001200E66EACEC0FF0E5521200FD0EDBCFEC
:1009100012F0FE0EDBCF13F01200D950FD0FE96E7E
:10092000FF0EDA20EA6E080EEE181200020EE66ED6
:10093000E66A12004FDD5CDD07EF02F0010EE66EA5
:10094000E66A12000A0E146E0E6E1200FD0EDBCF68
:10095000E6FFFE0EDBCFE6FF1200020EE126DE6AA6
:10096000DD6A120010C0E6FF17EF04F0E66E010E1C
:10097000E66E94EC07F0146E060EE15E1450120061
:1009800011C0E6FF12C0E6FF13C0E6FF1200EF0E33
:10099000E66E220E28EF04F0EF0EE66E220EE66EF3
:1009A0000A0E41D849DF010C50DF0F0172511200CD
:1009B000E66EE66AE66A2EEF04F0116A126A136ABE
:1009C000120046DFA2EF04F06FDFFE0EDBCF11F066
:1009D000800E11141200E66EE66A010EE66E2EEF2E
:1009E00004F0020E6E6F010E6F6F030E706F120037
:1009F000FD0EDBCFE9FFFE0EDBCFEAFF120054DF76
:100A0000ADEF04F0EFEC00F0E552E5521200D6EC49
:100A100000F0E552E552120018DF96EF04F0E552BF
:100A2000E552E5521200E66E010EE66E2EEF04F07E
:100A300099DFA80EE66E220EE1EF04F093DFA40E1C
:100A4000E66E220EE1EF04F074CF10F0B6DF74CF43
:100A5000E6FF120075CF10F0B0DF75CFE6FF120091
:100A600076CF10F0AADF76CFE6FF1200E0DEC7EF08
:020A700004F090
:0E0A7200D3EC09F0E3DB11AE02D0126813687A
:100A80008CDB13E2F1DBB1DB04E6050E105C000E3B
:100A9000115806E2020EDB2A030EF5E3DB2AF3D738
:100AA000DF2A010EE8E3DB2AE6D7040EE15C02E26E
:100AB000E16AE552E16E1FD3D3EC09F0C0DB11AE61
:100AC00002D01268136869DB13E2CEDB8EDB04E62A
:100AD000EE0E105C000E115806E2020EDB2A030E29
:100AE000F5E3DB2AF3D7DF2A010EE8E3DB2AE6D7BA
:100AF000040EE15C02E2E16AE552E16EFCD2D9EC5F
:100B000009F0F00B85EC09F0FE0EDB38F00B8112DA
:100B1000CDDAF1D2D0EC09F0190EC2DB0F0E81163E
:100B2000F80E81160F0E8116300EEFDB300EEDDB66
:100B3000300EEBDB818ABADA280EE66EE0DFE55292
:100B40000C0EE66EDCDFE552E552D5D2C6EC09F0BC
:100B5000010EDB6A8194DEDBE76E010EE7CFDBFF7F
:100B60008196D8DBDF6E010EDB50DF128196010E1D
:100B7000A4DADF50106E020EE15C02E2E16AE55297
:100B8000E16E1050B8D2D0EC09F0DF6ADFDFDF6E23
:100B9000DFBEFCD7DF50E552AED2D9EC09F08112AE
:100BA0008186050E8ADA8196050E87DAA4D29EDA4E
:100BB0008194050E82DAFDDA9ED298DA8184050EE0
:100BC0007CDAF7DA819497D2CDD3CCD38FDAFD0ECD
:100BD000DBCFF6FFFE0EDBCFF7FF0800F5500DE090
:100BE000FD0EDBCFF6FFDB2AFE0EDBCFF7FF01E3C6
:100BF000DB2A0800F550ADDBEAD77DD2D1DBFD0E54
:100C0000DB500F0B106EFE0EDB50010B400DF3504E
:100C10001024DF6E7F0EDF14800FDF6EDFCFE6FF64
:100C2000C6DFE552E55267D2010EE66EC0DFE5523F
:100C3000E66AE66ADFEF09F059DA050EE126010EF1
:100C4000F36EDB6E11DB040EDB6ADF6ADFCF10F0C0
:100C5000116A10BE1168FADA11501318E8AE02D00A
:100C6000133404D01250105C135011581FE2FD0EC3
:100C7000DBCF10F0FE0EDBCF11F0126A136A11AE5B
:100C800002D012681368D950010FE96EDACFEAFF7B
:100C900010C00BF011C00CF012C00DF013C00EF01C
:100CA00096DB3FEC12F069DBDF2AD0D7010EDBCFF9
:100CB00010F0020EDBCF11F0030EDBCF12F0040EAA
:100CC000DBCF13F004DB050EE15C02E2E16AE552E2
:100CD000E16E11D25BDBFB0EDBCF10F0FC0EDBCF45
:100CE00011F0FD0EDBCF12F0FE0EDBCF13F0105033
:100CF00011101210131003E1300E2BDB36D0D95037
:100D0000FB0F7CDA01E680DA05E22D0E22DBD950FA
:100D1000FB0F36DADE52070EDD6E9FDAE8AE02D048
:100D2000103403D0E750D88010541FE27FDA14BE8D
:100D30001568CAD9ACDAF7DA70DA0BE0010EDF6EAB
:100D4000DB04186E196A18BE1968EFD9ECDA0BDAF1
:100D500003D0DF5002E0300EFCDA68DA14BE15680A
:100D6000B3D9D950FB0FD8D9D8D7020EE15C02E233
:100D7000E16AE552E16EBFD1B9D931DAD950F90F44
:100D8000ECDAEECFE6FFEECFE6FFEECFE6FFEFCFF9
:100D9000E6FFA0DF25DBAFD1A9D921DAFB0EDBCF3F
:100DA000E6FFFC0EDBCFE6FF11DFE552E552A3D1F3
:100DB0009DD924C110F025C111F0040ED890103631
:100DC0001136E806FBE1FFD9FE0EDBCFEFFF262B45
:100DD000000E272390D1E4DADF6ADFCF10F0100E87
:100DE000E76E1018E8AE02D0E73402D0E750105C8E
:100DF00018E2DFCFE9FFEA6AE9BEEA68C10EE92638
:100E0000000EEA22200EEF6EDFCFE9FFEA6AE9BEAC
:100E1000EA68D10EE926000EEA22200EEF6EDF2AE4
:100E2000DCD7E55268D1BCDA0001C051030A29E0E1
:100E3000010A1CE0030A0CE0010A32E1C4DA080EE0
:100E4000DF5C03E2DF5055DAFAD70001010E17D05C
:100E5000080EE66EE66A78D9080EDF5C04E2080E3A
:100E6000DF2447DAF9D70001020E09D094DA080E20
:100E7000DF5C03E2DF5043DAFAD70001030EC06FF4
:100E800010D0080EE66E010EE66E5ED9080EDF5C2D
:100E900004E2080EDF2433DAF9D70001C06B01D079
:100EA000C06BE55228D17CDA0001C051010A0DE087
:100EB000010A15E188DA100EDF5C03E2DF5019DA6F
:100EC000FAD70001010EC06F0BD065DA100EDF5C9F
:100ED00003E2DF5014DAFAD70001C06B01D0C06B17
:100EE000E55209D15DDA6FDA100EDF5C03E2DF5004
:100EF00000DAFAD750DA100EDF5C03E2DF50FFD9D8
:100F0000FAD7E552F8D0F2D822D924C110F025C181
:100F100011F0040ED89010361136E806FBE153D9D3
:100F2000FC0EDBCFEFFFE7D031DA11D9F90EDBCFC2
:100F300010F0FA0EDBCF11F089D9105011101210F9
:100F4000131003E1300E77D936D0D950F90F56D9A6
:100F500001E65AD905E22D0E6ED9D950F90F10D9F4
:100F6000DE52070EDD6E79D9E8AE02D0103403D020
:100F7000E750D88010541FE259D914BE1568A4D880
:100F800086D9DCD94AD90BE0010EDF6EDB04186E7E
:100F9000196A18BE1968C9D8D1D9E5D803D0DF506D
:100FA00002E0300E48D942D914BE15688DD8D95008
:100FB000F90FB2D8D8D7020EE15C02E2E16AE5523D
:100FC000E16E99D093D8C3D8FB0EDBCFF6FFFC0EB1
:100FD000DBCFF7FF0800F5500DE0FB0EDBCFF6FF8F
:100FE000DB2AFC0EDBCFF7FF01E3DB2A0800F5501C
:100FF00022D9EAD780D07AD8050EE12602DAF90E96
:10100000DBCFEEFFFA0EDBCFEEFFFB0EDBCFEEFF0A
:10101000FC0EDBCFEEFF2DD9E80E0B6E030E0C6E2F
:101020005AD8FD0EDBCFE6FF6AD8640E0B6E0C6A51
:1010300052D8FD0EDB28E66E26D9640E0B6E0C6AC4
:1010400037D9A20EE66E220EE66EFD0EDB50020FC1
:10105000E66EDCD9B7DFC4D90CD90A0E0B6E0C6A68
:101060003AD8FD0EDB50030FE66E49D80A0E0B6E20
:101070000C6AC2D902C010F003C011F004C012F013
:1010800005C013F002C0E6FF03C0E6FF04C0E6FFA0
:1010900005C0E6FFFD0EDB50040FE66EA6D9050E77
:1010A000E15C02E2E16AE552E16E25D08186010E43
:1010B000F7D88196010E50EF09F0E66EE66AE66A0F
:1010C000E66AD7DCF0EF09F014C0E6FF15C0E6FFD2
:1010D0004ED970EF09F090D903D906C0E6FF07C0DA
:1010E000E6FF08C0E6FF09C0E6FF1200D9CFE6FF21
:1010F000E1CFD9FF1200E552E7CFD9FF1200C3D8E4
:10110000E80E0B6E030E0C6ED3D839EF09F0EA220D
:10111000EF501FD9DF2A120020D9B9D858D977EC5F
:1011200012F02BD9010EDB06120018C0E6FF19C021
:10113000E6FF1DD906C014F007C015F008C016F070
:1011400009C017F047EF09F03AD9DF6A1200FE0E26
:10115000DB50010B0101246F256BFD0EDB500F0BE3
:10116000266F276B1200DBCF09F077EC12F0B8D8AE
:10117000300E1026000E11221222132210501200DF
:10118000ECD8000EEE6CEF1EEE22EF1EEE22EF1EEC
:10119000EF22ED52ED52ED521200D950FB0FDDD887
:1011A000EE50105CEE501158EE501258EE5013589D
:1011B00012002CD9F2DCE552FE0EDB38F00BE66EA5
:1011C000ECDCE5521200C10E1026000E1122105068
:1011D00001012625E96E11502721EA6E1200FD0E4D
:1011E000DBCFE6FF13D9DFEF09F0020EDBCF10F003
:1011F000030EDBCF11F0D89011501200AED8D8906A
:10120000030EEB50000A1200000EEE5C000EEE58CA
:10121000000EEE58000EEE581200DBCF09F077EC0E
:1012200012F006500710081009101200010EDB041E
:10123000146E156A1200E66EBBDDE5521200DECFB9
:1012400010F0DDCF11F0126A136A1200FB0EDBCF33
:1012500012F0FC0EDBCF13F01200010EDBCF10F00A
:10126000000EE76E10181200020EDB6A030EDB6A36
:101270001200C7D8EECF10F0EECF11F0EECF12F083
:10128000EFCF13F01200B1D8BCD8E7EF09F006C0D9
:101290000BF007C00CF008C00DF009C00EF01200F2
:1012A000E66EE66AE66AE66A5CEC05F0F0EF09F0E5
:1012B0000D6A0E6A1DEC11F002C0DEFF03C0DEFFF6
:1012C00004C0DEFF05C0DDFFDD52DD52120010C09C
:1012D00006F011C007F012C008F013C009F01200A8
:1012E00006C010F007C011F008C012F009C013F0DA
:1012F0001200EA6AC10FE96E000E87EF08F0EA6A91
:10130000D10FE96E000E87EF08F08112CFDE0F0ECD
:10131000811612000F0ED1DE0F0E81128186CDDEF6
:101320000F0E81141200FB0EDBCF06F0FC0EDBCF9C
:1013300007F0FD0EDBCF08F0FE0E1200F90EDBCF3A
:1013400006F0FA0EDBCF07F0FB0EDBCF08F0FC0E49
:101350001200E66E3ADCE5521200E96EFF0EDA206A
:10136000EA6E1200C3DE52D828DCE552C4D60A0E5B
:10137000E66EE66A61DCF0EF09F005C0EDFF04C03F
:10138000EDFF03C0EDFF02C0EFFF1200AFDE020E63
:10139000E126DF6A1200E66A010EE66EA4EF08F0AD
:1013A000A5DEE6521200A2DE040EE126DE6ADD6A48
:1013B00012009CDE0F0E8116FE0EDB5012001EDCAA
:1013C000E552E5521200E66AE66AA4EF08F0EECFB5
:1013D00006F0EECF07F0EECF08F0EFCF09F01200E5
:1013E000E552E552E552E552120010D89DDD146E2B
:1013F000060EE15E145012000D6A0E6A68DF1DEFE2
:1014000011F0D9CFE9FFDACFEAFF1200FE0EDBCFF1
:04141000E6FF1200E1
:0C141400B06A810EAF6EAC8AAC94B88652
:10142000AC98AB8EAB889E9A9D8A9F9A949C948E22
:10143000120075D9040EE126DE6ADD6ADECF10F0F7
:10144000DDCF11F0BBD911501318E8AE02D0133420
:1014500004D01250105C135011581DE2020EDB6ACA
:10146000030EDB6A020EDBCF10F0030EDBCF11F0B0
:10147000D890115004E6EE0E105C000E115806E2F2
:10148000020EDB2A030EEEE3DB2AECD7DF2A010E85
:10149000D5E3DB2AD3D7040EE15C02E2E16AE55230
:1014A000E16E42D13CD99EA8FED7FE0EDB50AD6E58
:1014B0009E983AD134D97AD908E078D951D9FD0E1D
:1014C000DB2AFE0EF8E3DB2AF6D72ED128D953D932
:1014D0000CE051D945D9FD0EDBCFF6FFDB2AFE0E1D
:1014E000DBCFF7FFF4E3DB2AF2D71ED118D9050EC4
:1014F000E126010EF36EDB6E020EDB6A030EDB6A81
:10150000040EDB6ADF6ADFCF10F0116A10BE1168CB
:10151000FB0EDBCF12F0FC0EDBCF13F011501318D3
:10152000E8AE02D0133404D01250105C135011589E
:101530001AE266D9126A136A11AE02D012681368F1
:10154000D950010FE96EDACFEAFF10C00BF011C0DD
:101550000CF012C00DF013C00EF016D93FEC12F0D3
:101560001CD9DF2AD0D7010EDBCF10F0020EDBCF63
:1015700011F0030EDBCF12F0040EDBCF13F010C01E
:1015800006F011C007F012C008F013C009F0050EF4
:10159000E15C02E2E16AE552E16EC6D0C0D8020E1B
:1015A000E126DF6AFB0EDBCF10F0FC0EDBCF11F083
:1015B00005D9105011101210131003E1300ED0D8BD
:1015C0006DD0D2D8D890030EEB50000A08E6000E7A
:1015D000EE5C000EEE58000EEE58000EEE580EE2D5
:1015E0002D0EBED8C1D8000EEE6CEF1EEE22EF1EFF
:1015F000EE22EF1EEF22ED52ED52ED52DE520A0EB8
:10160000DD6E010EDBCF10F0000EE76E1018E8AEB5
:1016100002D0103403D0E750D88010543FE2010EBE
:10162000DB04146E156A14BE156872D862D80650B1
:101630000710081009101EE0010EDF6EDB04186EA3
:10164000196A18BE196818C0E6FF19C0E6FFBDD8B0
:1016500006C014F007C015F008C016F009C017F056
:1016600048D8BCD8300E1026000E112212221322A8
:10167000105003D0DF5002E0300E72D8010EDB04B0
:10168000146E156A14BE156843D86ED8B0D87CD8CD
:1016900077EC12F082D8010EDB06B3D7020EE15CC4
:1016A00002E2E16AE552E16E3FD039D841D808C084
:1016B00010F009C011F0126A136A11AE02D012685C
:1016C000136840D82E0E4CD833D804C010F005C093
:1016D00011F0126A136A11AE02D01268136832D880
:1016E00023D01DD8E652AE50DF6EDFCFFDF0E552BD
:1016F0001BD07DD8FB0EDBCF06F0FC0EDBCF07F056
:10170000FD0EDBCF08F0FE0EDBCF09F077EF12F015
:1017100014C0E6FF15C0E6FF58D8EEEF0BF0D9CFA6
:10172000E6FFE1CFD9FF1200E552E7CFD9FF120063
:1017300067D8640E0D6E0E6A10C008F011C009F073
:10174000CAEF10F010C0E6FF11C0E6FF12C0E6FFBE
:1017500013C0E6FF23DFE552E552E552E5521200E1
:10176000E66EA0DEE5521200D950FB0FE96EFF0EC7
:10177000DA20EA6E1200FD0EDBCFF6FFFE0EDBCFA5
:10178000F7FF0800F5501200EECF06F0EECF07F09D
:10179000EECF08F0EFCF09F0120005C0EDFF04C056
:1017A000EDFF03C0EDFF02C0EFFF1200FD0EDBCF27
:1017B000E9FFFE0EDBCFEAFFEF501200FD0EDBCF9C
:1017C00012F0FE0EDBCF13F012000A0EE66EE66A90
:1017D0008DDEE552E552E552E552120006C010F0EA
:1017E00007C011F008C012F009C013F0120006C0C3
:1017F0000BF007C00CF008C00DF009C00EF012008D
:0E180000FD0EDBCF10F0FE0EDBCF11F012005C
:02180E006ED991
:10181000D59EFD0EDBCF00FFFE0EDBCF01FFD59C7A
:10182000A4D9D59AD586F28AF294F184D58E63D163
:10183000D59E12009AD9D58E120058D9CD90FD0EA2
:10184000DBCF02FFFE0EDBCF03FF96D99D809E907B
:101850009F90CD8ECD8CCD98CD9ACD96CD92CD80CA
:101860004AD18AD9CD801200CD9012003FD9CA94B6
:10187000CC6AFE0EDB500F01046F056BCB6E9D82B0
:101880009E929F92CA90CA92CA8435D104CFCBFF50
:10189000CA841200CA94120029D9B190FD0EDBCF80
:1018A00006FFFE0EDBCF07FF6ED90750B36E6BD974
:1018B00044D9B26EA082A192A292B18EB198B19A8F
:1018C000B192B18018D15FD90350B26E5CD92DD9D5
:1018D000B36EB1801200B19012000F01102B000EF8
:1018E00011231851105D1951115905E3106B116B3B
:1018F000010E086FA8D812000F01122B000E13233F
:101900001A51125D1B51135904E3126B136B010E34
:10191000096F12000F01142B000E15231C51145DCA
:101920001D51155904E3146B156B010E0A6F12005B
:101930000F01162B000E17231E51165D1F5117594C
:1019400004E3166B176B010E0B6F1200CFD8FD0E60
:10195000DBCF18FFFE0EDBCF19FF0F01106B116BF1
:10196000086BC9D0C3D8FD0EDBCF1AFFFE0EDBCF4C
:101970001BFF050E0D6E0E6A1ACF08F01BCF09F083
:10198000CAEC10F008C01AFF09C01BFF0F01126B50
:10199000136B096BB0D0AAD8FD0EDBCF1EFFFE0E75
:1019A000DBCF1FFF0A0E0D6E0E6A1ECF08F01FCF91
:1019B00009F0CAEC10F008C01EFF09C01FFF0F019C
:1019C000166B176B0B6B97D091D8020EE126DE6A6F
:1019D000DD6ADE6ADD6ADECF10F0DDCF11F0D8906F
:1019E000115004E6080E105C000E115817E2FE0EAE
:1019F000DB50DF5206E0DFCFF3FFE846FE0BF306D5
:101A0000FCE1800B800802E1838001D08390838217
:101A10008392DF2A010EDFE3DB2ADDD7020EE15CD1
:101A200002E2E16AE552E16E66D060D8FD0EDBCFDE
:101A3000E6FFCADFE552FE0EDBCFE6FFC5DFE5526B
:101A40008384839458D052D8E652DF6A0F01325112
:101A5000020A1EE0020A16E0010A22E1DF6A040E11
:101A6000DF5C1EE2DF50EA6A2E0FE96E0F0EEA22FB
:101A7000EF50EA6A200FE96E0F0EEA22EF50E66E91
:101A80003ED8EDD7E66AE66AD0DFE552E55208D0E7
:101A9000DF6A040EDF5C04E228CFE6FF30D8F9D716
:101AA000E55229D023D851D809C02EFF4ED805C001
:101AB0002FFF53D809C030FF50D805C031FF1BD0CD
:101AC000186A1650135C106E17501458116E185087
:101AD0001558126E0C6A010E0D6E0E6A10C007F0DA
:101AE00011C008F012C009F0F0EF10F0D9CFE6FFF6
:101AF000E1CFD9FF1200E552E7CFD9FF1200DF5046
:101B0000EA6A2A0FE96E0F0EEA22EF50E66E8DDFC9
:101B1000E552E552010EE66E54EC00F0E552DF2A84
:101B2000120013681468156A120007C010F008C08C
:101B300011F009C012F00750120003C010F004C0E9
:101B400011F005C012F0035012000A0E106E0E6E56
:101B5000FE0EDBCF09F0ECEF12F00A0E106E0E6EE7
:101B6000FD0EDBCF09F0ECEF12F014D80350D66E67
:101B700011D8DBDFD76E120014D80750CF6E11D802
:101B8000DCDFCE6E1200CDDF06CF16F007CF17F0E8
:101B900060EF0DF0C6DF00CF16F001CF17F060EF59
:101BA0000DF0BFDF02CF16F003CF17F060EF0DF09E
:101BB0000F0E946E82681200CF0E9414946E826899
:101BC0001200C0D8E0D801E6E2D816E2CDD8E4D8B9
:101BD000C2D801E6DCD80BE2A8D802E1E3D801D0F4
:101BE00001D9020EDB2A030EF3E3DB2AF1D7DF2A49
:101BF000010EE8E3DB2AE6D7040EE15C02E2E16ACB
:101C0000E552BCD09FD8BFD804E6020E105C000E8F
:101C100011581AE2A9D88214826E0F0E8210BCD815
:101C20009AD801E6B4D80BE280D802E1BBD801D043
:101C3000D9D8020EDB2A030EF3E3DB2AF1D7DF2A21
:101C4000010EE1E3DB2ADFD7040EE15C02E2E16A88
:101C5000E55294D077D8CAD8FD0EDBCF12F0FE0E35
:101C6000DBCF13F011501318E8AE02D0133404D0B8
:101C70001250105C1350115816E2020EDB6A030E6C
:101C8000DB6A69D804E6EE0E105C000E115806E21D
:101C9000020EDB2A030EF5E3DB2AF3D7DF2A010E5F
:101CA000DAE3DB2AD8D7040EE15C02E2E16AE5520E
:101CB00065D048D868D801E66AD821E255D86CD8F2
:101CC0004AD801E664D80DE28DD82FD804E11DD89A
:101CD000010EEE6EED6A020EDB2A030EF1E3DB2A43
:101CE000EFD78250816EE80EE66E030EE66EB2DF2D
:101CF000E552E552DF2A010EDDE3DB2ADBD7040ED5
:101D0000E15C02E2E16AE55239D070D8D890103631
:101D10001136D89010361136020EDB501024E96EC1
:101D2000030EDB501120FBEF0EF0020EDBCFE9FFBC
:101D3000030EDBCFEAFF570EE9260F0EEA22EF5023
:101D400082141200D9CFE6FFE1CFD9FF040EE126BD
:101D5000DE6ADD6A1200020EDBCF10F0030EDBCF6D
:101D600011F0D89011501200DECFE9FFDDCFEAFF6D
:101D7000530EE9260F0EEA22EF1C1200E16EE55227
:101D8000E7CFD9FF120032D8D89011501200040EBC
:101D9000105C000E11581200826E020EDB6A030EF8
:101DA000DB6A1200DECF14F0DDCF15F0D8901436C8
:101DB0001536D89014361536020EDB501424E96E11
:101DC000030EDB50152017D8EECF12F0EFCF13F033
:101DD000010E1226000E132298DF12C0EEFF13C070
:101DE000EDFF120092DFEE6AED6A1200DECF10F016
:101DF000DDCF11F01200EA6ED890E936EA36330EE4
:081E0000E9260F0EEA22120090
:081E0800F0D8FE0EDB500F0BB9
:101E1000DF6EFE0EDB380F0B0A0DD6D802E2E16A48
:101E2000E552E16E1050C3D0E0D8D7D80550DF6E30
:101E3000D4D80950100DC8D802E2E16AE552E16E2B
:101E40001050B5D0949694981200ACD8E652DF6A40
:101E5000FE0EDB50DF5C02E2DF2AFAD7E552A7D0A4
:101E600082A8000C010C0001FC5102E082888286ED
:101E700082988296010EFC6F120082988286828878
:101E80000001FC6B1200B1D8DF6ADFCF10F0080E42
:101E9000E76E1018E8AE02D0E73402D0E750105CCD
:101EA0000FE2FE0EDBBE02D0829801D082888286CD
:101EB0008296DB50020DFE0EF3CFDBFFDF2AE5D763
:101EC00094888286CDDFE76E010EE7CFDBFF829636
:101ED0009498DB50106E020EE15C02E2E16AE5527A
:101EE000E16E105064D081D8DF6A9488010EDB6AFD
:101EF000DBCF10F0080EE76E1018E8AE02D0E73422
:101F000002D0E750105C0BE28286AADF106EDF5031
:101F1000E8241010DF6E8296010EDB2AE9D7949830
:101F2000FE0EDB5002E0828801D082988286829683
:101F3000DF50106E020EE15C02E2E16AE552E16EF2
:101F4000105035D02FD837D8FD0EDBCFE6FF6CDF31
:101F5000E5524FD892DF2BD025D8E6522CD883DF1C
:101F6000D10E47D8010EE66EBEDFE552DF6EDFCF41
:101F7000E6FF4ADFE552DF6E80DFDF50E55217D023
:101F800011D8FD0EDBCFE6FFFE0EDBCFE6FFDADF7A
:101F9000E552E5520CD006D8FE0EDBCFE6FFDCDFC3
:101FA000E55205D0D9CFE6FFE1CFD9FF1200E552C7
:101FB000E7CFD9FF120057DFD00E1BD8FE0EDBCFC4
:101FC000E6FF61DFE5521200010EF3CFDBFFDB50CD
:101FD000DF24106E020EE15C12000A0E106E0E6E0F
:101FE000FE0EDBCF09F0ECEF12F0DCDF020EE12693
:0A1FF0001200E66E48DFE552120011
:061FFA00F28ED08EF28C85
:102000001200F19CF292F2881200D8CFE4FFE0CFE8
:10201000E4FFE46E68D800EE00F0100EE80403E37D
:10202000EECFE4FFFBD700EE10F00A0EE80403E366
:10203000EECFE4FFFBD7E652F2B47DD89EB082D853
:10204000A1B287D8F2B2F2929EAA03D09E9A71EC06
:102050000BF0E55200EE19F00A0EE80403E3E5CFB9
:10206000EDFFFBD700EE0FF0100EE80403E3E5CF21
:10207000EDFFFBD74DD8E550E5CFE0FFE5CFD8FF2A
:10208000100031D800EE00F0100EE80403E3EECFAC
:10209000E4FFFBD700EE10F00A0EE80403E3EECFF6
:1020A000E4FFFBD7E652F2B446D89EB04BD8A1B2BB
:1020B00050D8F2B2F2929EAA03D09E9A71EC0BF025
:1020C000E55200EE19F00A0EE80403E3E5CFEDFF58
:1020D000FBD700EE0FF0100EE80403E3E5CFEDFFB1
:1020E000FBD716D81100DACFE4FFE2CFDAFFE9CF51
:1020F000E4FFEACFE4FFF6CFE4FFF7CFE4FFF5CF4C
:10210000E4FFF3CFE4FFF4CFE4FFFACFE4FF1200E3
:10211000E5CFFAFFE5CFF4FFE5CFF3FFE5CFF5FF1D
:10212000E5CFF7FFE5CFF6FFE5CFEAFFE5CFE9FF23
:10213000E5CFDAFF120018EC0CF0F2941AEC0CF078
:102140006DEF0CF034EC0CF09E9031EC0CF07CEF69
:102150000CF06BEC0CF0A19263EC0CF098EF0CF02F
:10216000006A0EAEB6EF10F00E6C001E09AEBBEFAB
:1021700010F0096C001EECEC12F009BEC5EF10F077
:1021800000AE000C096C056C000C00BEC2EF10F034
:102190000188FF0C006A0EAED3EF10F00D6C0E1E1E
:1021A000E86A0E22001E09AEDBEF10F0086C091E73
:1021B000E86A0922001EB8EC12F009BEEBEF10F03D
:1021C00000AE000C086C091EE86A0922046C051EAA
:1021D000E86A0522000C00BEE2EF10F00188FF0C57
:1021E000006A0EAEFBEF10F00C6C0D1E0E1EE86ABE
:1021F0000D220E22001E09AE05EF11F0076C081E1D
:10220000091EE86A08220922001E9BEC12F009BE92
:1022100018EF11F000AE000C076C081E091EE86AEA
:1022200008220922036C041E051E04220522000C4C
:1022300000BE0CEF11F00188FF0C006AE86A0EAED8
:102240002AEF11F00B6C0C1E0D1E0E1E0C220D221F
:102250000E22001E09AE35EF11F0066C071E081E97
:10226000091E072208220922001E77EC12F009BE7F
:102270004CEF11F000AE000C066C071E081E091E84
:10228000E86A072208220922026C031E041E051EAA
:10229000032204220522000C00BE3CEF11F001884D
:0222A000FF0C31
:0E22A2002E003A0020002E00250D0A0059459E
:1022B0004C4C4F573A00475245454E3A0052454420
:1022C0003A00475245454E5F4D4F44450059454CF5
:1022D0004C4F575F4D4F44450053544F505F4D4F47
:1022E0004445004E4F524D414C5F4D4F44450020F8
:1022F0002000202020475245454E5F4D4F44452049
:1023000020200020202059454C4C4F575F4D4F4412
:1023100045202000473A00593A00523A0020202038
:1023200020202020202020202020202020002020CD
:102330002020204E4F524D414C20202020200020B4
:10234000202053544F505F4D4F4445202020200003
:102350001E0EF66E000EF76E000EF86E01010900FB
:10236000F5501F6F0900F550206F03E11F6701D082
:102370003DD00900F5501A6F0900F5501B6F090098
:10238000F5501C6F09000900F550E96E0900F55081
:10239000EA6E090009000900F5501D6F0900F550AB
:1023A0001E6F09000900F6CF21F1F7CF22F1F8CF17
:1023B00023F11AC1F6FF1BC1F7FF1CC1F8FF010191
:1023C0001D5302E11E5307E00900F550EE6E1D0794
:1023D000F8E21E07F9D721C1F6FF22C1F7FF23C19A
:0E23E000F8FF01011F07000E205BBFD712009F
:0223EE00010EDE
:1023F000926E0E0EC16EC26A040EC06EC2801200D2
:10240000D9CFE6FFE1CFD9FF020EE126DE6ADD6A11
:10241000C282C2B2FED7C450DE6EDD6ADECF12F0D9
:10242000DDCF13F0D89012361336D890123613360B
:10243000060EC3CFE7FF070B04E0E742E79EE8067E
:10244000FCE1E7501224106E000E132010C0DEFFD6
:10245000DD6EDECF00F1DDCF01F1DECF10F0DDCF9C
:1024600011F010C0F3FF11C0F4FF020EE15C02E2B4
:0E247000E16AE552E16EE552E7CFD9FF1200B6
:02247E00065006
:102480000B02F3CF02F0F4CF03F00C02F35003265B
:10249000000EF420046E06500D02F3500426000EC8
:1024A000F420056E06500E02F350052607500B026D
:1024B000F3500326F4500422000E052207500C02AC
:1024C000F3500426F450052207500D02F350052660
:1024D00008500B02F3500426F450052208500C0259
:0E24E000F350052609500B02F350052612009A
:0224EE00056A7D
:1024F000046A036A026A200EE76ED8900636073631
:102500000836093602360336043605360B50025CAF
:102510000C5003580D5004580E50055809E30B5049
:10252000025E0C50035A0D50045A0E50055A062AEA
:06253000E72EE4D71200C3
:0A253600056A046A036A180EE76ED6
:10254000D8900736083609360336043605360C505F
:10255000035C0D5004580E50055807E30C50035E01
:102560000D50045A0E50055A072AE72EEAD71200DA
:10257000056A046A100EE76ED890083609360436EC
:1025800005360D50045C0E50055805E30D50045EF1
:0C2590000E50055A082AE72EF0D7120062
:04259C00800EF36E4C
:1025A00000EE00F00F0E01D81200EA6002D0EE6AD1
:0C25B000FCD7F350E9601200EE6AFCD783
:0425BC001EEE00F01F
:1025C0002EEE00F0F86A019CA8EC11F003EC00F08C
:0825D00034EC00F0FBD712000F
:0825D800056A080EE76ED890B9
:1025E000093605360E50055C02E3056E092AE72E12
:0425F000F7D7120007
:0C25F400000000000000000000000000DB
:1026000000000000000000000000000001000100C8
:1026100001000100C0F9A4B0999282F880900102F3
:07262000040800050003009F
:09262700010204081020408001AA
:102630000000000000000000000002010301000093
:0C26400005020305030A00000000000072
:04264C00000000008A
:10265000000000001010101010101010181818189A
:10266000181818181C1C1C1C1C1C1C1C1E1E1E1EB2
:102670001E1E1E1E1F1F1F1F1F1F1F1F00000000EA
:10268000000000000000000000000000000000004A
:10269000000000000000000000000000000000003A
:0D26A000000000000000000000000000002D
:0326AD000000002A
:1026B000D00022222207250910000100000000009E
:0926C00000000000000000000011
:0726C900000000000000000A
:1026D00000000000000000000000000000000000FA
:1026E00000000000000000000010204080010204F3
:0126F00008E1
:020000040030CA
:0100010002FC
:0100020003FA
:010003001EDE
:010005008179
:010006008178
:010008000FE8
:01000900C036
:01000A000FE6
:01000B00E014
:01000C000FE4
:01000D0040B2
:00000001FF
