:020000040000FA
:060000009CEF1CF0120051
:020006001200E6
:0600080022EF1AF01200C5
:02000E000000F0
:020010000000EE
:06001800ADEF19F012002B
:02001E000600DA
:100020003B3A00002E0F0000280000001F3A00009D
:10003000E10000001C0000000E0000001E01000096
:1000400004000000BE3900008000000061000000D4
:1000500090390000000F00002E00000070390000F1
:08006000560F00002000000013
:08006800D9CFE6FFE1CFD9FF7B
:10007000040EE126DE6ADD6ADECF10F0DDCF11F07E
:10008000126A136A11AE02D012681368D950FB0FBE
:10009000E96EFF0EDA20EA6EEE50105CEE50115859
:1000A000EE501258EE5013581DE2020EDB6A030E9A
:1000B000DB6A020EDBCF10F0030EDBCF11F0D8901D
:1000C000115004E6050E105C000E115806E2020EF7
:1000D000DB2A030EEEE3DB2AECD7DF2A010ECCE3AA
:1000E000DB2ACAD7040EE15C02E2E16AE552E16E66
:1000F000E552E7CFD9FF1200D9CFE6FFE1CFD9FF14
:10010000040EE126DE6ADD6ADECF10F0DDCF11F0ED
:10011000126A136A11AE02D012681368D950FB0F2D
:10012000E96EFF0EDA20EA6EEE50105CEE501158C8
:10013000EE501258EE5013581DE2020EDB6A030E09
:10014000DB6A020EDBCF10F0030EDBCF11F0D8908C
:10015000115004E6EE0E105C000E115806E2020E7D
:10016000DB2A030EEEE3DB2AECD7DF2A010ECCE319
:10017000DB2ACAD7040EE15C02E2E16AE552E16ED5
:10018000E552E7CFD9FF1200D9CFE6FFE1CFD9FF83
:100190000F0E8116FE0EDB50F00B81128186010ED0
:1001A000E66EE66AE66AE66AA7DFE552E552E552E0
:1001B000E5528196010EE66EE66AE66AE66A9CDF23
:1001C000E552E552E552E5520F0E8116FE0EDB3880
:1001D000F00B81128186010EE66EE66AE66AE66A37
:1001E0008BDFE552E552E552E5528196010EE66E4F
:1001F000E66AE66AE66A80DFE552E552E552E552D4
:10020000E552E7CFD9FF1200D9CFE6FFE1CFD9FF02
:10021000E652190EE66EE66AE66AE66A6DDFE552B8
:10022000E552E552E5520F0E8116F80E81160F0EBB
:100230008116300E81128186010EE66EE66AE66A4C
:10024000E66A5ADFE552E552E552E5528196010E23
:10025000E66EE66AE66AE66A4FDFE552E552E55287
:10026000E5520F0E8116300E81128186010EE66E68
:10027000E66AE66AE66A40DFE552E552E552E55293
:100280008196010EE66EE66AE66AE66A35DFE552B9
:10029000E552E552E5520F0E8116300E811281862D
:1002A000010EE66EE66AE66AE66A26DFE552E55288
:1002B000E552E5528196010EE66EE66AE66AE66A66
:1002C0001BDFE552E552E552E5520F0E8116818A99
:1002D0008186010EE66EE66AE66AE66A0DDFE552A1
:1002E000E552E552E5528196010EE66EE66AE66A4F
:1002F000E66A02DFE552E552E552E552280EE66E67
:1003000043DFE5520C0EE66E3FDFE552E552E55263
:10031000E7CFD9FF1200D9CFE6FFE1CFD9FF020E18
:10032000E126DF6A010EDB6A81940F0EE66EE66A53
:10033000E66AE66A99DEE552E552E552E5520F0EAD
:1003400081128186E66EE66AE66AE66A8DDEE5522D
:10035000E552E552E5520F0E8114E76E010EE7CF2C
:10036000DBFF81960F0EE66EE66AE66AE66A7CDEE1
:10037000E552E552E552E5520F0E81128186E66E96
:10038000E66AE66AE66A70DEE552E552E552E55253
:100390000F0E8114DF6E010EDB50DF128196010E0D
:1003A000E66EE66AE66AE66A5FDEE552E552E55227
:1003B000E552DF50106E020EE15C02E2E16AE552A6
:1003C000E16E1050E552E7CFD9FF1200D9CFE6FF1A
:1003D000E1CFD9FFE652DF6A9EDFDF6EDFBEFCD7DA
:1003E000DF50E552E552E7CFD9FF1200D9CFE6FF43
:1003F000E1CFD9FF0F0E8116FE0EDB5081128186F0
:10040000050EE66EE66AE66AE66A2EDEE552E5521B
:10041000E552E5528196050EE66EE66AE66AE66A00
:1004200023DEE552E552E552E552E552E7CFD9FF2A
:100430001200D9CFE6FFE1CFD9FF8194050EE66E19
:10044000E66AE66AE66A10DEE552E552E552E552F2
:10045000FE0EDBCFE6FFCADFE552FE0EDB38F00B07
:10046000E66EC4DFE552E552E7CFD9FF1200D9CFDF
:10047000E6FFE1CFD9FF8184050EE66EE66AE66A03
:10048000E66AF2DDE552E552E552E552FE0EDBCFBB
:10049000E6FFACDFE552FE0EDB38F00BE66EA6DFC2
:1004A000E5528194E552E7CFD9FF1200D9CFE6FF9C
:1004B000E1CFD9FFFE0EDBCFE6FFD9DFE552E552F3
:1004C000E7CFD9FF1200D9CFE6FFE1CFD9FFFE0E6B
:1004D000DBCFE6FFCCDFE552E552E7CFD9FF1200D4
:1004E000D9CFE6FFE1CFD9FFFD0EDBCFF6FFFE0E41
:1004F000DBCFF7FF0800F5500FE0FD0EDBCFF6FF76
:10050000DB2AFE0EDBCFF7FF01E3DB2A0800F55004
:10051000E66ED9DFE552E8D7E552E7CFD9FF120002
:10052000D9CFE6FFE1CFD9FFE652FD0EDB500F0B2E
:10053000106EFE0EDB50010B400DF3501024DF6EE9
:100540007F0EDF14800FDF6EDFCFE6FF72DFE55234
:10055000E552E552E7CFD9FF1200010EE66E69DFE2
:10056000E552E66AE66ADCDFE552E5521200D9CFD1
:10057000E6FFE1CFD9FF050EE126010EF36EDB6E3B
:10058000020EDB6A030EDB6A040EDB6ADF6ADFCF72
:1005900010F0116A10BE1168FB0EDBCF12F0FC0EDA
:1005A000DBCF13F011501318E8AE02D0133404D08F
:1005B0001250105C135011582DE2FD0EDBCF10F0DD
:1005C000FE0EDBCF11F0126A136A11AE02D0126870
:1005D0001368D950010FE96EDACFEAFF10C00BF0B3
:1005E00011C00CF012C00DF013C00EF0EECF06F0EB
:1005F000EECF07F0EECF08F0EFCF09F0FDEC1BF0E7
:1006000005C0EDFF04C0EDFF03C0EDFF02C0EFFF2A
:10061000DF2ABDD7010EDBCF10F0020EDBCF11F0C9
:10062000030EDBCF12F0040EDBCF13F010C006F088
:1006300011C007F012C008F013C009F0050EE15C0C
:1006400002E2E16AE552E16EE552E7CFD9FF12001E
:10065000D9CFE6FFE1CFD9FF020EE126DF6AFB0E1C
:10066000DBCF10F0FC0EDBCF11F0FD0EDBCF12F074
:10067000FE0EDBCF13F0105011101210131005E115
:10068000300EE66E20DFE552F4D0D950FB0FE96E54
:10069000FF0EDA20EA6ED890030EEB50000A08E64F
:1006A000000EEE5C000EEE58000EEE58000EEE58F6
:1006B00015E22D0EE66E07DFE552D950FB0FE96E0D
:1006C000FF0EDA20EA6E000EEE6CEF1EEE22EF1E39
:1006D000EE22EF1EEF22ED52ED52ED52DE52070EEA
:1006E000DD6E010EDBCF10F0000EE76E1018E8AEE5
:1006F00002D0103403D0E750D880105401E3B9D0B1
:10070000010EDB04146E156A14BE156814C0E6FFF2
:1007100015C0E6FF0A0EE66EE66A29DFE552E552ED
:10072000E552E55206C010F007C011F008C012F003
:1007300009C013F006C00BF007C00CF008C00DF0A4
:1007400009C00EF0FB0EDBCF06F0FC0EDBCF07F08E
:10075000FD0EDBCF08F0FE0EDBCF09F035EC1CF010
:10076000065007100810091041E0010EDF6EDB048F
:10077000186E196A18BE196818C0E6FF19C0E6FF9E
:100780000A0EE66EE66AF3DEE552E552E552E55200
:1007900006C014F007C015F008C016F009C017F025
:1007A00006C00BF007C00CF008C00DF009C00EF039
:1007B000FB0EDBCF06F0FC0EDBCF07F0FD0EDBCF30
:1007C00008F0FE0EDBCF09F035EC1CF006C010F08F
:1007D00007C011F008C012F009C013F0300E102647
:1007E000000E112212221322105003D0DF5004E019
:1007F000300EE66E68DEE552010EDB04146E156AFB
:1008000014BE156814C0E6FF15C0E6FF0A0EE66EBA
:10081000E66AADDEE552E552E552E55206C010F05B
:1008200007C011F008C012F009C013F0D950FB0F37
:10083000E96EFF0EDA20EA6E06C00BF007C00CF07E
:1008400008C00DF009C00EF0EECF06F0EECF07F0B5
:10085000EECF08F0EFCF09F035EC1CF005C0EDFF4E
:1008600004C0EDFF03C0EDFF02C0EFFF010EDB0689
:1008700038D7020EE15C02E2E16AE552E16EE55230
:10088000E7CFD9FF1200D9CFE6FFE1CFD9FFFD0EA8
:10089000DBCFE6FFFE0EDBCFE6FF42DEE552E552A0
:1008A000D950F90FE96EFF0EDA20EA6EEECFE6FFBF
:1008B000EECFE6FFEECFE6FFEFCFE6FFC9DEE55273
:1008C000E552E552E552E552E7CFD9FF1200D9CF04
:1008D000E6FFE1CFD9FFFD0EDBCFE6FFFE0EDBCF5B
:1008E000E6FF1EDEE552E552FB0EDBCFE6FFFC0E17
:1008F000DBCFE6FFF5DDE552E552E552E7CFD9FF64
:100900001200D9CFE6FFE1CFD9FF1AC110F01BC109
:1009100011F0040ED89010361136E806FBE1C10E36
:100920001026000E1122105001011C25E96E1150F5
:100930001D21EA6EFE0EDBCFEFFF1C2B000E1D23E8
:10094000E552E7CFD9FF1200D9CFE6FFE1CFD9FFBB
:10095000E652DF6ADFCF10F0100EE76E1018E8AE37
:1009600002D0E73402D0E750105C18E2DFCFE9FF95
:10097000EA6AE9BEEA68C10EE926000EEA22200E04
:10098000EF6EDFCFE9FFEA6AE9BEEA68D10EE92639
:10099000000EEA22200EEF6EDF2ADCD7E552E55288
:1009A000E7CFD9FF1200D9CFE6FFE1CFD9FFE6525A
:1009B0000001C051030A52E0010A36E0030A1AE0BE
:1009C000010A67E1E66AE66AABDDE552E552DF6AF5
:1009D000080EDF5C0CE2DF50EA6AC10FE96E000E20
:1009E000EA22EF50E66E6FDDE552DF2AF1D7000113
:1009F000010E32D0080EE66EE66A92DDE552E5524F
:100A0000DF6A080EDF5C0DE2080EDF24EA6AC10F20
:100A1000E96E000EEA22EF50E66E55DDE552DF2A60
:100A2000F0D70001020E18D0E66A010EE66E78DDFE
:100A3000E552E552DF6A080EDF5C0CE2DF50EA6A3D
:100A4000D10FE96E000EEA22EF50E66E3CDDE55272
:100A5000DF2AF1D70001030EC06F1CD0080EE66E2E
:100A6000010EE66E5DDDE552E552DF6A080EDF5CE1
:100A70000DE2080EDF24EA6AD10FE96E000EEA22C9
:100A8000EF50E66E20DDE552DF2AF0D70001C06BA3
:100A900001D0C06BE552E552E7CFD9FF1200D9CFA4
:100AA000E6FFE1CFD9FFE6520001C051010A1BE089
:100AB000010A32E1E66AE66A33DDE552E552DF6AB1
:100AC000100EDF5C0CE2DF50EA6AC10FE96E000E27
:100AD000EA22EF50E66EF7DCE552DF2AF1D700019B
:100AE000010EC06F1AD0E66A010EE66E19DDE552FE
:100AF000E552DF6A100EDF5C0CE2DF50EA6AD10FCC
:100B0000E96E000EEA22EF50E66EDDDCE552DF2AE8
:100B1000F1D70001C06B01D0C06BE552E552E7CFC1
:100B2000D9FF1200D9CFE6FFE1CFD9FFE652E66A3E
:100B3000E66AF6DCE552E552DF6A100EDF5C0CE295
:100B4000DF50EA6AC10FE96E000EEA22EF50E66E4E
:100B5000BADCE552DF2AF1D7E66A010EE66EE0DC88
:100B6000E552E552DF6A100EDF5C0CE2DF50EA6A04
:100B7000D10FE96E000EEA22EF50E66EA4DCE552DA
:100B8000DF2AF1D7E552E552E7CFD9FF1200D9CFDE
:100B9000E6FFE1CFD9FFFE0EDB50010B01011A6F1A
:100BA0001B6BFD0EDB500F0B1C6F1D6B1AC110F081
:100BB0001BC111F0040ED89010361136E806FBE187
:100BC000C10E1026000E1122105001011C25E96EE5
:100BD00011501D21EA6EFC0EDBCFEFFFE552E7CF8F
:100BE000D9FF1200D9CFE6FFE1CFD9FF020EE126EF
:100BF000DF6AFE0EDB50010B01011A6F1B6BFD0E4D
:100C0000DB500F0B1C6F1D6BF90EDBCF10F0FA0ED3
:100C1000DBCF11F0FB0EDBCF12F0FC0EDBCF13F0BD
:100C2000105011101210131005E1300EE66E69DE3F
:100C3000E552F5D0D950F90FE96EFF0EDA20EA6ED1
:100C4000D890030EEB50000A08E6000EEE5C000E92
:100C5000EE58000EEE58000EEE5815E22D0EE66E20
:100C600050DEE552D950F90FE96EFF0EDA20EA6E38
:100C7000000EEE6CEF1EEE22EF1EEE22EF1EEF22B4
:100C8000ED52ED52ED52DE52070EDD6E010EDBCF5E
:100C900010F0000EE76E1018E8AE02D0103403D04A
:100CA000E750D880105401E3BAD0010EDB04146E73
:100CB000156A14BE156814C0E6FF15C0E6FF0A0EDB
:100CC000E66EE66A54DCE552E552E552E55206C0AE
:100CD00010F007C011F008C012F009C013F006C0F0
:100CE0000BF007C00CF008C00DF009C00EF0F90EB3
:100CF000DBCF06F0FA0EDBCF07F0FB0EDBCF08F000
:100D0000FC0EDBCF09F035EC1CF006500710081084
:100D1000091041E0010EDF6EDB04186E196A18BE7F
:100D2000196818C0E6FF19C0E6FF0A0EE66EE66A0B
:100D30001EDCE552E552E552E55206C014F007C04C
:100D400015F008C016F009C017F006C00BF007C078
:100D50000CF008C00DF009C00EF0F90EDBCF06F064
:100D6000FA0EDBCF07F0FB0EDBCF08F0FC0EDBCF7B
:100D700009F035EC1CF006C010F007C011F008C0F7
:100D800012F009C013F0300E1026000E11221222AC
:100D90001322105003D0DF5004E0300EE66EB1DDB8
:100DA000E552010EDB04146E156A14BE156814C0FA
:100DB000E6FF15C0E6FF0A0EE66EE66AB7EC02F043
:100DC000E552E552E552E55206C010F007C011F0B9
:100DD00008C012F009C013F0D950F90FE96EFF0EE8
:100DE000DA20EA6E06C00BF007C00CF008C00DF068
:100DF00009C00EF0EECF06F0EECF07F0EECF08F010
:100E0000EFCF09F035EC1CF005C0EDFF04C0EDFF9D
:100E100003C0EDFF02C0EFFF010EDB0637D7020E65
:100E2000E15C02E2E16AE552E16EE552E7CFD9FF0B
:100E30001200D9CFE6FFE1CFD9FFFE0EDB50010B48
:100E400001011A6F1B6BFD0EDB500F0B1C6F1D6B2E
:100E5000FB0EDBCFF6FFFC0EDBCFF7FF0800F550F3
:100E60000FE0FB0EDBCFF6FFDB2AFC0EDBCFF7FF3C
:100E700001E3DB2A0800F550E66E43DDE552E8D7D2
:100E8000E552E7CFD9FF1200D9CFE6FFE1CFD9FF76
:100E9000050EE126D9CFE9FFDACFEAFFF90EDBCF65
:100EA000EEFFFA0EDBCFEEFFFB0EDBCFEEFFFC0E0C
:100EB000DBCFEEFFD9CFE9FFDACFEAFFEECF10F0BC
:100EC000EECF11F0EECF12F0EFCF13F0E80E0B6E75
:100ED000030E0C6E0D6A0E6A10C006F011C007F00A
:100EE00012C008F013C009F0FAEC1AF006C010F0B6
:100EF00007C011F008C012F009C013F006C0E6FFE9
:100F000007C0E6FF08C0E6FF09C0E6FFFD0EDBCF25
:100F1000E6FFFE0EDBCFE6FF65DE146E060EE15E39
:100F20001450D9CFE9FFDACFEAFFEECF06F0EECFCB
:100F300007F0EECF08F0EFCF09F0E80E0B6E030ECE
:100F40000C6E0D6A0E6AFAEC1AF002C0DEFF03C0E6
:100F5000DEFF04C0DEFF05C0DDFFDD52DD52D9CF6C
:100F6000E9FFDACFEAFFEECF10F0EECF11F0EECFCF
:100F700012F0EFCF13F0640E0B6E0C6A0D6A0E6A5E
:100F800010C006F011C007F012C008F013C009F03D
:100F9000FAEC1AF006C010F007C011F008C012F009
:100FA00009C013F006C0E6FF07C0E6FF08C0E6FF71
:100FB00009C0E6FFFD0EDB28E66EFE0EDBCFE6FF86
:100FC00011DE146E060EE15E1450D9CFE9FFDACFC0
:100FD000EAFFEECF06F0EECF07F0EECF08F0EFCF4E
:100FE00009F0640E0B6E0C6A0D6A0E6AFAEC1AF0C8
:100FF00002C0DEFF03C0DEFF04C0DEFF05C0DDFF70
:10100000DD52DD528A0EE66E370EE66EFD0EDB50C7
:10101000020FE66EFE0EDBCFE6FF0BDFE552E55278
:10102000E552E552D9CFE9FFDACFEAFFEECF10F073
:10103000EECF11F0EECF12F0EFCF13F00A0E0B6EE1
:101040000C6A0D6A0E6A10C006F011C007F012C0DB
:1010500008F013C009F0FAEC1AF006C010F007C04F
:1010600011F008C012F009C013F006C0E6FF07C077
:10107000E6FF08C0E6FF09C0E6FFFD0EDB50030FE8
:10108000E66EFE0EDBCFE6FFADDD146E060EE15E12
:101090001450D9CFE9FFDACFEAFFEECF06F0EECF5A
:1010A00007F0EECF08F0EFCF09F0E80E0B6E030E5D
:1010B0000C6E0D6A0E6AFAEC1AF002C0DEFF03C075
:1010C000DEFF04C0DEFF05C0DDFFDD52DD52D9CFFB
:1010D000E9FFDACFEAFFEECF10F0EECF11F0EECF5E
:1010E00012F0EFCF13F00A0E0B6E0C6A0D6A0E6A47
:1010F00010C006F011C007F012C008F013C009F0CC
:10110000FAEC1AF002C010F003C011F004C012F0A3
:1011100005C013F002C0E6FF03C0E6FF04C0E6FF0F
:1011200005C0E6FFFD0EDB50040FE66EFE0EDBCFC2
:10113000E6FF58DD146E060EE15E1450050EE15C0C
:1011400002E2E16AE552E16EE552E7CFD9FF120013
:10115000D9CFE6FFE1CFD9FF020EE126DE6ADD6AD4
:101160006AD8E80EE66E030EE66E19D8E552E5522F
:1011700090EC10F00F016151FDE0616B0F01212B2C
:101180002151106E116A050E101803E1115001E192
:10119000216B2EEC16F08CDAD3EC04F0EBD7D9CF20
:1011A000E6FFE1CFD9FF040EE126DE6ADD6ADECF7D
:1011B00010F0DDCF11F0FD0EDBCF12F0FE0EDBCF15
:1011C00013F011501318E8AE02D0133404D01250AB
:1011D000105C135011581DE2020EDB6A030EDB6A2D
:1011E000020EDBCF10F0030EDBCF11F0D8901150C0
:1011F00004E6EE0E105C000E115806E2020EDB2A29
:10120000030EEEE3DB2AECD7DF2A010ED0E3DB2A64
:10121000CED7040EE15C02E2E16AE552E16EE552EE
:10122000E7CFD9FF1200956A836A080E966E846E26
:10123000936A926A1200F7DF04EC01F025EC16F0D5
:10124000A5EC19F0ADEC02F0A4EC04F0F40EE66E9F
:10125000010EE66EA4DFE552E552570EE66E120E61
:10126000E66E97EC13F0E552E552AE0EE66E240EF4
:10127000E66E39EC14F0E552E552660EE66EB70EF6
:10128000E66EFAEC14F0E552E552020EE66EE66AFE
:10129000D5EC15F0E552E5520A0EE66EE66AE7EC8B
:1012A00015F0E552E552320EE66EE66A06EC16F0EF
:1012B000E552E55229EC16F0DDEC10F07DEC1BF068
:1012C000B1EF18F0D9CFE6FFE1CFD9FFFE0EDBCFAB
:1012D00011F0800E11141BE1FD0EDBCF12F0FE0E9B
:1012E000DBCF13F0133404E212500708000E13543E
:1012F0000EE3FD0EDBCFE9FFFE0EDBCFEAFF000EB3
:10130000E9260F0EEA22EF508310836E18D0D950D1
:10131000FD0FE96EFF0EDA20EA6E080EEE180FE1FF
:10132000ED500DE1FD0EDBCFE9FFFE0EDBCFEAFF56
:10133000000EE9260F0EEA22EF508410846EE5526B
:10134000E7CFD9FF1200D9CFE6FFE1CFD9FFFE0EDC
:10135000DBCF11F0800E11141BE1FD0EDBCF12F07C
:10136000FE0EDBCF13F0133404E212500708000E18
:1013700013540EE3FD0EDBCFE9FFFE0EDBCFEAFFD9
:10138000000EE9260F0EEA22EF1C8314836E18D09C
:10139000D950FD0FE96EFF0EDA20EA6E080EEE1846
:1013A0000FE1ED500DE1FD0EDBCFE9FFFE0EDBCFCF
:1013B000EAFF000EE9260F0EEA22EF1C8414846E69
:1013C000E552E7CFD9FF1200D9CFE6FFE1CFD9FF31
:1013D000FD0EDBCFE9FFFE0EDBCFEAFF090EE926AB
:1013E0000F0EEA22EF0415E1FD0EDBCFE6FFFE0E45
:1013F000DBCFE6FFA8DFE552E552FD0EDBCFE9FFCC
:10140000FE0EDBCFEAFF090EE9260F0EEA22EF6A95
:1014100015D0FD0EDBCFE6FFFE0EDBCFE6FF52DF81
:10142000E552E552FD0EDBCFE9FFFE0EDBCFEAFF12
:10143000090EE9260F0EEA22010EEF6EE552E7CF04
:10144000D9FF1200D9CFE6FFE1CFD9FF020EE12686
:10145000DE6ADD6ADECF10F0DDCF11F0D8901150DA
:1014600004E60E0E105C000E115821E2DECFE6FFFE
:10147000DDCFE6FF27DFE552E552F40EE66E010E02
:10148000E66E8DDEE552E552DECFE6FFDDCFE6FF0C
:101490005ADFE552E552F40EE66E010EE66E7FDE8F
:1014A000E552E552DF2A010ED5E3DB2AD3D7020E3F
:1014B000E15C02E2E16AE552E16EE552E7CFD9FF75
:1014C0001200D9CFE6FFE1CFD9FF020EE126DE6A96
:1014D000DD6ADE6ADD6ADECF10F0DDCF11F0D89074
:1014E000115004E6080E105C000E115829E2FE0EA1
:1014F000DB50DF5206E0DFCFF3FFE846FE0BF306DA
:10150000FCE1800B800805E1000EE66EE66ADADE9B
:1015100004D0000EE66EE66A16DFE552E552010ED3
:10152000E66EE66ACFDEE552E552010EE66EE66A49
:101530000ADFE552E552DF2A010ECDE3DB2ACBD7E5
:10154000020EE15C02E2E16AE552E16EE552E7CFAC
:10155000D9FF1200D9CFE6FFE1CFD9FFFD0EDBCFD7
:10156000E6FFAFDFE552FE0EDBCFE6FFAADFE55276
:10157000020EE66EE66AA6DEE552E552020EE66E61
:10158000E66AE1DEE552E552E552E7CFD9FF120007
:10159000E66A97DFE552E66A94DFE552020EE66EF0
:1015A000E66A90DEE552E552020EE66EE66ACBDEB2
:1015B000E552E5521200D9CFE6FFE1CFD9FFFE0E8A
:1015C000DB50030A46E0010A1DE0030A6DE1D95031
:1015D000FC0FE96EFF0EDA20EA6E010EEE180AE14A
:1015E000ED5008E1030EE66EE66A6CDEE552E55268
:1015F000040E1AD0060EE66EE66A64DEE552E55287
:10160000070E20D0D950FC0FE96EFF0EDA20EA6EEB
:10161000010EEE1810E1ED500EE1040EE66EE66AE2
:1016200051DEE552E552030EE66EE66A8CDEE552C7
:10163000E552050E34D0070EE66EE66A43DEE5524B
:10164000E552060EE66EE66A7EDEE552E552080ECB
:1016500026D0D950FC0FE96EFF0EDA20EA6E010E9B
:10166000EE1810E1ED500EE1050EE66EE66A2ADE98
:10167000E552E552040EE66EE66A65DEE552E55295
:10168000030E0DD0080EE66EE66A1CDEE552E5524A
:10169000070EE66EE66A57DEE552E552060EE66E86
:1016A000E66A51DEE552E552E552E7CFD9FF120076
:1016B00077DBF70EE66E370EE66E5EEC11F0E55264
:1016C000E5520F011D51030A01E1EED0010A01E1CB
:1016D000BED0020A22E0010A01E01BD1A4EC04F012
:1016E000E60EE66E370EE66EE66AE66A19EC07F07D
:1016F000E552E552E552E552BBD90DD9000901E1A9
:1017000009D10F011D6B010E1E6F030E1F6F216BA0
:1017100023CF26FF25CF27FF1200A4EC04F0D50E1F
:10172000E66E370EE66EE66AE66A19EC07F0E552F9
:10173000E552E552E552C40EE66E370EE66EE66AF5
:10174000010EE66E19EC07F0E552E552E552E5525E
:10175000C10EE66E370EE66EE66A010EE66E19EC15
:1017600007F0E552E552E552E55223CF10F0116A39
:10177000126A136A23CFE6FF11C0E6FF12C0E6FF2C
:1017800013C0E6FF020EE66E010EE66EF2EC05F007
:10179000146E060EE15E1450BE0EE66E370EE66E57
:1017A000060EE66E010EE66E19EC07F0E552E55204
:1017B000E552E55224CF10F0116A126A136A24CF61
:1017C000E6FF11C0E6FF12C0E6FF13C0E6FF080EF9
:1017D000E66E010EE66EF2EC05F0146E060EE15EAA
:1017E0001450BB0EE66E370EE66E0C0EE66E010E62
:1017F000E66E19EC07F0E552E552E552E55225CFC9
:1018000010F0116A126A136A25CFE6FF11C0E6FFD5
:1018100012C0E6FF13C0E6FF0E0EE66E010EE66E86
:10182000F2EC05F0146E060EE15E14504FD973D839
:10183000000903E00F01020E1D6F0F01010E2E19AA
:1018400005E12F5167E10F01010E1D6F1200A4EC9D
:1018500004F0AA0EE66E370EE66EE66AE66A19EC4A
:1018600007F0E552E552E552E55222CF10F0116A39
:10187000126A136A22CFE6FF11C0E6FF12C0E6FF2C
:1018800013C0E6FF0A0EE66E010EE66EF2EC05F0FE
:10189000146E060EE15E14501CD93DD800093AE0E2
:1018A0000F01030E1D6F1200A4EC04F0990EE66EFA
:1018B000370EE66EE66AE66A19EC07F0E552E55285
:1018C000E552E55222CF10F0116A126A136A22CF54
:1018D000E6FF11C0E6FF12C0E6FF13C0E6FF0A0EE6
:1018E000E66E010EE66EF2EC05F0146E060EE15E99
:1018F00014501DD910D800090DE00F011D6B010E09
:101900001E6F030E1F6F216B23CF26FF25CF27FFEE
:1019100012001D6B12000F01010E361903E1375141
:1019200001E1010C000C0F01010E32192EE13351BF
:101930002CE10F01222B2251630801E2226B960E4B
:10194000E66E370EE66E0A0EE66E010EE66E19ECD6
:1019500007F0E552E552E552E55222CF10F0116A48
:10196000126A136A22CFE6FF11C0E6FF12C0E6FF3B
:1019700013C0E6FF0A0EE66E010EE66EF2EC05F00D
:10198000146E060EE15E1450010C000C0F01010EE6
:1019900030192FE131512DE10F01220722510008AA
:1019A00002E3630E226F960EE66E370EE66E0A0EA7
:1019B000E66E010EE66E19EC07F0E552E552E552CF
:1019C000E55222CF10F0116A126A136A22CFE6FFA5
:1019D00011C0E6FF12C0E6FF13C0E6FF0A0EE66E76
:1019E000010EE66EF2EC05F0146E060EE15E145088
:1019F000010C000CD9CFE6FFE1CFD9FF020EE126A2
:101A0000DE6ADD6A0F011D51030A0BE0010A18E1CD
:101A10000F01010E2E1914E12F5112E122CF24FFE4
:101A200008D00F01010E2E190BE12F5109E122CF31
:101A300025FF0F0124512525236F010EDE6EDD6A7F
:101A4000D9CFE9FFDACFEAFF010EEE1804E1ED503D
:101A500002E1010E01D0000E106E020EE15C02E206
:101A6000E16AE552E16E1050E552E7CFD9FF12006E
:101A7000010EE66EE66AE66E9EDDE552E552E5523F
:101A8000020EE66EE66A010EE66E95DDE552E5525F
:101A9000E5521BCFE6FF010EE66E5CDDE552E55236
:101AA0001BCFE6FF020EE66E55DDE552E5521BCF79
:101AB000E6FF040EE66E4EDDE552E5521BCFE6FF73
:101AC000080EE66E47DDE552E552120061D84CEF94
:101AD0000EF05EDD0F01215111E1010EE66EE66AA6
:101AE000020EE66E68DDE552E552E552020EE66E44
:101AF000E66AE66E60DDE552E552E5520F012151DE
:101B0000106E116A0A0E10180EE111500CE1040E4D
:101B1000E66EE66A18DCE552E552070EE66EE66A06
:101B200012DCE552E552FFDE31DFFAEF0CF030DD7A
:101B30000F01215112E1010EE66EE66A030EE66E18
:101B40003ADDE552E552E552020EE66EE66A030E14
:101B5000E66E31DDE552E552E5520F012151106E7E
:101B6000116A0A0E101810E111500EE1050EE66E12
:101B7000E66AA3EC09F0E552E552080EE66EE66A65
:101B8000A3EC09F0E552E552CEDE00DFFAEF0CF0EF
:101B9000D9CFE6FFE1CFD9FF020EE1260A0E106E83
:101BA0000E6E26CF09F0AAEC1CF00550DF6E0A0E6F
:101BB000106E0E6E26CF09F0AAEC1CF0010E09C0C3
:101BC000DBFFDB50EA6A130FE96E0F0EEA22EF50DB
:101BD000E66E010EE66EBEDCE552E5520A0EE66EDA
:101BE000E66ACFEC08F0E552E552DF50EA6A130FDF
:101BF000E96E0F0EEA22EF50E66E020EE66EAADCE8
:101C0000E552E5520F011E51020A29E0010A14E0D3
:101C1000020A38E1010EE66EE66AE66ECCDCE552B9
:101C2000E552E5520F0121512DE1260726512AE107
:101C300025CF26FF030E25D0010EE66EE66A030EC1
:101C4000E66EB9DCE552E552E5520F0121511AE189
:101C50002607265117E124CF26FF020E12D0010ECF
:101C6000E66EE66A020EE66EA6DCE552E552E55245
:101C70000F01215107E12607265104E123CF26FF5A
:101C8000010E1E6F020EE15C02E2E16AE552E16EB6
:101C9000E552E7CFD9FF1200D9CFE6FFE1CFD9FF58
:101CA000020EE1260A0E106E0E6E27CF09F0AAEC86
:101CB0001CF00550DF6E0A0E106E0E6E27CF09F075
:101CC000AAEC1CF0010E09C0DBFFDB50EA6A130F1F
:101CD000E96E0F0EEA22EF50E66E040EE66E3ADC75
:101CE000E552E5520A0EE66EE66ACFEC08F0E552E0
:101CF000E552DF50EA6A130FE96E0F0EEA22EF5049
:101D0000E66E080EE66E26DCE552E5520F011F5125
:101D1000030A29E0010A15E0030A38E1020EE66E23
:101D2000E66A010EE66E47DCE552E552E5520F0128
:101D300021512CE12707275129E125CF27FF030E49
:101D400024D0020EE66EE66AE66E35DCE552E55218
:101D5000E5520F0121511AE12707275117E123CF3F
:101D600027FF010E12D0020EE66EE66A030EE66E43
:101D700022DCE552E552E5520F01215107E1270728
:101D8000275104E124CF27FF020E1F6F020EE15CF2
:101D900002E2E16AE552E16EE552E7CFD9FF1200B7
:101DA000E66A62EC19F0E5520F01286F010EE66E4B
:101DB00062EC19F0E5520F01296F020EE66E62EC3B
:101DC00019F0E5520F012A6F040EE66E62EC19F06D
:101DD000E5520F012B6F050EE66E62EC19F0E5522D
:101DE0000F012C6F060EE66E62EC19F0E5520F0142
:101DF0002D6F0A0E146E0E6E2BCF09F08DEC1AF0BB
:101E000009C010F0116A126A136A10AE03D011688B
:101E10001268136810C0E6FF11C0E6FF12C0E6FFAB
:101E200013C0E6FFF5EC11F0E552E552E552E5523C
:101E30002BCF09F00A0E0E6E8DEC1AF005C010F0D3
:101E4000116A126A136A10AE03D01168126813681F
:101E500010C0E6FF11C0E6FF12C0E6FF13C0E6FFA8
:101E6000F5EC11F0E552E552E552E552940EE66EBE
:101E7000370EE66E5EEC11F0E552E5520A0E146E76
:101E80000E6E2CCF09F08DEC1AF009C010F0116A1B
:101E9000126A136A10AE03D011681268136810C07A
:101EA000E6FF11C0E6FF12C0E6FF13C0E6FFF5EC47
:101EB00011F0E552E552E552E5522CCF09F00A0E39
:101EC0000E6E8DEC1AF005C010F0116A126A136ADA
:101ED00010AE03D011681268136810C0E6FF11C07D
:101EE000E6FF12C0E6FF13C0E6FFF5EC11F0E55285
:101EF000E552E552E552940EE66E370EE66E5EEC64
:101F000011F0E552E5520A0E146E0E6E2DCF09F057
:101F10008DEC1AF009C010F0116A126A136A10AE43
:101F200003D011681268136810C0E6FF11C0E6FF05
:101F300012C0E6FF13C0E6FFF5EC11F0E552E552E2
:101F4000E552E5522DCF09F00A0E0E6E8DEC1AF017
:101F500005C010F0116A126A136A10AE03D011683E
:101F60001268136810C0E6FF11C0E6FF12C0E6FF5A
:101F700013C0E6FFF5EC11F0E552E552E552E552EB
:101F8000920EE66E370EE66E5EEC11F0E552E5520B
:101F90000A0E146E0E6E2ACF09F08DEC1AF009C0ED
:101FA00010F0116A126A136A10AE03D01168126839
:101FB000136810C0E6FF11C0E6FF12C0E6FF13C0B1
:101FC000E6FFF5EC11F0E552E552E552E5522ACF75
:101FD00009F00A0E0E6E8DEC1AF005C010F0116AB1
:101FE000126A136A10AE03D011681268136810C029
:101FF000E6FF11C0E6FF12C0E6FF13C0E6FFF5ECF6
:1020000011F0E552E552E552E552900EE66E370EBC
:10201000E66E5EEC11F0E552E5520A0E146E0E6E9D
:1020200029CF09F08DEC1AF009C010F0116A126A7C
:10203000136A10AE03D011681268136810C0E6FF6F
:1020400011C0E6FF12C0E6FF13C0E6FFF5EC11F089
:10205000E552E552E552E55229CF09F00A0E0E6E1F
:102060008DEC1AF005C010F0116A126A136A10AEF6
:1020700003D011681268136810C0E6FF11C0E6FFB4
:1020800012C0E6FF13C0E6FFF5EC11F0E552E55291
:10209000E552E552900EE66E370EE66E5EEC11F0FC
:1020A000E552E5520A0E146E0E6E28CF09F08DEC43
:1020B0001AF009C010F0116A126A136A10AE03D048
:1020C00011681268136810C0E6FF11C0E6FF12C065
:1020D000E6FF13C0E6FFF5EC11F0E552E552E552DC
:1020E000E55228CF09F00A0E0E6E8DEC1AF005C0ED
:1020F00010F0116A126A136A10AE03D011681268E8
:10210000136810C0E6FF11C0E6FF12C0E6FF13C05F
:10211000E6FFF5EC11F0E552E552E552E55212000A
:10212000200EE66E62EC19F0E552220808E0220E5D
:10213000E66E200EE66E47EC19F0E552E55212000D
:102140000F01320E286F3B0E296F170E2A6F1F0EDC
:102150002B6F0C0E2C6F0E0E2D6F28CFE6FFE66A4C
:1021600047EC19F0E552E55229CFE6FF010EE66E85
:1021700047EC19F0E552E5522ACFE6FF020EE66E73
:1021800047EC19F0E552E5522BCFE6FF040EE66E60
:1021900047EC19F0E552E5522CCFE6FF050EE66E4E
:1021A00047EC19F0E552E5522DCFE6FF060EE66E3C
:0A21B00047EC19F0E552E552120069
:0621BA00B06A810EAF6E59
:1021C000AC8AAC94B886AC98AB8EAB889E9A9D8A4C
:1021D0009F9A949C948E1200D9CFE6FFE1CFD9FF4D
:1021E000040EE126DE6ADD6ADECF10F0DDCF11F0ED
:1021F000FD0EDBCF12F0FE0EDBCF13F011501318E3
:10220000E8AE02D0133404D01250105C13501158B1
:102210001DE2020EDB6A030EDB6A020EDBCF10F05A
:10222000030EDBCF11F0D890115004E6EE0E105CD7
:10223000000E115806E2020EDB2A030EEEE3DB2A43
:10224000ECD7DF2A010ED0E3DB2ACED7040EE15C07
:1022500002E2E16AE552E16EE552E7CFD9FF1200F2
:10226000D9CFE6FFE1CFD9FF9EA8FED7FE0EDB5007
:10227000AD6E9E98E552E7CFD9FF1200D9CFE6FFA9
:10228000E1CFD9FFFD0EDBCFE9FFFE0EDBCFEAFF8A
:10229000EF5010E0FD0EDBCFE9FFFE0EDBCFEAFFD3
:1022A000EF50E66EDDDFE552FD0EDB2AFE0EEAE3BF
:1022B000DB2AE8D7E552E7CFD9FF1200D9CFE6FFF6
:1022C000E1CFD9FFFD0EDBCFF6FFFE0EDBCFF7FF30
:1022D0000800F55015E0FD0EDBCFF6FFFE0EDBCF5C
:1022E000F7FF0800F550E66EBBDFE552FD0EDBCFD1
:1022F000F6FFDB2AFE0EDBCFF7FFE4E3DB2AE2D7B3
:10230000E552E7CFD9FF1200D9CFE6FFE1CFD9FFE1
:10231000050EE126010EF36EDB6E020EDB6A030E84
:10232000DB6A040EDB6ADF6ADFCF10F0116A10BED1
:102330001168FB0EDBCF12F0FC0EDBCF13F0115057
:102340001318E8AE02D0133404D01250105C1350AE
:1023500011582DE2FD0EDBCF10F0FE0EDBCF11F099
:10236000126A136A11AE02D012681368D950010FB5
:10237000E96EDACFEAFF10C00BF011C00CF012C00A
:102380000DF013C00EF0EECF06F0EECF07F0EECF5B
:1023900008F0EFCF09F0FDEC1BF005C0EDFF04C025
:1023A000EDFF03C0EDFF02C0EFFFDF2ABDD7010E36
:1023B000DBCF10F0020EDBCF11F0030EDBCF12F0FB
:1023C000040EDBCF13F010C006F011C007F012C0EE
:1023D00008F013C009F0050EE15C02E2E16AE55283
:1023E000E16EE552E7CFD9FF1200D9CFE6FFE1CF8A
:1023F000D9FF020EE126DF6AFB0EDBCF10F0FC0EE8
:10240000DBCF11F0FD0EDBCF12F0FE0EDBCF13F0B1
:10241000105011101210131005E1300EE66E20DF7F
:10242000E552F4D0D950FB0FE96EFF0EDA20EA6EC8
:10243000D890030EEB50000A08E6000EEE5C000E8A
:10244000EE58000EEE58000EEE5815E22D0EE66E18
:1024500007DFE552D950FB0FE96EFF0EDA20EA6E76
:10246000000EEE6CEF1EEE22EF1EEE22EF1EEF22AC
:10247000ED52ED52ED52DE520A0EDD6E010EDBCF53
:1024800010F0000EE76E1018E8AE02D0103403D042
:10249000E750D880105401E3B9D0010EDB04146E6C
:1024A000156A14BE156814C0E6FF15C0E6FF0A0ED3
:1024B000E66EE66A29DFE552E552E552E55206C0CE
:1024C00010F007C011F008C012F009C013F006C0E8
:1024D0000BF007C00CF008C00DF009C00EF0FB0EA9
:1024E000DBCF06F0FC0EDBCF07F0FD0EDBCF08F0F4
:1024F000FE0EDBCF09F035EC1CF00650071008107B
:10250000091041E0010EDF6EDB04186E196A18BE77
:10251000196818C0E6FF19C0E6FF0A0EE66EE66A03
:10252000F3DEE552E552E552E55206C014F007C06D
:1025300015F008C016F009C017F006C00BF007C070
:102540000CF008C00DF009C00EF0FB0EDBCF06F05A
:10255000FC0EDBCF07F0FD0EDBCF08F0FE0EDBCF6D
:1025600009F035EC1CF006C010F007C011F008C0EF
:1025700012F009C013F0300E1026000E11221222A4
:102580001322105003D0DF5004E0300EE66E68DEF8
:10259000E552010EDB04146E156A14BE156814C0F2
:1025A000E6FF15C0E6FF0A0EE66EE66AADDEE5520E
:1025B000E552E552E55206C010F007C011F008C020
:1025C00012F009C013F0D950FB0FE96EFF0EDA20AC
:1025D000EA6E06C00BF007C00CF008C00DF009C091
:1025E0000EF0EECF06F0EECF07F0EECF08F0EFCF13
:1025F00009F035EC1CF005C0EDFF04C0EDFF03C091
:10260000EDFF02C0EFFF010EDB0638D7020EE15CE2
:1026100002E2E16AE552E16EE552E7CFD9FF12002E
:10262000D9CFE6FFE1CFD9FFFD0EDBCF10F0FE0ED4
:10263000DBCF11F0640E0D6E0E6A10C008F011C0F1
:1026400009F0A7EC1AF008C010F009C011F0126AE6
:10265000136A11AE02D01268136810C0E6FF11C0F1
:10266000E6FF12C0E6FF13C0E6FFBFDEE552E5520B
:10267000E552E5522E0EE66EF3DDE552FD0EDBCFA0
:1026800010F0FE0EDBCF11F0640E0D6E0E6A10C05E
:1026900008F011C009F0A7EC1AF004C010F005C052
:1026A00011F0126A136A11AE02D01268136810C0DA
:1026B000E6FF11C0E6FF12C0E6FF13C0E6FF95DE9D
:1026C000E552E552E552E552E552E7CFD9FF120057
:1026D000D9CFE6FFE1CFD9FFE652AE50DF6E8C0EC8
:1026E000E66E370EE66EE66A010EE66E19EC07F04E
:1026F000E552E552E552E552DFCF10F0116A126A59
:10270000136A10C0E6FF11C0E6FF12C0E6FF13C057
:10271000E6FFE66A010EE66EF2EC05F0146E060EB8
:0E272000E15E1450E552E552E7CFD9FF1200FA
:02272E00D9CF01
:10273000E6FFE1CFD9FFD59EFD0EDBCF56FFFE0EA3
:10274000DBCF57FFD59C13681468156A56CF16F077
:1027500057CF17F0186A1650135C106E17501458A4
:10276000116E18501558126E0C6A010E0D6E0E6A1D
:1027700010C007F011C008F012C009F0CDEC1AF03B
:102780000350D66E13681468156A56CF16F057CFEB
:1027900017F0186A1650135C106E17501458116E0B
:1027A00018501558126E0C6A010E0D6E0E6A10C08C
:1027B00007F011C008F012C009F0CDEC1AF007C004
:1027C00010F008C011F009C012F00750D76ED59A6A
:1027D000D586F28AF294F184D58EE552E7CFD9FFFF
:1027E0001200D59E120013681468156A56CF16F0B1
:1027F00057CF17F0186A1650135C106E1750145804
:10280000116E18501558126E0C6A010E0D6E0E6A7C
:1028100010C007F011C008F012C009F0CDEC1AF09A
:102820000350D66E13681468156A56CF16F057CF4A
:1028300017F0186A1650135C106E17501458116E6A
:1028400018501558126E0C6A010E0D6E0E6A10C0EB
:1028500007F011C008F012C009F0CDEC1AF007C063
:1028600010F008C011F009C012F00750D76ED58ED5
:102870001200D9CFE6FFE1CFD9FFCD90FD0EDBCF1F
:1028800058FFFE0EDBCF59FF13681468156A58CF46
:1028900016F059CF17F0186A1650135C106E1750C7
:1028A0001458116E18501558126E0C6A010E0D6EE8
:1028B0000E6A10C007F011C008F012C009F0CDEC8C
:1028C0001AF00750CF6E13681468156A58CF16F0C7
:1028D00059CF17F0186A1650135C106E1750145821
:1028E000116E18501558126E0C6A010E0D6E0E6A9C
:1028F00010C007F011C008F012C009F0CDEC1AF0BA
:1029000003C010F004C011F005C012F00350CE6EE9
:102910009D809E909F90CD8ECD8CCD98CD9ACD965A
:10292000CD92CD80E552E7CFD9FF1200136814682D
:10293000156A58CF16F059CF17F0186A1650135C65
:10294000106E17501458116E18501558126E0C6AEC
:10295000010E0D6E0E6A10C007F011C008F012C013
:1029600009F0CDEC1AF00750CF6E13681468156AA1
:1029700058CF16F059CF17F0186A1650135C106E26
:1029800017501458116E18501558126E0C6A010E1B
:102990000D6E0E6A10C007F011C008F012C009F0E9
:1029A000CDEC1AF003C010F004C011F005C012F015
:1029B0000350CE6ECD801200CD901200D9CFE6FF2D
:1029C000E1CFD9FFCA94CC6AFE0EDB500F015A6FDB
:1029D0005B6BCB6E9D829E929F92CA90CA92CA8474
:1029E000E552E7CFD9FF12005ACFCBFFCA841200BD
:1029F000CA941200D9CFE6FFE1CFD9FFB190FD0E06
:102A0000DBCF5CFFFE0EDBCF5DFF13681468156A39
:102A10005CCF16F05DCF17F0186A1650135C106E7D
:102A200017501458116E18501558126E0C6A010E7A
:102A30000D6E0E6A10C007F011C008F012C009F048
:102A4000CDEC1AF00750B36E13681468156A5CCFAA
:102A500016F05DCF17F0186A1650135C106E175001
:102A60001458116E18501558126E0C6A010E0D6E26
:102A70000E6A10C007F011C008F012C009F0CDECCA
:102A80001AF003C010F004C011F005C012F003509A
:102A9000B26EA082A192A292B18EB198B19AB19277
:102AA000B180E552E7CFD9FF120013681468156AA8
:102AB0005CCF16F05DCF17F0186A1650135C106EDD
:102AC00017501458116E18501558126E0C6A010EDA
:102AD0000D6E0E6A10C007F011C008F012C009F0A8
:102AE000CDEC1AF00350B26E13681468156A5CCF0F
:102AF00016F05DCF17F0186A1650135C106E175061
:102B00001458116E18501558126E0C6A010E0D6E85
:102B10000E6A10C007F011C008F012C009F0CDEC29
:102B20001AF007C010F008C011F009C012F00750E9
:102B3000B36EB1801200B19012000F01662B000E2F
:102B400067236E51665D6F51675904E3666B676B6F
:102B5000010E5E6F12000F01682B000E6923705189
:102B6000685D7151695904E3686B696B010E5F6FB1
:102B700012000F016A2B000E6B2372516A5D7351B4
:102B80006B5904E36A6B6B6B010E606F12000F01EF
:102B90006C2B000E6D2374516C5D75516D5904E3FF
:102BA0006C6B6D6B010E616F1200D9CFE6FFE1CF48
:102BB000D9FFFD0EDBCF6EFFFE0EDBCF6FFF0F01E7
:102BC000666B676B5E6BE552E7CFD9FF1200D9CF1A
:102BD000E6FFE1CFD9FFFD0EDBCF70FFFE0EDBCFAE
:102BE00071FF050E0D6E0E6A70CF08F071CF09F0FF
:102BF000A7EC1AF008C070FF09C071FF0F01686BE5
:102C0000696B5F6BE552E7CFD9FF1200D9CFE6FFC2
:102C1000E1CFD9FFFD0EDBCF74FFFE0EDBCF75FFDA
:102C20000A0E0D6E0E6A74CF08F075CF09F0A7EC8E
:102C30001AF008C074FF09C075FF0F016C6B6D6B53
:0A2C4000616BE552E7CFD9FF1200E7
:062C4A000F0E946E82687B
:102C50001200CF0E9414946E82681200D9CFE6FF52
:102C6000E1CFD9FF040EE126DE6ADD6ADECF10F087
:102C7000DDCF11F0D890115004E6040E105C000E68
:102C8000115801E390D0DECFE9FFDDCFEAFF4E0E11
:102C9000E9260F0EEA22EF1C826E020EDB6A030E9B
:102CA000DB6A020EDBCF10F0030EDBCF11F0D89001
:102CB000115004E6040E105C000E11586EE2020E74
:102CC000DBCFE9FF030EDBCFEAFF520EE9260F0E42
:102CD000EA22EF5082143FE1DECF14F0DDCF15F091
:102CE000D89014361536D89014361536020EDB50AF
:102CF0001424E96E030EDB501520EA6ED890E936F5
:102D0000EA362E0EE9260F0EEA22EECF12F0EFCFB2
:102D100013F0010E1226000E1322DECF10F0DDCFCD
:102D200011F0D89010361136D89010361136020EA8
:102D3000DB501024E96E030EDB501120EA6ED890B0
:102D4000E936EA362E0EE9260F0EEA2212C0EEFF11
:102D500013C0EDFF1BD0DECF10F0DDCF11F0D89007
:102D600010361136D89010361136020EDB50102472
:102D7000E96E030EDB501120EA6ED890E936EA3690
:102D80002E0EE9260F0EEA22EE6AED6A020EDB2A0B
:102D9000030E01E286D7DB2A84D7DF2A010E01E287
:102DA00065D7DB2A63D7040EE15C02E2E16AE552F3
:102DB000E16EE552E7CFD9FF1200D9CFE6FFE1CFB0
:102DC000D9FF040EE126DE6ADD6ADECF10F0DDCF2A
:102DD00011F0D890115004E6020E105C000E11584C
:102DE00001E394D0DECFE9FFDDCFEAFF4E0EE92606
:102DF0000F0EEA22EF1C8214826E0F0E8210826E7A
:102E0000020EDB6A030EDB6A020EDBCF10F0030E4C
:102E1000DBCF11F0D890115004E6040E105C000EC8
:102E200011586EE2020EDBCFE9FF030EDBCFEAFFA3
:102E3000520EE9260F0EEA22EF5082143FE1DECF58
:102E400014F0DDCF15F0D89014361536D89014361E
:102E50001536020EDB501424E96E030EDB501520EC
:102E6000EA6ED890E936EA362E0EE9260F0EEA22EF
:102E7000EECF12F0EFCF13F0010E1226000E132248
:102E8000DECF10F0DDCF11F0D89010361136D8908B
:102E900010361136020EDB501024E96E030EDB50A3
:102EA0001120EA6ED890E936EA362E0EE9260F0E8A
:102EB000EA2212C0EEFF13C0EDFF1BD0DECF10F0F0
:102EC000DDCF11F0D89010361136D890103611366B
:102ED000020EDB501024E96E030EDB501120EA6E67
:102EE000D890E936EA362E0EE9260F0EEA22EE6A6F
:102EF000ED6A020EDB2A030E01E286D7DB2A84D7B5
:102F0000DF2A010E01E261D7DB2A5FD7040EE15C04
:102F100002E2E16AE552E16EE552E7CFD9FF120025
:102F2000D9CFE6FFE1CFD9FF040EE126DE6ADD6AE4
:102F3000DECF10F0DDCF11F0FD0EDBCF12F0FE0E74
:102F4000DBCF13F011501318E8AE02D0133404D0C5
:102F50001250105C135011581DE2020EDB6A030E72
:102F6000DB6A020EDBCF10F0030EDBCF11F0D8903E
:102F7000115004E6EE0E105C000E115806E2020E2F
:102F8000DB2A030EEEE3DB2AECD7DF2A010ED0E3C7
:102F9000DB2ACED7040EE15C02E2E16AE552E16E83
:102FA000E552E7CFD9FF1200D9CFE6FFE1CFD9FF35
:102FB000040EE126DE6ADD6ADECF10F0DDCF11F00F
:102FC000D890115004E6040E105C000E115875E202
:102FD000DECFE9FFDDCFEAFF4E0EE9260F0EEA2233
:102FE000EF1C826E020EDB6A030EDB6A020EDBCF81
:102FF00010F0030EDBCF11F0D890115004E6040E50
:10300000105C000E11584AE2DECF10F0DDCF11F057
:10301000D89010361136D89010361136020EDB508B
:103020001024E96E030EDB501120EA6ED890E936C9
:10303000EA362E0EE9260F0EEA22EE6AED6A020E3D
:10304000DBCFE9FF030EDBCFEAFF520EE9260F0EBE
:10305000EA22EF5082141CE1DECF10F0DDCF11F038
:10306000D89010361136D89010361136020EDB503B
:103070001024E96E030EDB501120EA6ED890E93679
:10308000EA362E0EE9260F0EEA22010EEE6EED6AEA
:10309000020EDB2A030EAAE3DB2AA8D78250816E38
:1030A000E80EE66E030EE66E3BDFE552E552DF2AE0
:1030B000010E01E281D7DB2A7FD7040EE15C02E238
:0E30C000E16AE552E16EE552E7CFD9FF12005A
:0230CE00D9CF58
:1030D000E6FFE1CFD9FF020EE126FE0EDB500F0B1B
:1030E000DF6EFE0EDB380F0B0A0D010EF3CFDBFF98
:1030F000DB50DF24106E020EE15C02E2E16AE55271
:10310000E16E1050E552E7CFD9FF1200D9CFE6FFAC
:10311000E1CFD9FF020EE1260A0E106E0E6EFE0EF2
:10312000DBCF09F0AAEC1CF00550DF6E0A0E106E22
:103130000E6EFE0EDBCF09F0AAEC1CF00950100D4C
:10314000010EF3CFDBFFDB50DF24106E020EE15CDB
:1031500002E2E16AE552E16E1050E552E7CFD9FF95
:103160001200949694981200D9CFE6FFE1CFD9FFD0
:10317000E652DF6AFE0EDB50DF5C02E2DF2AFAD79E
:10318000E552E552E7CFD9FF120082A8000C010CEE
:103190000001FC5102E08288828682988296010EAC
:1031A000FC6F12008298828682880001FC6B1200FC
:1031B000D9CFE6FFE1CFD9FF020EE126DF6ADFCFEC
:1031C00010F0080EE76E1018E8AE02D0E73402D017
:1031D000E750105C0FE2FE0EDBBE02D0829801D0F9
:1031E000828882868296DB50020DFE0EF3CFDBFFD3
:1031F000DF2AE5D794888286C8DFE76E010EE7CF25
:10320000DBFF82969498DB50106E020EE15C02E2C6
:10321000E16AE552E16E1050E552E7CFD9FF1200A6
:10322000D9CFE6FFE1CFD9FF020EE126DF6A94880D
:10323000010EDB6ADBCF10F0080EE76E1018E8AE67
:1032400002D0E73402D0E750105C0BE282869DDFAB
:10325000106EDF50E8241010DF6E8296010EDB2A1C
:10326000E9D79498FE0EDB5002E0828801D0829864
:1032700082868296DF50106E020EE15C02E2E16A05
:10328000E552E16E1050E552E7CFD9FF1200D9CFD9
:10329000E6FFE1CFD9FF7CDFD00EE66E89DFE55295
:1032A000FE0EDBCFE6FF84DFE552FD0EDBCFE6FF4F
:1032B0002DDFE552E66E7CDFE55274DFE552E7CFA5
:1032C000D9FF1200D9CFE6FFE1CFD9FFE65260DF88
:1032D000D00EE66E6DDFE552FE0EDBCFE6FF68DF57
:1032E000E55256DFD10EE66E63DFE552010EE66E63
:1032F00097DFE552DF6EDFCFE6FFE9DEE552DF6EF6
:1033000051DFDF50E552E552E7CFD9FF1200D9CFA8
:10331000E6FFE1CFD9FFFD0EDBCFE6FFFE0EDBCFF0
:10332000E6FFB5DFE552E552E552E7CFD9FF1200DF
:10333000D9CFE6FFE1CFD9FFFE0EDBCFE6FFC2DF3C
:0A334000E552E552E7CFD9FF120075
:06334A00F28ED08EF28C21
:103350001200F19CF292F2881200D8CFE4FFE0CF85
:10336000E4FFE46EDACFE4FFE2CFDAFFE9CFE4FF77
:10337000EACFE4FFF6CFE4FFF7CFE4FFF5CFE4FFB9
:10338000F3CFE4FFF4CFE4FFFACFE4FF00EE00F068
:10339000100EE80403E3EECFE4FFFBD700EE10F0DD
:1033A0000A0EE80403E3EECFE4FFFBD7E652F2A4F3
:1033B00007D0F1EC13F0F294F3EC13F09DEC15F060
:1033C0009EA007D0DCEC14F09E9096EC14F0ABECD1
:1033D00015F0A1A207D09BEC15F0A19255EC15F0C9
:1033E000C7EC15F0F2B2F2929EAA03D09E9A68EC56
:1033F00013F0E55200EE19F00A0EE80403E3E5CFFE
:10340000EDFFFBD700EE0FF0100EE80403E3E5CF6D
:10341000EDFFFBD7E5CFFAFFE5CFF4FFE5CFF3FFF4
:10342000E5CFF5FFE5CFF7FFE5CFF6FFE5CFEAFF04
:10343000E5CFE9FFE5CFDAFFE550E5CFE0FFE5CFE7
:10344000D8FF1000DACFE4FFE2CFDAFFE9CFE4FFE4
:10345000EACFE4FFF6CFE4FFF7CFE4FFF5CFE4FFD8
:10346000F3CFE4FFF4CFE4FFFACFE4FF00EE00F087
:10347000100EE80403E3EECFE4FFFBD700EE10F0FC
:103480000A0EE80403E3EECFE4FFFBD7E652F2A412
:1034900007D0F1EC13F0F294F3EC13F09DEC15F07F
:1034A0009EA007D0DCEC14F09E9096EC14F0ABECF0
:1034B00015F0A1A207D09BEC15F0A19255EC15F0E8
:1034C000C7EC15F0F2B2F2929EAA03D09E9A68EC75
:1034D00013F0E55200EE19F00A0EE80403E3E5CF1D
:1034E000EDFFFBD700EE0FF0100EE80403E3E5CF8D
:1034F000EDFFFBD7E5CFFAFFE5CFF4FFE5CFF3FF14
:10350000E5CFF5FFE5CFF7FFE5CFF6FFE5CFEAFF23
:0A351000E5CFE9FFE5CFDAFF110077
:06351A00006A0EAE93EF03
:103520001AF00E6C001E09AE98EF1AF0096C001E1E
:10353000AAEC1CF009BEA2EF1AF000AE000C096C58
:10354000056C000C00BE9FEF1AF00188FF0C006AAA
:103550000EAEB0EF1AF00D6C0E1EE86A0E22001EC1
:1035600009AEB8EF1AF0086C091EE86A0922001EBD
:1035700076EC1CF009BEC8EF1AF000AE000C086C27
:10358000091EE86A0922046C051EE86A0522000C7F
:1035900000BEBFEF1AF00188FF0C006A0EAED8EF34
:1035A0001AF00C6C0D1E0E1EE86A0D220E22001E73
:1035B00009AEE2EF1AF0076C081E091EE86A08223D
:1035C0000922001E59EC1CF009BEF5EF1AF000AEFE
:1035D000000C076C081E091EE86A08220922036C09
:1035E000041E051E04220522000C00BEE9EF1AF09D
:1035F0000188FF0C006AE86A0EAE07EF1BF00B6C47
:103600000C1E0D1E0E1E0C220D220E22001E09AED7
:1036100012EF1BF0066C071E081E091E0722082267
:103620000922001E35EC1CF009BE29EF1BF000AE8C
:10363000000C066C071E081E091EE86A07220822F5
:103640000922026C031E041E051E03220422052209
:0C365000000C00BE19EF1BF00188FF0CFD
:04365C001E0EF66EDA
:10366000000EF76E000EF86E0F010900F5507B6F2B
:103670000900F5507C6F03E17B6701D03DD0090064
:10368000F550766F0900F550776F0900F550786FA7
:1036900009000900F550E96E0900F550EA6E0900CD
:1036A00009000900F550796F0900F5507A6F09009B
:1036B0000900F6CF7DFFF7CF7EFFF8CF7FFF76CFF3
:1036C000F6FF77CFF7FF78CFF8FF0F01795302E1CC
:1036D0007A5307E00900F550EE6E7907F8E27A07B1
:1036E000F9D77DCFF6FF7ECFF7FF7FCFF8FF0F0131
:0A36F0007B07000E7C5BBFD71200C1
:0636FA00010E926E0E0E9F
:10370000C16EC26A040EC06EC2801200D9CFE6FF3D
:10371000E1CFD9FF020EE126DE6ADD6AC282C2B2C3
:10372000FED7C450DE6EDD6ADECF12F0DDCF13F0BF
:10373000D89012361336D89012361336060EC3CFF1
:10374000E7FF070B04E0E742E79EE806FCE1E750ED
:103750001224106E000E132010C0DEFFDD6EDECFCF
:1037600000F1DDCF01F1DECF10F0DDCF11F010C0A0
:10377000F3FF11C0F4FF020EE15C02E2E16AE552E0
:0A378000E16EE552E7CFD9FF120019
:06378A002E0020202000AB
:103790003A0020002E0020200020202047524545DE
:1037A0004E5F4D4F44452020200020202059454C9D
:1037B0004C4F575F4D4F4445202000473A00593A3F
:1037C00000523A00202020202020202020202020ED
:1037D000202020200020202020204E4F524D414C00
:1037E00020202020200020202053544F505F4D4F98
:0A37F000444520202020000D0A00AF
:0637FA0006500B02F3CFA4
:1038000002F0F4CF03F00C02F3500326000EF42074
:10381000046E06500D02F3500426000EF420056ECF
:1038200006500E02F350052607500B02F3500326F4
:10383000F4500422000E052207500C02F350042617
:10384000F450052207500D02F350052608500B02D4
:10385000F3500426F450052208500C02F3500526BC
:0A38600009500B02F3500526120078
:06386A00056A046A036A0E
:10387000026A200EE76ED8900636073608360936FB
:1038800002360336043605360B50025C0C500358E2
:103890000D5004580E50055809E30B50025E0C50B1
:1038A000035A0D50045A0E50055A062AE72EE4D743
:0238B000120004
:0E38B200056A046A036A180EE76ED89007369E
:1038C000083609360336043605360C50035C0D50B5
:1038D00004580E50055807E30C50035E0D50045A6F
:0C38E0000E50055A072AE72EEAD7120006
:0438EC00056A046AFB
:1038F000100EE76ED89008360936043605360D509E
:10390000045C0E50055805E30D50045E0E50055A38
:08391000082AE72EF0D712008F
:08391800800EF36E00EE00F0DA
:103920000F0E01D81200EA6002D0EE6AFCD7F35005
:08393000E9601200EE6AFCD709
:083938001EEE00F02EEE00F07F
:10394000F86A019C2EEC1BF003EC00F0A8EC08F0E8
:04395000FBD712008F
:0C395400056A080EE76ED89009360536AB
:103960000E50055C02E3056E092AE72EF7D7120018
:103970000000000000000000000000000000000047
:103980000000000000000000010001000100010033
:103990000102040810204080010000000000000027
:1039A000000000C0F9A4B0999282F8809000010351
:0E39B0000100000502030503000000000000F6
:0239BE00000007
:1039C0000000000000001010101010101010181847
:1039D0001818181818181C1C1C1C1C1C1C1C1E1E3B
:1039E0001E1E1E1E1E1E1F1F1F1F1F1F1F1F00002B
:1039F00000000000000000000000000000000000C7
:103A000000000000000000000000000000000000B6
:0F3A1000000000000000000000000000000000A7
:013A1F0000A6
:103A20000000D0002222220725091000010000001A
:0B3A300000000000000000000000008B
:053A3B00000000000086
:103A40000000000000000000000000000000000076
:103A50000000000000000000000000102040800175
:033A600002040855
:020000040030CA
:0100010002FC
:0100020003FA
:010003001EDE
:010005008179
:010006008178
:010008000FE8
:01000900C036
:01000A000FE6
:01000B00E014
:01000C000FE4
:01000D0040B2
:00000001FF
